{
	"abc.sol": {
		"SimpleStorage": {
			"abi": [
				{
					"inputs": [
						{
							"internalType": "string",
							"name": "Name",
							"type": "string"
						},
						{
							"internalType": "uint256",
							"name": "num",
							"type": "uint256"
						},
						{
							"internalType": "bool",
							"name": "flg",
							"type": "bool"
						}
					],
					"name": "add",
					"outputs": [],
					"stateMutability": "nonpayable",
					"type": "function"
				},
				{
					"inputs": [
						{
							"internalType": "uint256",
							"name": "",
							"type": "uint256"
						}
					],
					"name": "arr",
					"outputs": [
						{
							"internalType": "uint256",
							"name": "anyNumber",
							"type": "uint256"
						},
						{
							"internalType": "string",
							"name": "name",
							"type": "string"
						},
						{
							"internalType": "bool",
							"name": "flag",
							"type": "bool"
						}
					],
					"stateMutability": "view",
					"type": "function"
				},
				{
					"inputs": [
						{
							"internalType": "string",
							"name": "",
							"type": "string"
						}
					],
					"name": "map",
					"outputs": [
						{
							"internalType": "uint256",
							"name": "",
							"type": "uint256"
						}
					],
					"stateMutability": "view",
					"type": "function"
				},
				{
					"inputs": [],
					"name": "retreive",
					"outputs": [
						{
							"internalType": "uint256",
							"name": "",
							"type": "uint256"
						}
					],
					"stateMutability": "view",
					"type": "function"
				},
				{
					"inputs": [
						{
							"internalType": "uint256",
							"name": "_nos",
							"type": "uint256"
						}
					],
					"name": "store",
					"outputs": [],
					"stateMutability": "nonpayable",
					"type": "function"
				}
			],
			"devdoc": {
				"kind": "dev",
				"methods": {},
				"version": 1
			},
			"evm": {
				"assembly": "    /* \"abc.sol\":33:1081  contract SimpleStorage {... */\n  mstore(0x40, 0x80)\n  callvalue\n  dup1\n  iszero\n  tag_1\n  jumpi\n  0x00\n  dup1\n  revert\ntag_1:\n  pop\n  dataSize(sub_0)\n  dup1\n  dataOffset(sub_0)\n  0x00\n  codecopy\n  0x00\n  return\nstop\n\nsub_0: assembly {\n        /* \"abc.sol\":33:1081  contract SimpleStorage {... */\n      mstore(0x40, 0x80)\n      callvalue\n      dup1\n      iszero\n      tag_1\n      jumpi\n      0x00\n      dup1\n      revert\n    tag_1:\n      pop\n      jumpi(tag_2, lt(calldatasize, 0x04))\n      shr(0xe0, calldataload(0x00))\n      dup1\n      0x23814fc5\n      eq\n      tag_3\n      jumpi\n      dup1\n      0x6057361d\n      eq\n      tag_4\n      jumpi\n      dup1\n      0x71e5ee5f\n      eq\n      tag_5\n      jumpi\n      dup1\n      0xb05784b8\n      eq\n      tag_6\n      jumpi\n      dup1\n      0xb8a8f54f\n      eq\n      tag_7\n      jumpi\n    tag_2:\n      0x00\n      dup1\n      revert\n        /* \"abc.sol\":305:340  mapping(string=>uint256) public map */\n    tag_3:\n      tag_8\n      0x04\n      dup1\n      calldatasize\n      sub\n      dup2\n      add\n      swap1\n      tag_9\n      swap2\n      swap1\n      tag_10\n      jump\t// in\n    tag_9:\n      tag_11\n      jump\t// in\n    tag_8:\n      mload(0x40)\n      tag_12\n      swap2\n      swap1\n      tag_13\n      jump\t// in\n    tag_12:\n      mload(0x40)\n      dup1\n      swap2\n      sub\n      swap1\n      return\n        /* \"abc.sol\":529:595  function store(uint256 _nos) public{... */\n    tag_4:\n      tag_14\n      0x04\n      dup1\n      calldatasize\n      sub\n      dup2\n      add\n      swap1\n      tag_15\n      swap2\n      swap1\n      tag_16\n      jump\t// in\n    tag_15:\n      tag_17\n      jump\t// in\n    tag_14:\n      stop\n        /* \"abc.sol\":383:409  ExampleStruct[] public arr */\n    tag_5:\n      tag_18\n      0x04\n      dup1\n      calldatasize\n      sub\n      dup2\n      add\n      swap1\n      tag_19\n      swap2\n      swap1\n      tag_16\n      jump\t// in\n    tag_19:\n      tag_20\n      jump\t// in\n    tag_18:\n      mload(0x40)\n      tag_21\n      swap4\n      swap3\n      swap2\n      swap1\n      tag_22\n      jump\t// in\n    tag_21:\n      mload(0x40)\n      dup1\n      swap2\n      sub\n      swap1\n      return\n        /* \"abc.sol\":599:735  function retreive()public view returns(uint256){... */\n    tag_6:\n      tag_23\n      tag_24\n      jump\t// in\n    tag_23:\n      mload(0x40)\n      tag_25\n      swap2\n      swap1\n      tag_13\n      jump\t// in\n    tag_25:\n      mload(0x40)\n      dup1\n      swap2\n      sub\n      swap1\n      return\n        /* \"abc.sol\":829:966  function add(string memory Name, uint256 num, bool flg)public{... */\n    tag_7:\n      tag_26\n      0x04\n      dup1\n      calldatasize\n      sub\n      dup2\n      add\n      swap1\n      tag_27\n      swap2\n      swap1\n      tag_28\n      jump\t// in\n    tag_27:\n      tag_29\n      jump\t// in\n    tag_26:\n      stop\n        /* \"abc.sol\":305:340  mapping(string=>uint256) public map */\n    tag_11:\n      0x01\n      dup2\n      dup1\n      mload\n      0x20\n      dup2\n      add\n      dup3\n      add\n      dup1\n      mload\n      dup5\n      dup3\n      mstore\n      0x20\n      dup4\n      add\n      0x20\n      dup6\n      add\n      keccak256\n      dup2\n      dup4\n      mstore\n      dup1\n      swap6\n      pop\n      pop\n      pop\n      pop\n      pop\n      pop\n      0x00\n      swap2\n      pop\n      swap1\n      pop\n      sload\n      dup2\n      jump\t// out\n        /* \"abc.sol\":529:595  function store(uint256 _nos) public{... */\n    tag_17:\n        /* \"abc.sol\":585:589  _nos */\n      dup1\n        /* \"abc.sol\":573:582  anyNumber */\n      0x00\n        /* \"abc.sol\":573:589  anyNumber = _nos */\n      dup2\n      swap1\n      sstore\n      pop\n        /* \"abc.sol\":529:595  function store(uint256 _nos) public{... */\n      pop\n      jump\t// out\n        /* \"abc.sol\":383:409  ExampleStruct[] public arr */\n    tag_20:\n      0x02\n      dup2\n      dup2\n      sload\n      dup2\n      lt\n      tag_31\n      jumpi\n      0x00\n      dup1\n      revert\n    tag_31:\n      swap1\n      0x00\n      mstore\n      keccak256(0x00, 0x20)\n      swap1\n      0x03\n      mul\n      add\n      0x00\n      swap2\n      pop\n      swap1\n      pop\n      dup1\n      0x00\n      add\n      sload\n      swap1\n      dup1\n      0x01\n      add\n      dup1\n      sload\n      tag_33\n      swap1\n      tag_34\n      jump\t// in\n    tag_33:\n      dup1\n      0x1f\n      add\n      0x20\n      dup1\n      swap2\n      div\n      mul\n      0x20\n      add\n      mload(0x40)\n      swap1\n      dup2\n      add\n      0x40\n      mstore\n      dup1\n      swap3\n      swap2\n      swap1\n      dup2\n      dup2\n      mstore\n      0x20\n      add\n      dup3\n      dup1\n      sload\n      tag_35\n      swap1\n      tag_34\n      jump\t// in\n    tag_35:\n      dup1\n      iszero\n      tag_36\n      jumpi\n      dup1\n      0x1f\n      lt\n      tag_37\n      jumpi\n      0x0100\n      dup1\n      dup4\n      sload\n      div\n      mul\n      dup4\n      mstore\n      swap2\n      0x20\n      add\n      swap2\n      jump(tag_36)\n    tag_37:\n      dup3\n      add\n      swap2\n      swap1\n      0x00\n      mstore\n      keccak256(0x00, 0x20)\n      swap1\n    tag_38:\n      dup2\n      sload\n      dup2\n      mstore\n      swap1\n      0x01\n      add\n      swap1\n      0x20\n      add\n      dup1\n      dup4\n      gt\n      tag_38\n      jumpi\n      dup3\n      swap1\n      sub\n      0x1f\n      and\n      dup3\n      add\n      swap2\n    tag_36:\n      pop\n      pop\n      pop\n      pop\n      pop\n      swap1\n      dup1\n      0x02\n      add\n      0x00\n      swap1\n      sload\n      swap1\n      0x0100\n      exp\n      swap1\n      div\n      0xff\n      and\n      swap1\n      pop\n      dup4\n      jump\t// out\n        /* \"abc.sol\":599:735  function retreive()public view returns(uint256){... */\n    tag_24:\n        /* \"abc.sol\":638:645  uint256 */\n      0x00\n        /* \"abc.sol\":684:696  uint256 temp */\n      dup1\n        /* \"abc.sol\":709:712  100 */\n      0x64\n        /* \"abc.sol\":699:708  anyNumber */\n      sload(0x00)\n        /* \"abc.sol\":699:712  anyNumber*100 */\n      tag_40\n      swap2\n      swap1\n      tag_41\n      jump\t// in\n    tag_40:\n        /* \"abc.sol\":684:712  uint256 temp = anyNumber*100 */\n      swap1\n      pop\n        /* \"abc.sol\":725:729  temp */\n      dup1\n        /* \"abc.sol\":718:729  return temp */\n      swap2\n      pop\n      pop\n        /* \"abc.sol\":599:735  function retreive()public view returns(uint256){... */\n      swap1\n      jump\t// out\n        /* \"abc.sol\":829:966  function add(string memory Name, uint256 num, bool flg)public{... */\n    tag_29:\n        /* \"abc.sol\":899:902  arr */\n      0x02\n        /* \"abc.sol\":908:935  ExampleStruct(num,Name,flg) */\n      mload(0x40)\n      dup1\n      0x60\n      add\n      0x40\n      mstore\n      dup1\n        /* \"abc.sol\":922:925  num */\n      dup5\n        /* \"abc.sol\":908:935  ExampleStruct(num,Name,flg) */\n      dup2\n      mstore\n      0x20\n      add\n        /* \"abc.sol\":926:930  Name */\n      dup6\n        /* \"abc.sol\":908:935  ExampleStruct(num,Name,flg) */\n      dup2\n      mstore\n      0x20\n      add\n        /* \"abc.sol\":931:934  flg */\n      dup4\n        /* \"abc.sol\":908:935  ExampleStruct(num,Name,flg) */\n      iszero\n      iszero\n      dup2\n      mstore\n      pop\n        /* \"abc.sol\":899:936  arr.push(ExampleStruct(num,Name,flg)) */\n      swap1\n      dup1\n      0x01\n      dup2\n      sload\n      add\n      dup1\n      dup3\n      sstore\n      dup1\n      swap2\n      pop\n      pop\n      0x01\n      swap1\n      sub\n      swap1\n      0x00\n      mstore\n      keccak256(0x00, 0x20)\n      swap1\n      0x03\n      mul\n      add\n      0x00\n      swap1\n      swap2\n      swap1\n      swap2\n      swap1\n      swap2\n      pop\n      0x00\n      dup3\n      add\n      mload\n      dup2\n      0x00\n      add\n      sstore\n      0x20\n      dup3\n      add\n      mload\n      dup2\n      0x01\n      add\n      swap1\n      dup2\n      tag_44\n      swap2\n      swap1\n      tag_45\n      jump\t// in\n    tag_44:\n      pop\n      0x40\n      dup3\n      add\n      mload\n      dup2\n      0x02\n      add\n      exp(0x0100, 0x00)\n      dup2\n      sload\n      dup2\n      0xff\n      mul\n      not\n      and\n      swap1\n      dup4\n      iszero\n      iszero\n      mul\n      or\n      swap1\n      sstore\n      pop\n      pop\n      pop\n        /* \"abc.sol\":957:960  num */\n      dup2\n        /* \"abc.sol\":945:948  map */\n      0x01\n        /* \"abc.sol\":949:953  Name */\n      dup5\n        /* \"abc.sol\":945:954  map[Name] */\n      mload(0x40)\n      tag_46\n      swap2\n      swap1\n      tag_47\n      jump\t// in\n    tag_46:\n      swap1\n      dup2\n      mstore\n      0x20\n      add\n      mload(0x40)\n      dup1\n      swap2\n      sub\n      swap1\n      keccak256\n        /* \"abc.sol\":945:960  map[Name] = num */\n      dup2\n      swap1\n      sstore\n      pop\n        /* \"abc.sol\":829:966  function add(string memory Name, uint256 num, bool flg)public{... */\n      pop\n      pop\n      pop\n      jump\t// out\n        /* \"#utility.yul\":7:82   */\n    tag_48:\n        /* \"#utility.yul\":40:46   */\n      0x00\n        /* \"#utility.yul\":73:75   */\n      0x40\n        /* \"#utility.yul\":67:76   */\n      mload\n        /* \"#utility.yul\":57:76   */\n      swap1\n      pop\n        /* \"#utility.yul\":7:82   */\n      swap1\n      jump\t// out\n        /* \"#utility.yul\":88:205   */\n    tag_49:\n        /* \"#utility.yul\":197:198   */\n      0x00\n        /* \"#utility.yul\":194:195   */\n      dup1\n        /* \"#utility.yul\":187:199   */\n      revert\n        /* \"#utility.yul\":211:328   */\n    tag_50:\n        /* \"#utility.yul\":320:321   */\n      0x00\n        /* \"#utility.yul\":317:318   */\n      dup1\n        /* \"#utility.yul\":310:322   */\n      revert\n        /* \"#utility.yul\":334:451   */\n    tag_51:\n        /* \"#utility.yul\":443:444   */\n      0x00\n        /* \"#utility.yul\":440:441   */\n      dup1\n        /* \"#utility.yul\":433:445   */\n      revert\n        /* \"#utility.yul\":457:574   */\n    tag_52:\n        /* \"#utility.yul\":566:567   */\n      0x00\n        /* \"#utility.yul\":563:564   */\n      dup1\n        /* \"#utility.yul\":556:568   */\n      revert\n        /* \"#utility.yul\":580:682   */\n    tag_53:\n        /* \"#utility.yul\":621:627   */\n      0x00\n        /* \"#utility.yul\":672:674   */\n      0x1f\n        /* \"#utility.yul\":668:675   */\n      not\n        /* \"#utility.yul\":663:665   */\n      0x1f\n        /* \"#utility.yul\":656:661   */\n      dup4\n        /* \"#utility.yul\":652:666   */\n      add\n        /* \"#utility.yul\":648:676   */\n      and\n        /* \"#utility.yul\":638:676   */\n      swap1\n      pop\n        /* \"#utility.yul\":580:682   */\n      swap2\n      swap1\n      pop\n      jump\t// out\n        /* \"#utility.yul\":688:868   */\n    tag_54:\n        /* \"#utility.yul\":736:813   */\n      0x4e487b7100000000000000000000000000000000000000000000000000000000\n        /* \"#utility.yul\":733:734   */\n      0x00\n        /* \"#utility.yul\":726:814   */\n      mstore\n        /* \"#utility.yul\":833:837   */\n      0x41\n        /* \"#utility.yul\":830:831   */\n      0x04\n        /* \"#utility.yul\":823:838   */\n      mstore\n        /* \"#utility.yul\":857:861   */\n      0x24\n        /* \"#utility.yul\":854:855   */\n      0x00\n        /* \"#utility.yul\":847:862   */\n      revert\n        /* \"#utility.yul\":874:1155   */\n    tag_55:\n        /* \"#utility.yul\":957:984   */\n      tag_101\n        /* \"#utility.yul\":979:983   */\n      dup3\n        /* \"#utility.yul\":957:984   */\n      tag_53\n      jump\t// in\n    tag_101:\n        /* \"#utility.yul\":949:955   */\n      dup2\n        /* \"#utility.yul\":945:985   */\n      add\n        /* \"#utility.yul\":1087:1093   */\n      dup2\n        /* \"#utility.yul\":1075:1085   */\n      dup2\n        /* \"#utility.yul\":1072:1094   */\n      lt\n        /* \"#utility.yul\":1051:1069   */\n      0xffffffffffffffff\n        /* \"#utility.yul\":1039:1049   */\n      dup3\n        /* \"#utility.yul\":1036:1070   */\n      gt\n        /* \"#utility.yul\":1033:1095   */\n      or\n        /* \"#utility.yul\":1030:1118   */\n      iszero\n      tag_102\n      jumpi\n        /* \"#utility.yul\":1098:1116   */\n      tag_103\n      tag_54\n      jump\t// in\n    tag_103:\n        /* \"#utility.yul\":1030:1118   */\n    tag_102:\n        /* \"#utility.yul\":1138:1148   */\n      dup1\n        /* \"#utility.yul\":1134:1136   */\n      0x40\n        /* \"#utility.yul\":1127:1149   */\n      mstore\n        /* \"#utility.yul\":917:1155   */\n      pop\n        /* \"#utility.yul\":874:1155   */\n      pop\n      pop\n      jump\t// out\n        /* \"#utility.yul\":1161:1290   */\n    tag_56:\n        /* \"#utility.yul\":1195:1201   */\n      0x00\n        /* \"#utility.yul\":1222:1242   */\n      tag_105\n      tag_48\n      jump\t// in\n    tag_105:\n        /* \"#utility.yul\":1212:1242   */\n      swap1\n      pop\n        /* \"#utility.yul\":1251:1284   */\n      tag_106\n        /* \"#utility.yul\":1279:1283   */\n      dup3\n        /* \"#utility.yul\":1271:1277   */\n      dup3\n        /* \"#utility.yul\":1251:1284   */\n      tag_55\n      jump\t// in\n    tag_106:\n        /* \"#utility.yul\":1161:1290   */\n      swap2\n      swap1\n      pop\n      jump\t// out\n        /* \"#utility.yul\":1296:1604   */\n    tag_57:\n        /* \"#utility.yul\":1358:1362   */\n      0x00\n        /* \"#utility.yul\":1448:1466   */\n      0xffffffffffffffff\n        /* \"#utility.yul\":1440:1446   */\n      dup3\n        /* \"#utility.yul\":1437:1467   */\n      gt\n        /* \"#utility.yul\":1434:1490   */\n      iszero\n      tag_108\n      jumpi\n        /* \"#utility.yul\":1470:1488   */\n      tag_109\n      tag_54\n      jump\t// in\n    tag_109:\n        /* \"#utility.yul\":1434:1490   */\n    tag_108:\n        /* \"#utility.yul\":1508:1537   */\n      tag_110\n        /* \"#utility.yul\":1530:1536   */\n      dup3\n        /* \"#utility.yul\":1508:1537   */\n      tag_53\n      jump\t// in\n    tag_110:\n        /* \"#utility.yul\":1500:1537   */\n      swap1\n      pop\n        /* \"#utility.yul\":1592:1596   */\n      0x20\n        /* \"#utility.yul\":1586:1590   */\n      dup2\n        /* \"#utility.yul\":1582:1597   */\n      add\n        /* \"#utility.yul\":1574:1597   */\n      swap1\n      pop\n        /* \"#utility.yul\":1296:1604   */\n      swap2\n      swap1\n      pop\n      jump\t// out\n        /* \"#utility.yul\":1610:1756   */\n    tag_58:\n        /* \"#utility.yul\":1707:1713   */\n      dup3\n        /* \"#utility.yul\":1702:1705   */\n      dup2\n        /* \"#utility.yul\":1697:1700   */\n      dup4\n        /* \"#utility.yul\":1684:1714   */\n      calldatacopy\n        /* \"#utility.yul\":1748:1749   */\n      0x00\n        /* \"#utility.yul\":1739:1745   */\n      dup4\n        /* \"#utility.yul\":1734:1737   */\n      dup4\n        /* \"#utility.yul\":1730:1746   */\n      add\n        /* \"#utility.yul\":1723:1750   */\n      mstore\n        /* \"#utility.yul\":1610:1756   */\n      pop\n      pop\n      pop\n      jump\t// out\n        /* \"#utility.yul\":1762:2187   */\n    tag_59:\n        /* \"#utility.yul\":1840:1845   */\n      0x00\n        /* \"#utility.yul\":1865:1931   */\n      tag_113\n        /* \"#utility.yul\":1881:1930   */\n      tag_114\n        /* \"#utility.yul\":1923:1929   */\n      dup5\n        /* \"#utility.yul\":1881:1930   */\n      tag_57\n      jump\t// in\n    tag_114:\n        /* \"#utility.yul\":1865:1931   */\n      tag_56\n      jump\t// in\n    tag_113:\n        /* \"#utility.yul\":1856:1931   */\n      swap1\n      pop\n        /* \"#utility.yul\":1954:1960   */\n      dup3\n        /* \"#utility.yul\":1947:1952   */\n      dup2\n        /* \"#utility.yul\":1940:1961   */\n      mstore\n        /* \"#utility.yul\":1992:1996   */\n      0x20\n        /* \"#utility.yul\":1985:1990   */\n      dup2\n        /* \"#utility.yul\":1981:1997   */\n      add\n        /* \"#utility.yul\":2030:2033   */\n      dup5\n        /* \"#utility.yul\":2021:2027   */\n      dup5\n        /* \"#utility.yul\":2016:2019   */\n      dup5\n        /* \"#utility.yul\":2012:2028   */\n      add\n        /* \"#utility.yul\":2009:2034   */\n      gt\n        /* \"#utility.yul\":2006:2118   */\n      iszero\n      tag_115\n      jumpi\n        /* \"#utility.yul\":2037:2116   */\n      tag_116\n      tag_52\n      jump\t// in\n    tag_116:\n        /* \"#utility.yul\":2006:2118   */\n    tag_115:\n        /* \"#utility.yul\":2127:2181   */\n      tag_117\n        /* \"#utility.yul\":2174:2180   */\n      dup5\n        /* \"#utility.yul\":2169:2172   */\n      dup3\n        /* \"#utility.yul\":2164:2167   */\n      dup6\n        /* \"#utility.yul\":2127:2181   */\n      tag_58\n      jump\t// in\n    tag_117:\n        /* \"#utility.yul\":1846:2187   */\n      pop\n        /* \"#utility.yul\":1762:2187   */\n      swap4\n      swap3\n      pop\n      pop\n      pop\n      jump\t// out\n        /* \"#utility.yul\":2207:2547   */\n    tag_60:\n        /* \"#utility.yul\":2263:2268   */\n      0x00\n        /* \"#utility.yul\":2312:2315   */\n      dup3\n        /* \"#utility.yul\":2305:2309   */\n      0x1f\n        /* \"#utility.yul\":2297:2303   */\n      dup4\n        /* \"#utility.yul\":2293:2310   */\n      add\n        /* \"#utility.yul\":2289:2316   */\n      slt\n        /* \"#utility.yul\":2279:2401   */\n      tag_119\n      jumpi\n        /* \"#utility.yul\":2320:2399   */\n      tag_120\n      tag_51\n      jump\t// in\n    tag_120:\n        /* \"#utility.yul\":2279:2401   */\n    tag_119:\n        /* \"#utility.yul\":2437:2443   */\n      dup2\n        /* \"#utility.yul\":2424:2444   */\n      calldataload\n        /* \"#utility.yul\":2462:2541   */\n      tag_121\n        /* \"#utility.yul\":2537:2540   */\n      dup5\n        /* \"#utility.yul\":2529:2535   */\n      dup3\n        /* \"#utility.yul\":2522:2526   */\n      0x20\n        /* \"#utility.yul\":2514:2520   */\n      dup7\n        /* \"#utility.yul\":2510:2527   */\n      add\n        /* \"#utility.yul\":2462:2541   */\n      tag_59\n      jump\t// in\n    tag_121:\n        /* \"#utility.yul\":2453:2541   */\n      swap2\n      pop\n        /* \"#utility.yul\":2269:2547   */\n      pop\n        /* \"#utility.yul\":2207:2547   */\n      swap3\n      swap2\n      pop\n      pop\n      jump\t// out\n        /* \"#utility.yul\":2553:3062   */\n    tag_10:\n        /* \"#utility.yul\":2622:2628   */\n      0x00\n        /* \"#utility.yul\":2671:2673   */\n      0x20\n        /* \"#utility.yul\":2659:2668   */\n      dup3\n        /* \"#utility.yul\":2650:2657   */\n      dup5\n        /* \"#utility.yul\":2646:2669   */\n      sub\n        /* \"#utility.yul\":2642:2674   */\n      slt\n        /* \"#utility.yul\":2639:2758   */\n      iszero\n      tag_123\n      jumpi\n        /* \"#utility.yul\":2677:2756   */\n      tag_124\n      tag_49\n      jump\t// in\n    tag_124:\n        /* \"#utility.yul\":2639:2758   */\n    tag_123:\n        /* \"#utility.yul\":2825:2826   */\n      0x00\n        /* \"#utility.yul\":2814:2823   */\n      dup3\n        /* \"#utility.yul\":2810:2827   */\n      add\n        /* \"#utility.yul\":2797:2828   */\n      calldataload\n        /* \"#utility.yul\":2855:2873   */\n      0xffffffffffffffff\n        /* \"#utility.yul\":2847:2853   */\n      dup2\n        /* \"#utility.yul\":2844:2874   */\n      gt\n        /* \"#utility.yul\":2841:2958   */\n      iszero\n      tag_125\n      jumpi\n        /* \"#utility.yul\":2877:2956   */\n      tag_126\n      tag_50\n      jump\t// in\n    tag_126:\n        /* \"#utility.yul\":2841:2958   */\n    tag_125:\n        /* \"#utility.yul\":2982:3045   */\n      tag_127\n        /* \"#utility.yul\":3037:3044   */\n      dup5\n        /* \"#utility.yul\":3028:3034   */\n      dup3\n        /* \"#utility.yul\":3017:3026   */\n      dup6\n        /* \"#utility.yul\":3013:3035   */\n      add\n        /* \"#utility.yul\":2982:3045   */\n      tag_60\n      jump\t// in\n    tag_127:\n        /* \"#utility.yul\":2972:3045   */\n      swap2\n      pop\n        /* \"#utility.yul\":2768:3055   */\n      pop\n        /* \"#utility.yul\":2553:3062   */\n      swap3\n      swap2\n      pop\n      pop\n      jump\t// out\n        /* \"#utility.yul\":3068:3145   */\n    tag_61:\n        /* \"#utility.yul\":3105:3112   */\n      0x00\n        /* \"#utility.yul\":3134:3139   */\n      dup2\n        /* \"#utility.yul\":3123:3139   */\n      swap1\n      pop\n        /* \"#utility.yul\":3068:3145   */\n      swap2\n      swap1\n      pop\n      jump\t// out\n        /* \"#utility.yul\":3151:3269   */\n    tag_62:\n        /* \"#utility.yul\":3238:3262   */\n      tag_130\n        /* \"#utility.yul\":3256:3261   */\n      dup2\n        /* \"#utility.yul\":3238:3262   */\n      tag_61\n      jump\t// in\n    tag_130:\n        /* \"#utility.yul\":3233:3236   */\n      dup3\n        /* \"#utility.yul\":3226:3263   */\n      mstore\n        /* \"#utility.yul\":3151:3269   */\n      pop\n      pop\n      jump\t// out\n        /* \"#utility.yul\":3275:3497   */\n    tag_13:\n        /* \"#utility.yul\":3368:3372   */\n      0x00\n        /* \"#utility.yul\":3406:3408   */\n      0x20\n        /* \"#utility.yul\":3395:3404   */\n      dup3\n        /* \"#utility.yul\":3391:3409   */\n      add\n        /* \"#utility.yul\":3383:3409   */\n      swap1\n      pop\n        /* \"#utility.yul\":3419:3490   */\n      tag_132\n        /* \"#utility.yul\":3487:3488   */\n      0x00\n        /* \"#utility.yul\":3476:3485   */\n      dup4\n        /* \"#utility.yul\":3472:3489   */\n      add\n        /* \"#utility.yul\":3463:3469   */\n      dup5\n        /* \"#utility.yul\":3419:3490   */\n      tag_62\n      jump\t// in\n    tag_132:\n        /* \"#utility.yul\":3275:3497   */\n      swap3\n      swap2\n      pop\n      pop\n      jump\t// out\n        /* \"#utility.yul\":3503:3625   */\n    tag_63:\n        /* \"#utility.yul\":3576:3600   */\n      tag_134\n        /* \"#utility.yul\":3594:3599   */\n      dup2\n        /* \"#utility.yul\":3576:3600   */\n      tag_61\n      jump\t// in\n    tag_134:\n        /* \"#utility.yul\":3569:3574   */\n      dup2\n        /* \"#utility.yul\":3566:3601   */\n      eq\n        /* \"#utility.yul\":3556:3619   */\n      tag_135\n      jumpi\n        /* \"#utility.yul\":3615:3616   */\n      0x00\n        /* \"#utility.yul\":3612:3613   */\n      dup1\n        /* \"#utility.yul\":3605:3617   */\n      revert\n        /* \"#utility.yul\":3556:3619   */\n    tag_135:\n        /* \"#utility.yul\":3503:3625   */\n      pop\n      jump\t// out\n        /* \"#utility.yul\":3631:3770   */\n    tag_64:\n        /* \"#utility.yul\":3677:3682   */\n      0x00\n        /* \"#utility.yul\":3715:3721   */\n      dup2\n        /* \"#utility.yul\":3702:3722   */\n      calldataload\n        /* \"#utility.yul\":3693:3722   */\n      swap1\n      pop\n        /* \"#utility.yul\":3731:3764   */\n      tag_137\n        /* \"#utility.yul\":3758:3763   */\n      dup2\n        /* \"#utility.yul\":3731:3764   */\n      tag_63\n      jump\t// in\n    tag_137:\n        /* \"#utility.yul\":3631:3770   */\n      swap3\n      swap2\n      pop\n      pop\n      jump\t// out\n        /* \"#utility.yul\":3776:4105   */\n    tag_16:\n        /* \"#utility.yul\":3835:3841   */\n      0x00\n        /* \"#utility.yul\":3884:3886   */\n      0x20\n        /* \"#utility.yul\":3872:3881   */\n      dup3\n        /* \"#utility.yul\":3863:3870   */\n      dup5\n        /* \"#utility.yul\":3859:3882   */\n      sub\n        /* \"#utility.yul\":3855:3887   */\n      slt\n        /* \"#utility.yul\":3852:3971   */\n      iszero\n      tag_139\n      jumpi\n        /* \"#utility.yul\":3890:3969   */\n      tag_140\n      tag_49\n      jump\t// in\n    tag_140:\n        /* \"#utility.yul\":3852:3971   */\n    tag_139:\n        /* \"#utility.yul\":4010:4011   */\n      0x00\n        /* \"#utility.yul\":4035:4088   */\n      tag_141\n        /* \"#utility.yul\":4080:4087   */\n      dup5\n        /* \"#utility.yul\":4071:4077   */\n      dup3\n        /* \"#utility.yul\":4060:4069   */\n      dup6\n        /* \"#utility.yul\":4056:4078   */\n      add\n        /* \"#utility.yul\":4035:4088   */\n      tag_64\n      jump\t// in\n    tag_141:\n        /* \"#utility.yul\":4025:4088   */\n      swap2\n      pop\n        /* \"#utility.yul\":3981:4098   */\n      pop\n        /* \"#utility.yul\":3776:4105   */\n      swap3\n      swap2\n      pop\n      pop\n      jump\t// out\n        /* \"#utility.yul\":4111:4210   */\n    tag_65:\n        /* \"#utility.yul\":4163:4169   */\n      0x00\n        /* \"#utility.yul\":4197:4202   */\n      dup2\n        /* \"#utility.yul\":4191:4203   */\n      mload\n        /* \"#utility.yul\":4181:4203   */\n      swap1\n      pop\n        /* \"#utility.yul\":4111:4210   */\n      swap2\n      swap1\n      pop\n      jump\t// out\n        /* \"#utility.yul\":4216:4385   */\n    tag_66:\n        /* \"#utility.yul\":4300:4311   */\n      0x00\n        /* \"#utility.yul\":4334:4340   */\n      dup3\n        /* \"#utility.yul\":4329:4332   */\n      dup3\n        /* \"#utility.yul\":4322:4341   */\n      mstore\n        /* \"#utility.yul\":4374:4378   */\n      0x20\n        /* \"#utility.yul\":4369:4372   */\n      dup3\n        /* \"#utility.yul\":4365:4379   */\n      add\n        /* \"#utility.yul\":4350:4379   */\n      swap1\n      pop\n        /* \"#utility.yul\":4216:4385   */\n      swap3\n      swap2\n      pop\n      pop\n      jump\t// out\n        /* \"#utility.yul\":4391:4637   */\n    tag_67:\n        /* \"#utility.yul\":4472:4473   */\n      0x00\n        /* \"#utility.yul\":4482:4595   */\n    tag_145:\n        /* \"#utility.yul\":4496:4502   */\n      dup4\n        /* \"#utility.yul\":4493:4494   */\n      dup2\n        /* \"#utility.yul\":4490:4503   */\n      lt\n        /* \"#utility.yul\":4482:4595   */\n      iszero\n      tag_147\n      jumpi\n        /* \"#utility.yul\":4581:4582   */\n      dup1\n        /* \"#utility.yul\":4576:4579   */\n      dup3\n        /* \"#utility.yul\":4572:4583   */\n      add\n        /* \"#utility.yul\":4566:4584   */\n      mload\n        /* \"#utility.yul\":4562:4563   */\n      dup2\n        /* \"#utility.yul\":4557:4560   */\n      dup5\n        /* \"#utility.yul\":4553:4564   */\n      add\n        /* \"#utility.yul\":4546:4585   */\n      mstore\n        /* \"#utility.yul\":4518:4520   */\n      0x20\n        /* \"#utility.yul\":4515:4516   */\n      dup2\n        /* \"#utility.yul\":4511:4521   */\n      add\n        /* \"#utility.yul\":4506:4521   */\n      swap1\n      pop\n        /* \"#utility.yul\":4482:4595   */\n      jump(tag_145)\n    tag_147:\n        /* \"#utility.yul\":4629:4630   */\n      0x00\n        /* \"#utility.yul\":4620:4626   */\n      dup5\n        /* \"#utility.yul\":4615:4618   */\n      dup5\n        /* \"#utility.yul\":4611:4627   */\n      add\n        /* \"#utility.yul\":4604:4631   */\n      mstore\n        /* \"#utility.yul\":4453:4637   */\n      pop\n        /* \"#utility.yul\":4391:4637   */\n      pop\n      pop\n      pop\n      jump\t// out\n        /* \"#utility.yul\":4643:5020   */\n    tag_68:\n        /* \"#utility.yul\":4731:4734   */\n      0x00\n        /* \"#utility.yul\":4759:4798   */\n      tag_149\n        /* \"#utility.yul\":4792:4797   */\n      dup3\n        /* \"#utility.yul\":4759:4798   */\n      tag_65\n      jump\t// in\n    tag_149:\n        /* \"#utility.yul\":4814:4885   */\n      tag_150\n        /* \"#utility.yul\":4878:4884   */\n      dup2\n        /* \"#utility.yul\":4873:4876   */\n      dup6\n        /* \"#utility.yul\":4814:4885   */\n      tag_66\n      jump\t// in\n    tag_150:\n        /* \"#utility.yul\":4807:4885   */\n      swap4\n      pop\n        /* \"#utility.yul\":4894:4959   */\n      tag_151\n        /* \"#utility.yul\":4952:4958   */\n      dup2\n        /* \"#utility.yul\":4947:4950   */\n      dup6\n        /* \"#utility.yul\":4940:4944   */\n      0x20\n        /* \"#utility.yul\":4933:4938   */\n      dup7\n        /* \"#utility.yul\":4929:4945   */\n      add\n        /* \"#utility.yul\":4894:4959   */\n      tag_67\n      jump\t// in\n    tag_151:\n        /* \"#utility.yul\":4984:5013   */\n      tag_152\n        /* \"#utility.yul\":5006:5012   */\n      dup2\n        /* \"#utility.yul\":4984:5013   */\n      tag_53\n      jump\t// in\n    tag_152:\n        /* \"#utility.yul\":4979:4982   */\n      dup5\n        /* \"#utility.yul\":4975:5014   */\n      add\n        /* \"#utility.yul\":4968:5014   */\n      swap2\n      pop\n        /* \"#utility.yul\":4735:5020   */\n      pop\n        /* \"#utility.yul\":4643:5020   */\n      swap3\n      swap2\n      pop\n      pop\n      jump\t// out\n        /* \"#utility.yul\":5026:5116   */\n    tag_69:\n        /* \"#utility.yul\":5060:5067   */\n      0x00\n        /* \"#utility.yul\":5103:5108   */\n      dup2\n        /* \"#utility.yul\":5096:5109   */\n      iszero\n        /* \"#utility.yul\":5089:5110   */\n      iszero\n        /* \"#utility.yul\":5078:5110   */\n      swap1\n      pop\n        /* \"#utility.yul\":5026:5116   */\n      swap2\n      swap1\n      pop\n      jump\t// out\n        /* \"#utility.yul\":5122:5231   */\n    tag_70:\n        /* \"#utility.yul\":5203:5224   */\n      tag_155\n        /* \"#utility.yul\":5218:5223   */\n      dup2\n        /* \"#utility.yul\":5203:5224   */\n      tag_69\n      jump\t// in\n    tag_155:\n        /* \"#utility.yul\":5198:5201   */\n      dup3\n        /* \"#utility.yul\":5191:5225   */\n      mstore\n        /* \"#utility.yul\":5122:5231   */\n      pop\n      pop\n      jump\t// out\n        /* \"#utility.yul\":5237:5758   */\n    tag_22:\n        /* \"#utility.yul\":5400:5404   */\n      0x00\n        /* \"#utility.yul\":5438:5440   */\n      0x60\n        /* \"#utility.yul\":5427:5436   */\n      dup3\n        /* \"#utility.yul\":5423:5441   */\n      add\n        /* \"#utility.yul\":5415:5441   */\n      swap1\n      pop\n        /* \"#utility.yul\":5451:5522   */\n      tag_157\n        /* \"#utility.yul\":5519:5520   */\n      0x00\n        /* \"#utility.yul\":5508:5517   */\n      dup4\n        /* \"#utility.yul\":5504:5521   */\n      add\n        /* \"#utility.yul\":5495:5501   */\n      dup7\n        /* \"#utility.yul\":5451:5522   */\n      tag_62\n      jump\t// in\n    tag_157:\n        /* \"#utility.yul\":5569:5578   */\n      dup2\n        /* \"#utility.yul\":5563:5567   */\n      dup2\n        /* \"#utility.yul\":5559:5579   */\n      sub\n        /* \"#utility.yul\":5554:5556   */\n      0x20\n        /* \"#utility.yul\":5543:5552   */\n      dup4\n        /* \"#utility.yul\":5539:5557   */\n      add\n        /* \"#utility.yul\":5532:5580   */\n      mstore\n        /* \"#utility.yul\":5597:5675   */\n      tag_158\n        /* \"#utility.yul\":5670:5674   */\n      dup2\n        /* \"#utility.yul\":5661:5667   */\n      dup6\n        /* \"#utility.yul\":5597:5675   */\n      tag_68\n      jump\t// in\n    tag_158:\n        /* \"#utility.yul\":5589:5675   */\n      swap1\n      pop\n        /* \"#utility.yul\":5685:5751   */\n      tag_159\n        /* \"#utility.yul\":5747:5749   */\n      0x40\n        /* \"#utility.yul\":5736:5745   */\n      dup4\n        /* \"#utility.yul\":5732:5750   */\n      add\n        /* \"#utility.yul\":5723:5729   */\n      dup5\n        /* \"#utility.yul\":5685:5751   */\n      tag_70\n      jump\t// in\n    tag_159:\n        /* \"#utility.yul\":5237:5758   */\n      swap5\n      swap4\n      pop\n      pop\n      pop\n      pop\n      jump\t// out\n        /* \"#utility.yul\":5764:5880   */\n    tag_71:\n        /* \"#utility.yul\":5834:5855   */\n      tag_161\n        /* \"#utility.yul\":5849:5854   */\n      dup2\n        /* \"#utility.yul\":5834:5855   */\n      tag_69\n      jump\t// in\n    tag_161:\n        /* \"#utility.yul\":5827:5832   */\n      dup2\n        /* \"#utility.yul\":5824:5856   */\n      eq\n        /* \"#utility.yul\":5814:5874   */\n      tag_162\n      jumpi\n        /* \"#utility.yul\":5870:5871   */\n      0x00\n        /* \"#utility.yul\":5867:5868   */\n      dup1\n        /* \"#utility.yul\":5860:5872   */\n      revert\n        /* \"#utility.yul\":5814:5874   */\n    tag_162:\n        /* \"#utility.yul\":5764:5880   */\n      pop\n      jump\t// out\n        /* \"#utility.yul\":5886:6019   */\n    tag_72:\n        /* \"#utility.yul\":5929:5934   */\n      0x00\n        /* \"#utility.yul\":5967:5973   */\n      dup2\n        /* \"#utility.yul\":5954:5974   */\n      calldataload\n        /* \"#utility.yul\":5945:5974   */\n      swap1\n      pop\n        /* \"#utility.yul\":5983:6013   */\n      tag_164\n        /* \"#utility.yul\":6007:6012   */\n      dup2\n        /* \"#utility.yul\":5983:6013   */\n      tag_71\n      jump\t// in\n    tag_164:\n        /* \"#utility.yul\":5886:6019   */\n      swap3\n      swap2\n      pop\n      pop\n      jump\t// out\n        /* \"#utility.yul\":6025:6818   */\n    tag_28:\n        /* \"#utility.yul\":6109:6115   */\n      0x00\n        /* \"#utility.yul\":6117:6123   */\n      dup1\n        /* \"#utility.yul\":6125:6131   */\n      0x00\n        /* \"#utility.yul\":6174:6176   */\n      0x60\n        /* \"#utility.yul\":6162:6171   */\n      dup5\n        /* \"#utility.yul\":6153:6160   */\n      dup7\n        /* \"#utility.yul\":6149:6172   */\n      sub\n        /* \"#utility.yul\":6145:6177   */\n      slt\n        /* \"#utility.yul\":6142:6261   */\n      iszero\n      tag_166\n      jumpi\n        /* \"#utility.yul\":6180:6259   */\n      tag_167\n      tag_49\n      jump\t// in\n    tag_167:\n        /* \"#utility.yul\":6142:6261   */\n    tag_166:\n        /* \"#utility.yul\":6328:6329   */\n      0x00\n        /* \"#utility.yul\":6317:6326   */\n      dup5\n        /* \"#utility.yul\":6313:6330   */\n      add\n        /* \"#utility.yul\":6300:6331   */\n      calldataload\n        /* \"#utility.yul\":6358:6376   */\n      0xffffffffffffffff\n        /* \"#utility.yul\":6350:6356   */\n      dup2\n        /* \"#utility.yul\":6347:6377   */\n      gt\n        /* \"#utility.yul\":6344:6461   */\n      iszero\n      tag_168\n      jumpi\n        /* \"#utility.yul\":6380:6459   */\n      tag_169\n      tag_50\n      jump\t// in\n    tag_169:\n        /* \"#utility.yul\":6344:6461   */\n    tag_168:\n        /* \"#utility.yul\":6485:6548   */\n      tag_170\n        /* \"#utility.yul\":6540:6547   */\n      dup7\n        /* \"#utility.yul\":6531:6537   */\n      dup3\n        /* \"#utility.yul\":6520:6529   */\n      dup8\n        /* \"#utility.yul\":6516:6538   */\n      add\n        /* \"#utility.yul\":6485:6548   */\n      tag_60\n      jump\t// in\n    tag_170:\n        /* \"#utility.yul\":6475:6548   */\n      swap4\n      pop\n        /* \"#utility.yul\":6271:6558   */\n      pop\n        /* \"#utility.yul\":6597:6599   */\n      0x20\n        /* \"#utility.yul\":6623:6676   */\n      tag_171\n        /* \"#utility.yul\":6668:6675   */\n      dup7\n        /* \"#utility.yul\":6659:6665   */\n      dup3\n        /* \"#utility.yul\":6648:6657   */\n      dup8\n        /* \"#utility.yul\":6644:6666   */\n      add\n        /* \"#utility.yul\":6623:6676   */\n      tag_64\n      jump\t// in\n    tag_171:\n        /* \"#utility.yul\":6613:6676   */\n      swap3\n      pop\n        /* \"#utility.yul\":6568:6686   */\n      pop\n        /* \"#utility.yul\":6725:6727   */\n      0x40\n        /* \"#utility.yul\":6751:6801   */\n      tag_172\n        /* \"#utility.yul\":6793:6800   */\n      dup7\n        /* \"#utility.yul\":6784:6790   */\n      dup3\n        /* \"#utility.yul\":6773:6782   */\n      dup8\n        /* \"#utility.yul\":6769:6791   */\n      add\n        /* \"#utility.yul\":6751:6801   */\n      tag_72\n      jump\t// in\n    tag_172:\n        /* \"#utility.yul\":6741:6801   */\n      swap2\n      pop\n        /* \"#utility.yul\":6696:6811   */\n      pop\n        /* \"#utility.yul\":6025:6818   */\n      swap3\n      pop\n      swap3\n      pop\n      swap3\n      jump\t// out\n        /* \"#utility.yul\":6824:7004   */\n    tag_73:\n        /* \"#utility.yul\":6872:6949   */\n      0x4e487b7100000000000000000000000000000000000000000000000000000000\n        /* \"#utility.yul\":6869:6870   */\n      0x00\n        /* \"#utility.yul\":6862:6950   */\n      mstore\n        /* \"#utility.yul\":6969:6973   */\n      0x22\n        /* \"#utility.yul\":6966:6967   */\n      0x04\n        /* \"#utility.yul\":6959:6974   */\n      mstore\n        /* \"#utility.yul\":6993:6997   */\n      0x24\n        /* \"#utility.yul\":6990:6991   */\n      0x00\n        /* \"#utility.yul\":6983:6998   */\n      revert\n        /* \"#utility.yul\":7010:7330   */\n    tag_34:\n        /* \"#utility.yul\":7054:7060   */\n      0x00\n        /* \"#utility.yul\":7091:7092   */\n      0x02\n        /* \"#utility.yul\":7085:7089   */\n      dup3\n        /* \"#utility.yul\":7081:7093   */\n      div\n        /* \"#utility.yul\":7071:7093   */\n      swap1\n      pop\n        /* \"#utility.yul\":7138:7139   */\n      0x01\n        /* \"#utility.yul\":7132:7136   */\n      dup3\n        /* \"#utility.yul\":7128:7140   */\n      and\n        /* \"#utility.yul\":7159:7177   */\n      dup1\n        /* \"#utility.yul\":7149:7230   */\n      tag_175\n      jumpi\n        /* \"#utility.yul\":7215:7219   */\n      0x7f\n        /* \"#utility.yul\":7207:7213   */\n      dup3\n        /* \"#utility.yul\":7203:7220   */\n      and\n        /* \"#utility.yul\":7193:7220   */\n      swap2\n      pop\n        /* \"#utility.yul\":7149:7230   */\n    tag_175:\n        /* \"#utility.yul\":7277:7279   */\n      0x20\n        /* \"#utility.yul\":7269:7275   */\n      dup3\n        /* \"#utility.yul\":7266:7280   */\n      lt\n        /* \"#utility.yul\":7246:7264   */\n      dup2\n        /* \"#utility.yul\":7243:7281   */\n      sub\n        /* \"#utility.yul\":7240:7324   */\n      tag_176\n      jumpi\n        /* \"#utility.yul\":7296:7314   */\n      tag_177\n      tag_73\n      jump\t// in\n    tag_177:\n        /* \"#utility.yul\":7240:7324   */\n    tag_176:\n        /* \"#utility.yul\":7061:7330   */\n      pop\n        /* \"#utility.yul\":7010:7330   */\n      swap2\n      swap1\n      pop\n      jump\t// out\n        /* \"#utility.yul\":7336:7516   */\n    tag_74:\n        /* \"#utility.yul\":7384:7461   */\n      0x4e487b7100000000000000000000000000000000000000000000000000000000\n        /* \"#utility.yul\":7381:7382   */\n      0x00\n        /* \"#utility.yul\":7374:7462   */\n      mstore\n        /* \"#utility.yul\":7481:7485   */\n      0x11\n        /* \"#utility.yul\":7478:7479   */\n      0x04\n        /* \"#utility.yul\":7471:7486   */\n      mstore\n        /* \"#utility.yul\":7505:7509   */\n      0x24\n        /* \"#utility.yul\":7502:7503   */\n      0x00\n        /* \"#utility.yul\":7495:7510   */\n      revert\n        /* \"#utility.yul\":7522:7932   */\n    tag_41:\n        /* \"#utility.yul\":7562:7569   */\n      0x00\n        /* \"#utility.yul\":7585:7605   */\n      tag_180\n        /* \"#utility.yul\":7603:7604   */\n      dup3\n        /* \"#utility.yul\":7585:7605   */\n      tag_61\n      jump\t// in\n    tag_180:\n        /* \"#utility.yul\":7580:7605   */\n      swap2\n      pop\n        /* \"#utility.yul\":7619:7639   */\n      tag_181\n        /* \"#utility.yul\":7637:7638   */\n      dup4\n        /* \"#utility.yul\":7619:7639   */\n      tag_61\n      jump\t// in\n    tag_181:\n        /* \"#utility.yul\":7614:7639   */\n      swap3\n      pop\n        /* \"#utility.yul\":7674:7675   */\n      dup3\n        /* \"#utility.yul\":7671:7672   */\n      dup3\n        /* \"#utility.yul\":7667:7676   */\n      mul\n        /* \"#utility.yul\":7696:7726   */\n      tag_182\n        /* \"#utility.yul\":7714:7725   */\n      dup2\n        /* \"#utility.yul\":7696:7726   */\n      tag_61\n      jump\t// in\n    tag_182:\n        /* \"#utility.yul\":7685:7726   */\n      swap2\n      pop\n        /* \"#utility.yul\":7875:7876   */\n      dup3\n        /* \"#utility.yul\":7866:7873   */\n      dup3\n        /* \"#utility.yul\":7862:7877   */\n      div\n        /* \"#utility.yul\":7859:7860   */\n      dup5\n        /* \"#utility.yul\":7856:7878   */\n      eq\n        /* \"#utility.yul\":7836:7837   */\n      dup4\n        /* \"#utility.yul\":7829:7838   */\n      iszero\n        /* \"#utility.yul\":7809:7892   */\n      or\n        /* \"#utility.yul\":7786:7925   */\n      tag_183\n      jumpi\n        /* \"#utility.yul\":7905:7923   */\n      tag_184\n      tag_74\n      jump\t// in\n    tag_184:\n        /* \"#utility.yul\":7786:7925   */\n    tag_183:\n        /* \"#utility.yul\":7570:7932   */\n      pop\n        /* \"#utility.yul\":7522:7932   */\n      swap3\n      swap2\n      pop\n      pop\n      jump\t// out\n        /* \"#utility.yul\":7938:8079   */\n    tag_75:\n        /* \"#utility.yul\":7987:7991   */\n      0x00\n        /* \"#utility.yul\":8010:8013   */\n      dup2\n        /* \"#utility.yul\":8002:8013   */\n      swap1\n      pop\n        /* \"#utility.yul\":8033:8036   */\n      dup2\n        /* \"#utility.yul\":8030:8031   */\n      0x00\n        /* \"#utility.yul\":8023:8037   */\n      mstore\n        /* \"#utility.yul\":8067:8071   */\n      0x20\n        /* \"#utility.yul\":8064:8065   */\n      0x00\n        /* \"#utility.yul\":8054:8072   */\n      keccak256\n        /* \"#utility.yul\":8046:8072   */\n      swap1\n      pop\n        /* \"#utility.yul\":7938:8079   */\n      swap2\n      swap1\n      pop\n      jump\t// out\n        /* \"#utility.yul\":8085:8178   */\n    tag_76:\n        /* \"#utility.yul\":8122:8128   */\n      0x00\n        /* \"#utility.yul\":8169:8171   */\n      0x20\n        /* \"#utility.yul\":8164:8166   */\n      0x1f\n        /* \"#utility.yul\":8157:8162   */\n      dup4\n        /* \"#utility.yul\":8153:8167   */\n      add\n        /* \"#utility.yul\":8149:8172   */\n      div\n        /* \"#utility.yul\":8139:8172   */\n      swap1\n      pop\n        /* \"#utility.yul\":8085:8178   */\n      swap2\n      swap1\n      pop\n      jump\t// out\n        /* \"#utility.yul\":8184:8291   */\n    tag_77:\n        /* \"#utility.yul\":8228:8236   */\n      0x00\n        /* \"#utility.yul\":8278:8283   */\n      dup3\n        /* \"#utility.yul\":8272:8276   */\n      dup3\n        /* \"#utility.yul\":8268:8284   */\n      shl\n        /* \"#utility.yul\":8247:8284   */\n      swap1\n      pop\n        /* \"#utility.yul\":8184:8291   */\n      swap3\n      swap2\n      pop\n      pop\n      jump\t// out\n        /* \"#utility.yul\":8297:8690   */\n    tag_78:\n        /* \"#utility.yul\":8366:8372   */\n      0x00\n        /* \"#utility.yul\":8416:8417   */\n      0x08\n        /* \"#utility.yul\":8404:8414   */\n      dup4\n        /* \"#utility.yul\":8400:8418   */\n      mul\n        /* \"#utility.yul\":8439:8536   */\n      tag_189\n        /* \"#utility.yul\":8469:8535   */\n      0xffffffffffffffffffffffffffffffffffffffffffffffffffffffffffffffff\n        /* \"#utility.yul\":8458:8467   */\n      dup3\n        /* \"#utility.yul\":8439:8536   */\n      tag_77\n      jump\t// in\n    tag_189:\n        /* \"#utility.yul\":8557:8596   */\n      tag_190\n        /* \"#utility.yul\":8587:8595   */\n      dup7\n        /* \"#utility.yul\":8576:8585   */\n      dup4\n        /* \"#utility.yul\":8557:8596   */\n      tag_77\n      jump\t// in\n    tag_190:\n        /* \"#utility.yul\":8545:8596   */\n      swap6\n      pop\n        /* \"#utility.yul\":8629:8633   */\n      dup1\n        /* \"#utility.yul\":8625:8634   */\n      not\n        /* \"#utility.yul\":8618:8623   */\n      dup5\n        /* \"#utility.yul\":8614:8635   */\n      and\n        /* \"#utility.yul\":8605:8635   */\n      swap4\n      pop\n        /* \"#utility.yul\":8678:8682   */\n      dup1\n        /* \"#utility.yul\":8668:8676   */\n      dup7\n        /* \"#utility.yul\":8664:8683   */\n      and\n        /* \"#utility.yul\":8657:8662   */\n      dup5\n        /* \"#utility.yul\":8654:8684   */\n      or\n        /* \"#utility.yul\":8644:8684   */\n      swap3\n      pop\n        /* \"#utility.yul\":8373:8690   */\n      pop\n      pop\n        /* \"#utility.yul\":8297:8690   */\n      swap4\n      swap3\n      pop\n      pop\n      pop\n      jump\t// out\n        /* \"#utility.yul\":8696:8756   */\n    tag_79:\n        /* \"#utility.yul\":8724:8727   */\n      0x00\n        /* \"#utility.yul\":8745:8750   */\n      dup2\n        /* \"#utility.yul\":8738:8750   */\n      swap1\n      pop\n        /* \"#utility.yul\":8696:8756   */\n      swap2\n      swap1\n      pop\n      jump\t// out\n        /* \"#utility.yul\":8762:8904   */\n    tag_80:\n        /* \"#utility.yul\":8812:8821   */\n      0x00\n        /* \"#utility.yul\":8845:8898   */\n      tag_193\n        /* \"#utility.yul\":8863:8897   */\n      tag_194\n        /* \"#utility.yul\":8872:8896   */\n      tag_195\n        /* \"#utility.yul\":8890:8895   */\n      dup5\n        /* \"#utility.yul\":8872:8896   */\n      tag_61\n      jump\t// in\n    tag_195:\n        /* \"#utility.yul\":8863:8897   */\n      tag_79\n      jump\t// in\n    tag_194:\n        /* \"#utility.yul\":8845:8898   */\n      tag_61\n      jump\t// in\n    tag_193:\n        /* \"#utility.yul\":8832:8898   */\n      swap1\n      pop\n        /* \"#utility.yul\":8762:8904   */\n      swap2\n      swap1\n      pop\n      jump\t// out\n        /* \"#utility.yul\":8910:8985   */\n    tag_81:\n        /* \"#utility.yul\":8953:8956   */\n      0x00\n        /* \"#utility.yul\":8974:8979   */\n      dup2\n        /* \"#utility.yul\":8967:8979   */\n      swap1\n      pop\n        /* \"#utility.yul\":8910:8985   */\n      swap2\n      swap1\n      pop\n      jump\t// out\n        /* \"#utility.yul\":8991:9260   */\n    tag_82:\n        /* \"#utility.yul\":9101:9140   */\n      tag_198\n        /* \"#utility.yul\":9132:9139   */\n      dup4\n        /* \"#utility.yul\":9101:9140   */\n      tag_80\n      jump\t// in\n    tag_198:\n        /* \"#utility.yul\":9162:9253   */\n      tag_199\n        /* \"#utility.yul\":9211:9252   */\n      tag_200\n        /* \"#utility.yul\":9235:9251   */\n      dup3\n        /* \"#utility.yul\":9211:9252   */\n      tag_81\n      jump\t// in\n    tag_200:\n        /* \"#utility.yul\":9203:9209   */\n      dup5\n        /* \"#utility.yul\":9196:9200   */\n      dup5\n        /* \"#utility.yul\":9190:9201   */\n      sload\n        /* \"#utility.yul\":9162:9253   */\n      tag_78\n      jump\t// in\n    tag_199:\n        /* \"#utility.yul\":9156:9160   */\n      dup3\n        /* \"#utility.yul\":9149:9254   */\n      sstore\n        /* \"#utility.yul\":9067:9260   */\n      pop\n        /* \"#utility.yul\":8991:9260   */\n      pop\n      pop\n      pop\n      jump\t// out\n        /* \"#utility.yul\":9266:9339   */\n    tag_83:\n        /* \"#utility.yul\":9311:9314   */\n      0x00\n        /* \"#utility.yul\":9266:9339   */\n      swap1\n      jump\t// out\n        /* \"#utility.yul\":9345:9534   */\n    tag_84:\n        /* \"#utility.yul\":9422:9454   */\n      tag_203\n      tag_83\n      jump\t// in\n    tag_203:\n        /* \"#utility.yul\":9463:9528   */\n      tag_204\n        /* \"#utility.yul\":9521:9527   */\n      dup2\n        /* \"#utility.yul\":9513:9519   */\n      dup5\n        /* \"#utility.yul\":9507:9511   */\n      dup5\n        /* \"#utility.yul\":9463:9528   */\n      tag_82\n      jump\t// in\n    tag_204:\n        /* \"#utility.yul\":9398:9534   */\n      pop\n        /* \"#utility.yul\":9345:9534   */\n      pop\n      pop\n      jump\t// out\n        /* \"#utility.yul\":9540:9726   */\n    tag_85:\n        /* \"#utility.yul\":9600:9720   */\n    tag_206:\n        /* \"#utility.yul\":9617:9620   */\n      dup2\n        /* \"#utility.yul\":9610:9615   */\n      dup2\n        /* \"#utility.yul\":9607:9621   */\n      lt\n        /* \"#utility.yul\":9600:9720   */\n      iszero\n      tag_208\n      jumpi\n        /* \"#utility.yul\":9671:9710   */\n      tag_209\n        /* \"#utility.yul\":9708:9709   */\n      0x00\n        /* \"#utility.yul\":9701:9706   */\n      dup3\n        /* \"#utility.yul\":9671:9710   */\n      tag_84\n      jump\t// in\n    tag_209:\n        /* \"#utility.yul\":9644:9645   */\n      0x01\n        /* \"#utility.yul\":9637:9642   */\n      dup2\n        /* \"#utility.yul\":9633:9646   */\n      add\n        /* \"#utility.yul\":9624:9646   */\n      swap1\n      pop\n        /* \"#utility.yul\":9600:9720   */\n      jump(tag_206)\n    tag_208:\n        /* \"#utility.yul\":9540:9726   */\n      pop\n      pop\n      jump\t// out\n        /* \"#utility.yul\":9732:10275   */\n    tag_86:\n        /* \"#utility.yul\":9833:9835   */\n      0x1f\n        /* \"#utility.yul\":9828:9831   */\n      dup3\n        /* \"#utility.yul\":9825:9836   */\n      gt\n        /* \"#utility.yul\":9822:10268   */\n      iszero\n      tag_211\n      jumpi\n        /* \"#utility.yul\":9867:9905   */\n      tag_212\n        /* \"#utility.yul\":9899:9904   */\n      dup2\n        /* \"#utility.yul\":9867:9905   */\n      tag_75\n      jump\t// in\n    tag_212:\n        /* \"#utility.yul\":9951:9980   */\n      tag_213\n        /* \"#utility.yul\":9969:9979   */\n      dup5\n        /* \"#utility.yul\":9951:9980   */\n      tag_76\n      jump\t// in\n    tag_213:\n        /* \"#utility.yul\":9941:9949   */\n      dup2\n        /* \"#utility.yul\":9937:9981   */\n      add\n        /* \"#utility.yul\":10134:10136   */\n      0x20\n        /* \"#utility.yul\":10122:10132   */\n      dup6\n        /* \"#utility.yul\":10119:10137   */\n      lt\n        /* \"#utility.yul\":10116:10165   */\n      iszero\n      tag_214\n      jumpi\n        /* \"#utility.yul\":10155:10163   */\n      dup2\n        /* \"#utility.yul\":10140:10163   */\n      swap1\n      pop\n        /* \"#utility.yul\":10116:10165   */\n    tag_214:\n        /* \"#utility.yul\":10178:10258   */\n      tag_215\n        /* \"#utility.yul\":10234:10256   */\n      tag_216\n        /* \"#utility.yul\":10252:10255   */\n      dup6\n        /* \"#utility.yul\":10234:10256   */\n      tag_76\n      jump\t// in\n    tag_216:\n        /* \"#utility.yul\":10224:10232   */\n      dup4\n        /* \"#utility.yul\":10220:10257   */\n      add\n        /* \"#utility.yul\":10207:10218   */\n      dup3\n        /* \"#utility.yul\":10178:10258   */\n      tag_85\n      jump\t// in\n    tag_215:\n        /* \"#utility.yul\":9837:10268   */\n      pop\n      pop\n        /* \"#utility.yul\":9822:10268   */\n    tag_211:\n        /* \"#utility.yul\":9732:10275   */\n      pop\n      pop\n      pop\n      jump\t// out\n        /* \"#utility.yul\":10281:10398   */\n    tag_87:\n        /* \"#utility.yul\":10335:10343   */\n      0x00\n        /* \"#utility.yul\":10385:10390   */\n      dup3\n        /* \"#utility.yul\":10379:10383   */\n      dup3\n        /* \"#utility.yul\":10375:10391   */\n      shr\n        /* \"#utility.yul\":10354:10391   */\n      swap1\n      pop\n        /* \"#utility.yul\":10281:10398   */\n      swap3\n      swap2\n      pop\n      pop\n      jump\t// out\n        /* \"#utility.yul\":10404:10573   */\n    tag_88:\n        /* \"#utility.yul\":10448:10454   */\n      0x00\n        /* \"#utility.yul\":10481:10532   */\n      tag_219\n        /* \"#utility.yul\":10529:10530   */\n      0x00\n        /* \"#utility.yul\":10525:10531   */\n      not\n        /* \"#utility.yul\":10517:10522   */\n      dup5\n        /* \"#utility.yul\":10514:10515   */\n      0x08\n        /* \"#utility.yul\":10510:10523   */\n      mul\n        /* \"#utility.yul\":10481:10532   */\n      tag_87\n      jump\t// in\n    tag_219:\n        /* \"#utility.yul\":10477:10533   */\n      not\n        /* \"#utility.yul\":10562:10566   */\n      dup1\n        /* \"#utility.yul\":10556:10560   */\n      dup4\n        /* \"#utility.yul\":10552:10567   */\n      and\n        /* \"#utility.yul\":10542:10567   */\n      swap2\n      pop\n        /* \"#utility.yul\":10455:10573   */\n      pop\n        /* \"#utility.yul\":10404:10573   */\n      swap3\n      swap2\n      pop\n      pop\n      jump\t// out\n        /* \"#utility.yul\":10578:10873   */\n    tag_89:\n        /* \"#utility.yul\":10654:10658   */\n      0x00\n        /* \"#utility.yul\":10800:10829   */\n      tag_221\n        /* \"#utility.yul\":10825:10828   */\n      dup4\n        /* \"#utility.yul\":10819:10823   */\n      dup4\n        /* \"#utility.yul\":10800:10829   */\n      tag_88\n      jump\t// in\n    tag_221:\n        /* \"#utility.yul\":10792:10829   */\n      swap2\n      pop\n        /* \"#utility.yul\":10862:10865   */\n      dup3\n        /* \"#utility.yul\":10859:10860   */\n      0x02\n        /* \"#utility.yul\":10855:10866   */\n      mul\n        /* \"#utility.yul\":10849:10853   */\n      dup3\n        /* \"#utility.yul\":10846:10867   */\n      or\n        /* \"#utility.yul\":10838:10867   */\n      swap1\n      pop\n        /* \"#utility.yul\":10578:10873   */\n      swap3\n      swap2\n      pop\n      pop\n      jump\t// out\n        /* \"#utility.yul\":10878:12273   */\n    tag_45:\n        /* \"#utility.yul\":10995:11032   */\n      tag_223\n        /* \"#utility.yul\":11028:11031   */\n      dup3\n        /* \"#utility.yul\":10995:11032   */\n      tag_65\n      jump\t// in\n    tag_223:\n        /* \"#utility.yul\":11097:11115   */\n      0xffffffffffffffff\n        /* \"#utility.yul\":11089:11095   */\n      dup2\n        /* \"#utility.yul\":11086:11116   */\n      gt\n        /* \"#utility.yul\":11083:11139   */\n      iszero\n      tag_224\n      jumpi\n        /* \"#utility.yul\":11119:11137   */\n      tag_225\n      tag_54\n      jump\t// in\n    tag_225:\n        /* \"#utility.yul\":11083:11139   */\n    tag_224:\n        /* \"#utility.yul\":11163:11201   */\n      tag_226\n        /* \"#utility.yul\":11195:11199   */\n      dup3\n        /* \"#utility.yul\":11189:11200   */\n      sload\n        /* \"#utility.yul\":11163:11201   */\n      tag_34\n      jump\t// in\n    tag_226:\n        /* \"#utility.yul\":11248:11315   */\n      tag_227\n        /* \"#utility.yul\":11308:11314   */\n      dup3\n        /* \"#utility.yul\":11300:11306   */\n      dup3\n        /* \"#utility.yul\":11294:11298   */\n      dup6\n        /* \"#utility.yul\":11248:11315   */\n      tag_86\n      jump\t// in\n    tag_227:\n        /* \"#utility.yul\":11342:11343   */\n      0x00\n        /* \"#utility.yul\":11366:11370   */\n      0x20\n        /* \"#utility.yul\":11353:11370   */\n      swap1\n      pop\n        /* \"#utility.yul\":11398:11400   */\n      0x1f\n        /* \"#utility.yul\":11390:11396   */\n      dup4\n        /* \"#utility.yul\":11387:11401   */\n      gt\n        /* \"#utility.yul\":11415:11416   */\n      0x01\n        /* \"#utility.yul\":11410:12028   */\n      dup2\n      eq\n      tag_229\n      jumpi\n        /* \"#utility.yul\":12072:12073   */\n      0x00\n        /* \"#utility.yul\":12089:12095   */\n      dup5\n        /* \"#utility.yul\":12086:12163   */\n      iszero\n      tag_230\n      jumpi\n        /* \"#utility.yul\":12138:12147   */\n      dup3\n        /* \"#utility.yul\":12133:12136   */\n      dup8\n        /* \"#utility.yul\":12129:12148   */\n      add\n        /* \"#utility.yul\":12123:12149   */\n      mload\n        /* \"#utility.yul\":12114:12149   */\n      swap1\n      pop\n        /* \"#utility.yul\":12086:12163   */\n    tag_230:\n        /* \"#utility.yul\":12189:12256   */\n      tag_231\n        /* \"#utility.yul\":12249:12255   */\n      dup6\n        /* \"#utility.yul\":12242:12247   */\n      dup3\n        /* \"#utility.yul\":12189:12256   */\n      tag_89\n      jump\t// in\n    tag_231:\n        /* \"#utility.yul\":12183:12187   */\n      dup7\n        /* \"#utility.yul\":12176:12257   */\n      sstore\n        /* \"#utility.yul\":12045:12267   */\n      pop\n        /* \"#utility.yul\":11380:12267   */\n      jump(tag_228)\n        /* \"#utility.yul\":11410:12028   */\n    tag_229:\n        /* \"#utility.yul\":11462:11466   */\n      0x1f\n        /* \"#utility.yul\":11458:11467   */\n      not\n        /* \"#utility.yul\":11450:11456   */\n      dup5\n        /* \"#utility.yul\":11446:11468   */\n      and\n        /* \"#utility.yul\":11496:11533   */\n      tag_232\n        /* \"#utility.yul\":11528:11532   */\n      dup7\n        /* \"#utility.yul\":11496:11533   */\n      tag_75\n      jump\t// in\n    tag_232:\n        /* \"#utility.yul\":11555:11556   */\n      0x00\n        /* \"#utility.yul\":11569:11777   */\n    tag_233:\n        /* \"#utility.yul\":11583:11590   */\n      dup3\n        /* \"#utility.yul\":11580:11581   */\n      dup2\n        /* \"#utility.yul\":11577:11591   */\n      lt\n        /* \"#utility.yul\":11569:11777   */\n      iszero\n      tag_235\n      jumpi\n        /* \"#utility.yul\":11662:11671   */\n      dup5\n        /* \"#utility.yul\":11657:11660   */\n      dup10\n        /* \"#utility.yul\":11653:11672   */\n      add\n        /* \"#utility.yul\":11647:11673   */\n      mload\n        /* \"#utility.yul\":11639:11645   */\n      dup3\n        /* \"#utility.yul\":11632:11674   */\n      sstore\n        /* \"#utility.yul\":11713:11714   */\n      0x01\n        /* \"#utility.yul\":11705:11711   */\n      dup3\n        /* \"#utility.yul\":11701:11715   */\n      add\n        /* \"#utility.yul\":11691:11715   */\n      swap2\n      pop\n        /* \"#utility.yul\":11760:11762   */\n      0x20\n        /* \"#utility.yul\":11749:11758   */\n      dup6\n        /* \"#utility.yul\":11745:11763   */\n      add\n        /* \"#utility.yul\":11732:11763   */\n      swap5\n      pop\n        /* \"#utility.yul\":11606:11610   */\n      0x20\n        /* \"#utility.yul\":11603:11604   */\n      dup2\n        /* \"#utility.yul\":11599:11611   */\n      add\n        /* \"#utility.yul\":11594:11611   */\n      swap1\n      pop\n        /* \"#utility.yul\":11569:11777   */\n      jump(tag_233)\n    tag_235:\n        /* \"#utility.yul\":11805:11811   */\n      dup7\n        /* \"#utility.yul\":11796:11803   */\n      dup4\n        /* \"#utility.yul\":11793:11812   */\n      lt\n        /* \"#utility.yul\":11790:11969   */\n      iszero\n      tag_236\n      jumpi\n        /* \"#utility.yul\":11863:11872   */\n      dup5\n        /* \"#utility.yul\":11858:11861   */\n      dup10\n        /* \"#utility.yul\":11854:11873   */\n      add\n        /* \"#utility.yul\":11848:11874   */\n      mload\n        /* \"#utility.yul\":11906:11954   */\n      tag_237\n        /* \"#utility.yul\":11948:11952   */\n      0x1f\n        /* \"#utility.yul\":11940:11946   */\n      dup10\n        /* \"#utility.yul\":11936:11953   */\n      and\n        /* \"#utility.yul\":11925:11934   */\n      dup3\n        /* \"#utility.yul\":11906:11954   */\n      tag_88\n      jump\t// in\n    tag_237:\n        /* \"#utility.yul\":11898:11904   */\n      dup4\n        /* \"#utility.yul\":11891:11955   */\n      sstore\n        /* \"#utility.yul\":11813:11969   */\n      pop\n        /* \"#utility.yul\":11790:11969   */\n    tag_236:\n        /* \"#utility.yul\":12015:12016   */\n      0x01\n        /* \"#utility.yul\":12011:12012   */\n      0x02\n        /* \"#utility.yul\":12003:12009   */\n      dup9\n        /* \"#utility.yul\":11999:12013   */\n      mul\n        /* \"#utility.yul\":11995:12017   */\n      add\n        /* \"#utility.yul\":11989:11993   */\n      dup9\n        /* \"#utility.yul\":11982:12018   */\n      sstore\n        /* \"#utility.yul\":11417:12028   */\n      pop\n      pop\n      pop\n        /* \"#utility.yul\":11380:12267   */\n    tag_228:\n      pop\n        /* \"#utility.yul\":10970:12273   */\n      pop\n      pop\n      pop\n        /* \"#utility.yul\":10878:12273   */\n      pop\n      pop\n      jump\t// out\n        /* \"#utility.yul\":12279:12427   */\n    tag_90:\n        /* \"#utility.yul\":12381:12392   */\n      0x00\n        /* \"#utility.yul\":12418:12421   */\n      dup2\n        /* \"#utility.yul\":12403:12421   */\n      swap1\n      pop\n        /* \"#utility.yul\":12279:12427   */\n      swap3\n      swap2\n      pop\n      pop\n      jump\t// out\n        /* \"#utility.yul\":12433:12823   */\n    tag_91:\n        /* \"#utility.yul\":12539:12542   */\n      0x00\n        /* \"#utility.yul\":12567:12606   */\n      tag_240\n        /* \"#utility.yul\":12600:12605   */\n      dup3\n        /* \"#utility.yul\":12567:12606   */\n      tag_65\n      jump\t// in\n    tag_240:\n        /* \"#utility.yul\":12622:12711   */\n      tag_241\n        /* \"#utility.yul\":12704:12710   */\n      dup2\n        /* \"#utility.yul\":12699:12702   */\n      dup6\n        /* \"#utility.yul\":12622:12711   */\n      tag_90\n      jump\t// in\n    tag_241:\n        /* \"#utility.yul\":12615:12711   */\n      swap4\n      pop\n        /* \"#utility.yul\":12720:12785   */\n      tag_242\n        /* \"#utility.yul\":12778:12784   */\n      dup2\n        /* \"#utility.yul\":12773:12776   */\n      dup6\n        /* \"#utility.yul\":12766:12770   */\n      0x20\n        /* \"#utility.yul\":12759:12764   */\n      dup7\n        /* \"#utility.yul\":12755:12771   */\n      add\n        /* \"#utility.yul\":12720:12785   */\n      tag_67\n      jump\t// in\n    tag_242:\n        /* \"#utility.yul\":12810:12816   */\n      dup1\n        /* \"#utility.yul\":12805:12808   */\n      dup5\n        /* \"#utility.yul\":12801:12817   */\n      add\n        /* \"#utility.yul\":12794:12817   */\n      swap2\n      pop\n        /* \"#utility.yul\":12543:12823   */\n      pop\n        /* \"#utility.yul\":12433:12823   */\n      swap3\n      swap2\n      pop\n      pop\n      jump\t// out\n        /* \"#utility.yul\":12829:13104   */\n    tag_47:\n        /* \"#utility.yul\":12961:12964   */\n      0x00\n        /* \"#utility.yul\":12983:13078   */\n      tag_244\n        /* \"#utility.yul\":13074:13077   */\n      dup3\n        /* \"#utility.yul\":13065:13071   */\n      dup5\n        /* \"#utility.yul\":12983:13078   */\n      tag_91\n      jump\t// in\n    tag_244:\n        /* \"#utility.yul\":12976:13078   */\n      swap2\n      pop\n        /* \"#utility.yul\":13095:13098   */\n      dup2\n        /* \"#utility.yul\":13088:13098   */\n      swap1\n      pop\n        /* \"#utility.yul\":12829:13104   */\n      swap3\n      swap2\n      pop\n      pop\n      jump\t// out\n\n    auxdata: 0xa2646970667358221220e3cb214e109276fcf86c971077a22897711d1e14eefe56bffd9491942e1710e964736f6c63430008130033\n}\n",
				"bytecode": {
					"linkReferences": {},
					"object": "608060405234801561001057600080fd5b50610a63806100206000396000f3fe608060405234801561001057600080fd5b50600436106100575760003560e01c806323814fc51461005c5780636057361d1461008c57806371e5ee5f146100a8578063b05784b8146100da578063b8a8f54f146100f8575b600080fd5b61007660048036038101906100719190610442565b610114565b60405161008391906104a4565b60405180910390f35b6100a660048036038101906100a191906104eb565b610142565b005b6100c260048036038101906100bd91906104eb565b61014c565b6040516100d1939291906105b2565b60405180910390f35b6100e261021b565b6040516100ef91906104a4565b60405180910390f35b610112600480360381019061010d919061061c565b610236565b005b6001818051602081018201805184825260208301602085012081835280955050505050506000915090505481565b8060008190555050565b6002818154811061015c57600080fd5b9060005260206000209060030201600091509050806000015490806001018054610185906106ba565b80601f01602080910402602001604051908101604052809291908181526020018280546101b1906106ba565b80156101fe5780601f106101d3576101008083540402835291602001916101fe565b820191906000526020600020905b8154815290600101906020018083116101e157829003601f168201915b5050505050908060020160009054906101000a900460ff16905083565b600080606460005461022d919061071a565b90508091505090565b60026040518060600160405280848152602001858152602001831515815250908060018154018082558091505060019003906000526020600020906003020160009091909190915060008201518160000155602082015181600101908161029d9190610908565b5060408201518160020160006101000a81548160ff0219169083151502179055505050816001846040516102d19190610a16565b908152602001604051809103902081905550505050565b6000604051905090565b600080fd5b600080fd5b600080fd5b600080fd5b6000601f19601f8301169050919050565b7f4e487b7100000000000000000000000000000000000000000000000000000000600052604160045260246000fd5b61034f82610306565b810181811067ffffffffffffffff8211171561036e5761036d610317565b5b80604052505050565b60006103816102e8565b905061038d8282610346565b919050565b600067ffffffffffffffff8211156103ad576103ac610317565b5b6103b682610306565b9050602081019050919050565b82818337600083830152505050565b60006103e56103e084610392565b610377565b90508281526020810184848401111561040157610400610301565b5b61040c8482856103c3565b509392505050565b600082601f830112610429576104286102fc565b5b81356104398482602086016103d2565b91505092915050565b600060208284031215610458576104576102f2565b5b600082013567ffffffffffffffff811115610476576104756102f7565b5b61048284828501610414565b91505092915050565b6000819050919050565b61049e8161048b565b82525050565b60006020820190506104b96000830184610495565b92915050565b6104c88161048b565b81146104d357600080fd5b50565b6000813590506104e5816104bf565b92915050565b600060208284031215610501576105006102f2565b5b600061050f848285016104d6565b91505092915050565b600081519050919050565b600082825260208201905092915050565b60005b83811015610552578082015181840152602081019050610537565b60008484015250505050565b600061056982610518565b6105738185610523565b9350610583818560208601610534565b61058c81610306565b840191505092915050565b60008115159050919050565b6105ac81610597565b82525050565b60006060820190506105c76000830186610495565b81810360208301526105d9818561055e565b90506105e860408301846105a3565b949350505050565b6105f981610597565b811461060457600080fd5b50565b600081359050610616816105f0565b92915050565b600080600060608486031215610635576106346102f2565b5b600084013567ffffffffffffffff811115610653576106526102f7565b5b61065f86828701610414565b9350506020610670868287016104d6565b925050604061068186828701610607565b9150509250925092565b7f4e487b7100000000000000000000000000000000000000000000000000000000600052602260045260246000fd5b600060028204905060018216806106d257607f821691505b6020821081036106e5576106e461068b565b5b50919050565b7f4e487b7100000000000000000000000000000000000000000000000000000000600052601160045260246000fd5b60006107258261048b565b91506107308361048b565b925082820261073e8161048b565b91508282048414831517610755576107546106eb565b5b5092915050565b60008190508160005260206000209050919050565b60006020601f8301049050919050565b600082821b905092915050565b6000600883026107be7fffffffffffffffffffffffffffffffffffffffffffffffffffffffffffffffff82610781565b6107c88683610781565b95508019841693508086168417925050509392505050565b6000819050919050565b60006108056108006107fb8461048b565b6107e0565b61048b565b9050919050565b6000819050919050565b61081f836107ea565b61083361082b8261080c565b84845461078e565b825550505050565b600090565b61084861083b565b610853818484610816565b505050565b5b818110156108775761086c600082610840565b600181019050610859565b5050565b601f8211156108bc5761088d8161075c565b61089684610771565b810160208510156108a5578190505b6108b96108b185610771565b830182610858565b50505b505050565b600082821c905092915050565b60006108df600019846008026108c1565b1980831691505092915050565b60006108f883836108ce565b9150826002028217905092915050565b61091182610518565b67ffffffffffffffff81111561092a57610929610317565b5b61093482546106ba565b61093f82828561087b565b600060209050601f8311600181146109725760008415610960578287015190505b61096a85826108ec565b8655506109d2565b601f1984166109808661075c565b60005b828110156109a857848901518255600182019150602085019450602081019050610983565b868310156109c557848901516109c1601f8916826108ce565b8355505b6001600288020188555050505b505050505050565b600081905092915050565b60006109f082610518565b6109fa81856109da565b9350610a0a818560208601610534565b80840191505092915050565b6000610a2282846109e5565b91508190509291505056fea2646970667358221220e3cb214e109276fcf86c971077a22897711d1e14eefe56bffd9491942e1710e964736f6c63430008130033",
					"opcodes": "PUSH1 0x80 PUSH1 0x40 MSTORE CALLVALUE DUP1 ISZERO PUSH2 0x10 JUMPI PUSH1 0x0 DUP1 REVERT JUMPDEST POP PUSH2 0xA63 DUP1 PUSH2 0x20 PUSH1 0x0 CODECOPY PUSH1 0x0 RETURN INVALID PUSH1 0x80 PUSH1 0x40 MSTORE CALLVALUE DUP1 ISZERO PUSH2 0x10 JUMPI PUSH1 0x0 DUP1 REVERT JUMPDEST POP PUSH1 0x4 CALLDATASIZE LT PUSH2 0x57 JUMPI PUSH1 0x0 CALLDATALOAD PUSH1 0xE0 SHR DUP1 PUSH4 0x23814FC5 EQ PUSH2 0x5C JUMPI DUP1 PUSH4 0x6057361D EQ PUSH2 0x8C JUMPI DUP1 PUSH4 0x71E5EE5F EQ PUSH2 0xA8 JUMPI DUP1 PUSH4 0xB05784B8 EQ PUSH2 0xDA JUMPI DUP1 PUSH4 0xB8A8F54F EQ PUSH2 0xF8 JUMPI JUMPDEST PUSH1 0x0 DUP1 REVERT JUMPDEST PUSH2 0x76 PUSH1 0x4 DUP1 CALLDATASIZE SUB DUP2 ADD SWAP1 PUSH2 0x71 SWAP2 SWAP1 PUSH2 0x442 JUMP JUMPDEST PUSH2 0x114 JUMP JUMPDEST PUSH1 0x40 MLOAD PUSH2 0x83 SWAP2 SWAP1 PUSH2 0x4A4 JUMP JUMPDEST PUSH1 0x40 MLOAD DUP1 SWAP2 SUB SWAP1 RETURN JUMPDEST PUSH2 0xA6 PUSH1 0x4 DUP1 CALLDATASIZE SUB DUP2 ADD SWAP1 PUSH2 0xA1 SWAP2 SWAP1 PUSH2 0x4EB JUMP JUMPDEST PUSH2 0x142 JUMP JUMPDEST STOP JUMPDEST PUSH2 0xC2 PUSH1 0x4 DUP1 CALLDATASIZE SUB DUP2 ADD SWAP1 PUSH2 0xBD SWAP2 SWAP1 PUSH2 0x4EB JUMP JUMPDEST PUSH2 0x14C JUMP JUMPDEST PUSH1 0x40 MLOAD PUSH2 0xD1 SWAP4 SWAP3 SWAP2 SWAP1 PUSH2 0x5B2 JUMP JUMPDEST PUSH1 0x40 MLOAD DUP1 SWAP2 SUB SWAP1 RETURN JUMPDEST PUSH2 0xE2 PUSH2 0x21B JUMP JUMPDEST PUSH1 0x40 MLOAD PUSH2 0xEF SWAP2 SWAP1 PUSH2 0x4A4 JUMP JUMPDEST PUSH1 0x40 MLOAD DUP1 SWAP2 SUB SWAP1 RETURN JUMPDEST PUSH2 0x112 PUSH1 0x4 DUP1 CALLDATASIZE SUB DUP2 ADD SWAP1 PUSH2 0x10D SWAP2 SWAP1 PUSH2 0x61C JUMP JUMPDEST PUSH2 0x236 JUMP JUMPDEST STOP JUMPDEST PUSH1 0x1 DUP2 DUP1 MLOAD PUSH1 0x20 DUP2 ADD DUP3 ADD DUP1 MLOAD DUP5 DUP3 MSTORE PUSH1 0x20 DUP4 ADD PUSH1 0x20 DUP6 ADD KECCAK256 DUP2 DUP4 MSTORE DUP1 SWAP6 POP POP POP POP POP POP PUSH1 0x0 SWAP2 POP SWAP1 POP SLOAD DUP2 JUMP JUMPDEST DUP1 PUSH1 0x0 DUP2 SWAP1 SSTORE POP POP JUMP JUMPDEST PUSH1 0x2 DUP2 DUP2 SLOAD DUP2 LT PUSH2 0x15C JUMPI PUSH1 0x0 DUP1 REVERT JUMPDEST SWAP1 PUSH1 0x0 MSTORE PUSH1 0x20 PUSH1 0x0 KECCAK256 SWAP1 PUSH1 0x3 MUL ADD PUSH1 0x0 SWAP2 POP SWAP1 POP DUP1 PUSH1 0x0 ADD SLOAD SWAP1 DUP1 PUSH1 0x1 ADD DUP1 SLOAD PUSH2 0x185 SWAP1 PUSH2 0x6BA JUMP JUMPDEST DUP1 PUSH1 0x1F ADD PUSH1 0x20 DUP1 SWAP2 DIV MUL PUSH1 0x20 ADD PUSH1 0x40 MLOAD SWAP1 DUP2 ADD PUSH1 0x40 MSTORE DUP1 SWAP3 SWAP2 SWAP1 DUP2 DUP2 MSTORE PUSH1 0x20 ADD DUP3 DUP1 SLOAD PUSH2 0x1B1 SWAP1 PUSH2 0x6BA JUMP JUMPDEST DUP1 ISZERO PUSH2 0x1FE JUMPI DUP1 PUSH1 0x1F LT PUSH2 0x1D3 JUMPI PUSH2 0x100 DUP1 DUP4 SLOAD DIV MUL DUP4 MSTORE SWAP2 PUSH1 0x20 ADD SWAP2 PUSH2 0x1FE JUMP JUMPDEST DUP3 ADD SWAP2 SWAP1 PUSH1 0x0 MSTORE PUSH1 0x20 PUSH1 0x0 KECCAK256 SWAP1 JUMPDEST DUP2 SLOAD DUP2 MSTORE SWAP1 PUSH1 0x1 ADD SWAP1 PUSH1 0x20 ADD DUP1 DUP4 GT PUSH2 0x1E1 JUMPI DUP3 SWAP1 SUB PUSH1 0x1F AND DUP3 ADD SWAP2 JUMPDEST POP POP POP POP POP SWAP1 DUP1 PUSH1 0x2 ADD PUSH1 0x0 SWAP1 SLOAD SWAP1 PUSH2 0x100 EXP SWAP1 DIV PUSH1 0xFF AND SWAP1 POP DUP4 JUMP JUMPDEST PUSH1 0x0 DUP1 PUSH1 0x64 PUSH1 0x0 SLOAD PUSH2 0x22D SWAP2 SWAP1 PUSH2 0x71A JUMP JUMPDEST SWAP1 POP DUP1 SWAP2 POP POP SWAP1 JUMP JUMPDEST PUSH1 0x2 PUSH1 0x40 MLOAD DUP1 PUSH1 0x60 ADD PUSH1 0x40 MSTORE DUP1 DUP5 DUP2 MSTORE PUSH1 0x20 ADD DUP6 DUP2 MSTORE PUSH1 0x20 ADD DUP4 ISZERO ISZERO DUP2 MSTORE POP SWAP1 DUP1 PUSH1 0x1 DUP2 SLOAD ADD DUP1 DUP3 SSTORE DUP1 SWAP2 POP POP PUSH1 0x1 SWAP1 SUB SWAP1 PUSH1 0x0 MSTORE PUSH1 0x20 PUSH1 0x0 KECCAK256 SWAP1 PUSH1 0x3 MUL ADD PUSH1 0x0 SWAP1 SWAP2 SWAP1 SWAP2 SWAP1 SWAP2 POP PUSH1 0x0 DUP3 ADD MLOAD DUP2 PUSH1 0x0 ADD SSTORE PUSH1 0x20 DUP3 ADD MLOAD DUP2 PUSH1 0x1 ADD SWAP1 DUP2 PUSH2 0x29D SWAP2 SWAP1 PUSH2 0x908 JUMP JUMPDEST POP PUSH1 0x40 DUP3 ADD MLOAD DUP2 PUSH1 0x2 ADD PUSH1 0x0 PUSH2 0x100 EXP DUP2 SLOAD DUP2 PUSH1 0xFF MUL NOT AND SWAP1 DUP4 ISZERO ISZERO MUL OR SWAP1 SSTORE POP POP POP DUP2 PUSH1 0x1 DUP5 PUSH1 0x40 MLOAD PUSH2 0x2D1 SWAP2 SWAP1 PUSH2 0xA16 JUMP JUMPDEST SWAP1 DUP2 MSTORE PUSH1 0x20 ADD PUSH1 0x40 MLOAD DUP1 SWAP2 SUB SWAP1 KECCAK256 DUP2 SWAP1 SSTORE POP POP POP POP JUMP JUMPDEST PUSH1 0x0 PUSH1 0x40 MLOAD SWAP1 POP SWAP1 JUMP JUMPDEST PUSH1 0x0 DUP1 REVERT JUMPDEST PUSH1 0x0 DUP1 REVERT JUMPDEST PUSH1 0x0 DUP1 REVERT JUMPDEST PUSH1 0x0 DUP1 REVERT JUMPDEST PUSH1 0x0 PUSH1 0x1F NOT PUSH1 0x1F DUP4 ADD AND SWAP1 POP SWAP2 SWAP1 POP JUMP JUMPDEST PUSH32 0x4E487B7100000000000000000000000000000000000000000000000000000000 PUSH1 0x0 MSTORE PUSH1 0x41 PUSH1 0x4 MSTORE PUSH1 0x24 PUSH1 0x0 REVERT JUMPDEST PUSH2 0x34F DUP3 PUSH2 0x306 JUMP JUMPDEST DUP2 ADD DUP2 DUP2 LT PUSH8 0xFFFFFFFFFFFFFFFF DUP3 GT OR ISZERO PUSH2 0x36E JUMPI PUSH2 0x36D PUSH2 0x317 JUMP JUMPDEST JUMPDEST DUP1 PUSH1 0x40 MSTORE POP POP POP JUMP JUMPDEST PUSH1 0x0 PUSH2 0x381 PUSH2 0x2E8 JUMP JUMPDEST SWAP1 POP PUSH2 0x38D DUP3 DUP3 PUSH2 0x346 JUMP JUMPDEST SWAP2 SWAP1 POP JUMP JUMPDEST PUSH1 0x0 PUSH8 0xFFFFFFFFFFFFFFFF DUP3 GT ISZERO PUSH2 0x3AD JUMPI PUSH2 0x3AC PUSH2 0x317 JUMP JUMPDEST JUMPDEST PUSH2 0x3B6 DUP3 PUSH2 0x306 JUMP JUMPDEST SWAP1 POP PUSH1 0x20 DUP2 ADD SWAP1 POP SWAP2 SWAP1 POP JUMP JUMPDEST DUP3 DUP2 DUP4 CALLDATACOPY PUSH1 0x0 DUP4 DUP4 ADD MSTORE POP POP POP JUMP JUMPDEST PUSH1 0x0 PUSH2 0x3E5 PUSH2 0x3E0 DUP5 PUSH2 0x392 JUMP JUMPDEST PUSH2 0x377 JUMP JUMPDEST SWAP1 POP DUP3 DUP2 MSTORE PUSH1 0x20 DUP2 ADD DUP5 DUP5 DUP5 ADD GT ISZERO PUSH2 0x401 JUMPI PUSH2 0x400 PUSH2 0x301 JUMP JUMPDEST JUMPDEST PUSH2 0x40C DUP5 DUP3 DUP6 PUSH2 0x3C3 JUMP JUMPDEST POP SWAP4 SWAP3 POP POP POP JUMP JUMPDEST PUSH1 0x0 DUP3 PUSH1 0x1F DUP4 ADD SLT PUSH2 0x429 JUMPI PUSH2 0x428 PUSH2 0x2FC JUMP JUMPDEST JUMPDEST DUP2 CALLDATALOAD PUSH2 0x439 DUP5 DUP3 PUSH1 0x20 DUP7 ADD PUSH2 0x3D2 JUMP JUMPDEST SWAP2 POP POP SWAP3 SWAP2 POP POP JUMP JUMPDEST PUSH1 0x0 PUSH1 0x20 DUP3 DUP5 SUB SLT ISZERO PUSH2 0x458 JUMPI PUSH2 0x457 PUSH2 0x2F2 JUMP JUMPDEST JUMPDEST PUSH1 0x0 DUP3 ADD CALLDATALOAD PUSH8 0xFFFFFFFFFFFFFFFF DUP2 GT ISZERO PUSH2 0x476 JUMPI PUSH2 0x475 PUSH2 0x2F7 JUMP JUMPDEST JUMPDEST PUSH2 0x482 DUP5 DUP3 DUP6 ADD PUSH2 0x414 JUMP JUMPDEST SWAP2 POP POP SWAP3 SWAP2 POP POP JUMP JUMPDEST PUSH1 0x0 DUP2 SWAP1 POP SWAP2 SWAP1 POP JUMP JUMPDEST PUSH2 0x49E DUP2 PUSH2 0x48B JUMP JUMPDEST DUP3 MSTORE POP POP JUMP JUMPDEST PUSH1 0x0 PUSH1 0x20 DUP3 ADD SWAP1 POP PUSH2 0x4B9 PUSH1 0x0 DUP4 ADD DUP5 PUSH2 0x495 JUMP JUMPDEST SWAP3 SWAP2 POP POP JUMP JUMPDEST PUSH2 0x4C8 DUP2 PUSH2 0x48B JUMP JUMPDEST DUP2 EQ PUSH2 0x4D3 JUMPI PUSH1 0x0 DUP1 REVERT JUMPDEST POP JUMP JUMPDEST PUSH1 0x0 DUP2 CALLDATALOAD SWAP1 POP PUSH2 0x4E5 DUP2 PUSH2 0x4BF JUMP JUMPDEST SWAP3 SWAP2 POP POP JUMP JUMPDEST PUSH1 0x0 PUSH1 0x20 DUP3 DUP5 SUB SLT ISZERO PUSH2 0x501 JUMPI PUSH2 0x500 PUSH2 0x2F2 JUMP JUMPDEST JUMPDEST PUSH1 0x0 PUSH2 0x50F DUP5 DUP3 DUP6 ADD PUSH2 0x4D6 JUMP JUMPDEST SWAP2 POP POP SWAP3 SWAP2 POP POP JUMP JUMPDEST PUSH1 0x0 DUP2 MLOAD SWAP1 POP SWAP2 SWAP1 POP JUMP JUMPDEST PUSH1 0x0 DUP3 DUP3 MSTORE PUSH1 0x20 DUP3 ADD SWAP1 POP SWAP3 SWAP2 POP POP JUMP JUMPDEST PUSH1 0x0 JUMPDEST DUP4 DUP2 LT ISZERO PUSH2 0x552 JUMPI DUP1 DUP3 ADD MLOAD DUP2 DUP5 ADD MSTORE PUSH1 0x20 DUP2 ADD SWAP1 POP PUSH2 0x537 JUMP JUMPDEST PUSH1 0x0 DUP5 DUP5 ADD MSTORE POP POP POP POP JUMP JUMPDEST PUSH1 0x0 PUSH2 0x569 DUP3 PUSH2 0x518 JUMP JUMPDEST PUSH2 0x573 DUP2 DUP6 PUSH2 0x523 JUMP JUMPDEST SWAP4 POP PUSH2 0x583 DUP2 DUP6 PUSH1 0x20 DUP7 ADD PUSH2 0x534 JUMP JUMPDEST PUSH2 0x58C DUP2 PUSH2 0x306 JUMP JUMPDEST DUP5 ADD SWAP2 POP POP SWAP3 SWAP2 POP POP JUMP JUMPDEST PUSH1 0x0 DUP2 ISZERO ISZERO SWAP1 POP SWAP2 SWAP1 POP JUMP JUMPDEST PUSH2 0x5AC DUP2 PUSH2 0x597 JUMP JUMPDEST DUP3 MSTORE POP POP JUMP JUMPDEST PUSH1 0x0 PUSH1 0x60 DUP3 ADD SWAP1 POP PUSH2 0x5C7 PUSH1 0x0 DUP4 ADD DUP7 PUSH2 0x495 JUMP JUMPDEST DUP2 DUP2 SUB PUSH1 0x20 DUP4 ADD MSTORE PUSH2 0x5D9 DUP2 DUP6 PUSH2 0x55E JUMP JUMPDEST SWAP1 POP PUSH2 0x5E8 PUSH1 0x40 DUP4 ADD DUP5 PUSH2 0x5A3 JUMP JUMPDEST SWAP5 SWAP4 POP POP POP POP JUMP JUMPDEST PUSH2 0x5F9 DUP2 PUSH2 0x597 JUMP JUMPDEST DUP2 EQ PUSH2 0x604 JUMPI PUSH1 0x0 DUP1 REVERT JUMPDEST POP JUMP JUMPDEST PUSH1 0x0 DUP2 CALLDATALOAD SWAP1 POP PUSH2 0x616 DUP2 PUSH2 0x5F0 JUMP JUMPDEST SWAP3 SWAP2 POP POP JUMP JUMPDEST PUSH1 0x0 DUP1 PUSH1 0x0 PUSH1 0x60 DUP5 DUP7 SUB SLT ISZERO PUSH2 0x635 JUMPI PUSH2 0x634 PUSH2 0x2F2 JUMP JUMPDEST JUMPDEST PUSH1 0x0 DUP5 ADD CALLDATALOAD PUSH8 0xFFFFFFFFFFFFFFFF DUP2 GT ISZERO PUSH2 0x653 JUMPI PUSH2 0x652 PUSH2 0x2F7 JUMP JUMPDEST JUMPDEST PUSH2 0x65F DUP7 DUP3 DUP8 ADD PUSH2 0x414 JUMP JUMPDEST SWAP4 POP POP PUSH1 0x20 PUSH2 0x670 DUP7 DUP3 DUP8 ADD PUSH2 0x4D6 JUMP JUMPDEST SWAP3 POP POP PUSH1 0x40 PUSH2 0x681 DUP7 DUP3 DUP8 ADD PUSH2 0x607 JUMP JUMPDEST SWAP2 POP POP SWAP3 POP SWAP3 POP SWAP3 JUMP JUMPDEST PUSH32 0x4E487B7100000000000000000000000000000000000000000000000000000000 PUSH1 0x0 MSTORE PUSH1 0x22 PUSH1 0x4 MSTORE PUSH1 0x24 PUSH1 0x0 REVERT JUMPDEST PUSH1 0x0 PUSH1 0x2 DUP3 DIV SWAP1 POP PUSH1 0x1 DUP3 AND DUP1 PUSH2 0x6D2 JUMPI PUSH1 0x7F DUP3 AND SWAP2 POP JUMPDEST PUSH1 0x20 DUP3 LT DUP2 SUB PUSH2 0x6E5 JUMPI PUSH2 0x6E4 PUSH2 0x68B JUMP JUMPDEST JUMPDEST POP SWAP2 SWAP1 POP JUMP JUMPDEST PUSH32 0x4E487B7100000000000000000000000000000000000000000000000000000000 PUSH1 0x0 MSTORE PUSH1 0x11 PUSH1 0x4 MSTORE PUSH1 0x24 PUSH1 0x0 REVERT JUMPDEST PUSH1 0x0 PUSH2 0x725 DUP3 PUSH2 0x48B JUMP JUMPDEST SWAP2 POP PUSH2 0x730 DUP4 PUSH2 0x48B JUMP JUMPDEST SWAP3 POP DUP3 DUP3 MUL PUSH2 0x73E DUP2 PUSH2 0x48B JUMP JUMPDEST SWAP2 POP DUP3 DUP3 DIV DUP5 EQ DUP4 ISZERO OR PUSH2 0x755 JUMPI PUSH2 0x754 PUSH2 0x6EB JUMP JUMPDEST JUMPDEST POP SWAP3 SWAP2 POP POP JUMP JUMPDEST PUSH1 0x0 DUP2 SWAP1 POP DUP2 PUSH1 0x0 MSTORE PUSH1 0x20 PUSH1 0x0 KECCAK256 SWAP1 POP SWAP2 SWAP1 POP JUMP JUMPDEST PUSH1 0x0 PUSH1 0x20 PUSH1 0x1F DUP4 ADD DIV SWAP1 POP SWAP2 SWAP1 POP JUMP JUMPDEST PUSH1 0x0 DUP3 DUP3 SHL SWAP1 POP SWAP3 SWAP2 POP POP JUMP JUMPDEST PUSH1 0x0 PUSH1 0x8 DUP4 MUL PUSH2 0x7BE PUSH32 0xFFFFFFFFFFFFFFFFFFFFFFFFFFFFFFFFFFFFFFFFFFFFFFFFFFFFFFFFFFFFFFFF DUP3 PUSH2 0x781 JUMP JUMPDEST PUSH2 0x7C8 DUP7 DUP4 PUSH2 0x781 JUMP JUMPDEST SWAP6 POP DUP1 NOT DUP5 AND SWAP4 POP DUP1 DUP7 AND DUP5 OR SWAP3 POP POP POP SWAP4 SWAP3 POP POP POP JUMP JUMPDEST PUSH1 0x0 DUP2 SWAP1 POP SWAP2 SWAP1 POP JUMP JUMPDEST PUSH1 0x0 PUSH2 0x805 PUSH2 0x800 PUSH2 0x7FB DUP5 PUSH2 0x48B JUMP JUMPDEST PUSH2 0x7E0 JUMP JUMPDEST PUSH2 0x48B JUMP JUMPDEST SWAP1 POP SWAP2 SWAP1 POP JUMP JUMPDEST PUSH1 0x0 DUP2 SWAP1 POP SWAP2 SWAP1 POP JUMP JUMPDEST PUSH2 0x81F DUP4 PUSH2 0x7EA JUMP JUMPDEST PUSH2 0x833 PUSH2 0x82B DUP3 PUSH2 0x80C JUMP JUMPDEST DUP5 DUP5 SLOAD PUSH2 0x78E JUMP JUMPDEST DUP3 SSTORE POP POP POP POP JUMP JUMPDEST PUSH1 0x0 SWAP1 JUMP JUMPDEST PUSH2 0x848 PUSH2 0x83B JUMP JUMPDEST PUSH2 0x853 DUP2 DUP5 DUP5 PUSH2 0x816 JUMP JUMPDEST POP POP POP JUMP JUMPDEST JUMPDEST DUP2 DUP2 LT ISZERO PUSH2 0x877 JUMPI PUSH2 0x86C PUSH1 0x0 DUP3 PUSH2 0x840 JUMP JUMPDEST PUSH1 0x1 DUP2 ADD SWAP1 POP PUSH2 0x859 JUMP JUMPDEST POP POP JUMP JUMPDEST PUSH1 0x1F DUP3 GT ISZERO PUSH2 0x8BC JUMPI PUSH2 0x88D DUP2 PUSH2 0x75C JUMP JUMPDEST PUSH2 0x896 DUP5 PUSH2 0x771 JUMP JUMPDEST DUP2 ADD PUSH1 0x20 DUP6 LT ISZERO PUSH2 0x8A5 JUMPI DUP2 SWAP1 POP JUMPDEST PUSH2 0x8B9 PUSH2 0x8B1 DUP6 PUSH2 0x771 JUMP JUMPDEST DUP4 ADD DUP3 PUSH2 0x858 JUMP JUMPDEST POP POP JUMPDEST POP POP POP JUMP JUMPDEST PUSH1 0x0 DUP3 DUP3 SHR SWAP1 POP SWAP3 SWAP2 POP POP JUMP JUMPDEST PUSH1 0x0 PUSH2 0x8DF PUSH1 0x0 NOT DUP5 PUSH1 0x8 MUL PUSH2 0x8C1 JUMP JUMPDEST NOT DUP1 DUP4 AND SWAP2 POP POP SWAP3 SWAP2 POP POP JUMP JUMPDEST PUSH1 0x0 PUSH2 0x8F8 DUP4 DUP4 PUSH2 0x8CE JUMP JUMPDEST SWAP2 POP DUP3 PUSH1 0x2 MUL DUP3 OR SWAP1 POP SWAP3 SWAP2 POP POP JUMP JUMPDEST PUSH2 0x911 DUP3 PUSH2 0x518 JUMP JUMPDEST PUSH8 0xFFFFFFFFFFFFFFFF DUP2 GT ISZERO PUSH2 0x92A JUMPI PUSH2 0x929 PUSH2 0x317 JUMP JUMPDEST JUMPDEST PUSH2 0x934 DUP3 SLOAD PUSH2 0x6BA JUMP JUMPDEST PUSH2 0x93F DUP3 DUP3 DUP6 PUSH2 0x87B JUMP JUMPDEST PUSH1 0x0 PUSH1 0x20 SWAP1 POP PUSH1 0x1F DUP4 GT PUSH1 0x1 DUP2 EQ PUSH2 0x972 JUMPI PUSH1 0x0 DUP5 ISZERO PUSH2 0x960 JUMPI DUP3 DUP8 ADD MLOAD SWAP1 POP JUMPDEST PUSH2 0x96A DUP6 DUP3 PUSH2 0x8EC JUMP JUMPDEST DUP7 SSTORE POP PUSH2 0x9D2 JUMP JUMPDEST PUSH1 0x1F NOT DUP5 AND PUSH2 0x980 DUP7 PUSH2 0x75C JUMP JUMPDEST PUSH1 0x0 JUMPDEST DUP3 DUP2 LT ISZERO PUSH2 0x9A8 JUMPI DUP5 DUP10 ADD MLOAD DUP3 SSTORE PUSH1 0x1 DUP3 ADD SWAP2 POP PUSH1 0x20 DUP6 ADD SWAP5 POP PUSH1 0x20 DUP2 ADD SWAP1 POP PUSH2 0x983 JUMP JUMPDEST DUP7 DUP4 LT ISZERO PUSH2 0x9C5 JUMPI DUP5 DUP10 ADD MLOAD PUSH2 0x9C1 PUSH1 0x1F DUP10 AND DUP3 PUSH2 0x8CE JUMP JUMPDEST DUP4 SSTORE POP JUMPDEST PUSH1 0x1 PUSH1 0x2 DUP9 MUL ADD DUP9 SSTORE POP POP POP JUMPDEST POP POP POP POP POP POP JUMP JUMPDEST PUSH1 0x0 DUP2 SWAP1 POP SWAP3 SWAP2 POP POP JUMP JUMPDEST PUSH1 0x0 PUSH2 0x9F0 DUP3 PUSH2 0x518 JUMP JUMPDEST PUSH2 0x9FA DUP2 DUP6 PUSH2 0x9DA JUMP JUMPDEST SWAP4 POP PUSH2 0xA0A DUP2 DUP6 PUSH1 0x20 DUP7 ADD PUSH2 0x534 JUMP JUMPDEST DUP1 DUP5 ADD SWAP2 POP POP SWAP3 SWAP2 POP POP JUMP JUMPDEST PUSH1 0x0 PUSH2 0xA22 DUP3 DUP5 PUSH2 0x9E5 JUMP JUMPDEST SWAP2 POP DUP2 SWAP1 POP SWAP3 SWAP2 POP POP JUMP INVALID LOG2 PUSH5 0x6970667358 0x22 SLT KECCAK256 0xE3 0xCB 0x21 0x4E LT SWAP3 PUSH23 0xFCF86C971077A22897711D1E14EEFE56BFFD9491942E17 LT 0xE9 PUSH5 0x736F6C6343 STOP ADDMOD SGT STOP CALLER "
				},
				"gasEstimates": {
					"creation": {
						"codeDepositCost": "531800",
						"executionCost": "568",
						"totalCost": "532368"
					},
					"external": {
						"add(string,uint256,bool)": "infinite",
						"arr(uint256)": "infinite",
						"map(string)": "infinite",
						"retreive()": "infinite",
						"store(uint256)": "22520"
					}
				},
				"methodIdentifiers": {
					"add(string,uint256,bool)": "b8a8f54f",
					"arr(uint256)": "71e5ee5f",
					"map(string)": "23814fc5",
					"retreive()": "b05784b8",
					"store(uint256)": "6057361d"
				}
			},
			"storageLayout": {
				"storage": [
					{
						"astId": 3,
						"contract": "abc.sol:SimpleStorage",
						"label": "anyNumber",
						"offset": 0,
						"slot": "0",
						"type": "t_uint256"
					},
					{
						"astId": 14,
						"contract": "abc.sol:SimpleStorage",
						"label": "map",
						"offset": 0,
						"slot": "1",
						"type": "t_mapping(t_string_memory_ptr,t_uint256)"
					},
					{
						"astId": 18,
						"contract": "abc.sol:SimpleStorage",
						"label": "arr",
						"offset": 0,
						"slot": "2",
						"type": "t_array(t_struct(ExampleStruct)10_storage)dyn_storage"
					}
				],
				"types": {
					"t_array(t_struct(ExampleStruct)10_storage)dyn_storage": {
						"base": "t_struct(ExampleStruct)10_storage",
						"encoding": "dynamic_array",
						"label": "struct SimpleStorage.ExampleStruct[]",
						"numberOfBytes": "32"
					},
					"t_bool": {
						"encoding": "inplace",
						"label": "bool",
						"numberOfBytes": "1"
					},
					"t_mapping(t_string_memory_ptr,t_uint256)": {
						"encoding": "mapping",
						"key": "t_string_memory_ptr",
						"label": "mapping(string => uint256)",
						"numberOfBytes": "32",
						"value": "t_uint256"
					},
					"t_string_memory_ptr": {
						"encoding": "bytes",
						"label": "string",
						"numberOfBytes": "32"
					},
					"t_string_storage": {
						"encoding": "bytes",
						"label": "string",
						"numberOfBytes": "32"
					},
					"t_struct(ExampleStruct)10_storage": {
						"encoding": "inplace",
						"label": "struct SimpleStorage.ExampleStruct",
						"members": [
							{
								"astId": 5,
								"contract": "abc.sol:SimpleStorage",
								"label": "anyNumber",
								"offset": 0,
								"slot": "0",
								"type": "t_uint256"
							},
							{
								"astId": 7,
								"contract": "abc.sol:SimpleStorage",
								"label": "name",
								"offset": 0,
								"slot": "1",
								"type": "t_string_storage"
							},
							{
								"astId": 9,
								"contract": "abc.sol:SimpleStorage",
								"label": "flag",
								"offset": 0,
								"slot": "2",
								"type": "t_bool"
							}
						],
						"numberOfBytes": "96"
					},
					"t_uint256": {
						"encoding": "inplace",
						"label": "uint256",
						"numberOfBytes": "32"
					}
				}
			},
			"userdoc": {
				"kind": "user",
				"methods": {},
				"version": 1
			}
		}
	}
}