{
	"contracts/storage.sol": {
		"SimpleStorage": {
			"abi": [
				{
					"inputs": [
						{
							"internalType": "string",
							"name": "Name",
							"type": "string"
						},
						{
							"internalType": "uint256",
							"name": "favnos",
							"type": "uint256"
						},
						{
							"internalType": "bool",
							"name": "flg",
							"type": "bool"
						}
					],
					"name": "addPerson",
					"outputs": [],
					"stateMutability": "nonpayable",
					"type": "function"
				},
				{
					"inputs": [],
					"name": "favNum",
					"outputs": [
						{
							"internalType": "uint256",
							"name": "",
							"type": "uint256"
						}
					],
					"stateMutability": "view",
					"type": "function"
				},
				{
					"inputs": [
						{
							"internalType": "string",
							"name": "",
							"type": "string"
						}
					],
					"name": "map",
					"outputs": [
						{
							"internalType": "uint256",
							"name": "",
							"type": "uint256"
						}
					],
					"stateMutability": "view",
					"type": "function"
				},
				{
					"inputs": [
						{
							"internalType": "uint256",
							"name": "",
							"type": "uint256"
						}
					],
					"name": "people",
					"outputs": [
						{
							"internalType": "uint256",
							"name": "favNumber",
							"type": "uint256"
						},
						{
							"internalType": "string",
							"name": "name",
							"type": "string"
						},
						{
							"internalType": "bool",
							"name": "flag",
							"type": "bool"
						}
					],
					"stateMutability": "view",
					"type": "function"
				},
				{
					"inputs": [],
					"name": "retrieve",
					"outputs": [
						{
							"internalType": "uint256",
							"name": "",
							"type": "uint256"
						}
					],
					"stateMutability": "view",
					"type": "function"
				},
				{
					"inputs": [
						{
							"internalType": "uint256",
							"name": "_fav",
							"type": "uint256"
						}
					],
					"name": "store",
					"outputs": [],
					"stateMutability": "nonpayable",
					"type": "function"
				}
			],
			"devdoc": {
				"kind": "dev",
				"methods": {},
				"version": 1
			},
			"evm": {
				"assembly": "    /* \"contracts/storage.sol\":66:805  contract SimpleStorage{... */\n  mstore(0x40, 0x80)\n  callvalue\n  dup1\n  iszero\n  tag_1\n  jumpi\n  0x00\n  dup1\n  revert\ntag_1:\n  pop\n  dataSize(sub_0)\n  dup1\n  dataOffset(sub_0)\n  0x00\n  codecopy\n  0x00\n  return\nstop\n\nsub_0: assembly {\n        /* \"contracts/storage.sol\":66:805  contract SimpleStorage{... */\n      mstore(0x40, 0x80)\n      callvalue\n      dup1\n      iszero\n      tag_1\n      jumpi\n      0x00\n      dup1\n      revert\n    tag_1:\n      pop\n      jumpi(tag_2, lt(calldatasize, 0x04))\n      shr(0xe0, calldataload(0x00))\n      dup1\n      0x032ce9aa\n      eq\n      tag_3\n      jumpi\n      dup1\n      0x23814fc5\n      eq\n      tag_4\n      jumpi\n      dup1\n      0x2e64cec1\n      eq\n      tag_5\n      jumpi\n      dup1\n      0x3c8df652\n      eq\n      tag_6\n      jumpi\n      dup1\n      0x6057361d\n      eq\n      tag_7\n      jumpi\n      dup1\n      0x9e7a13ad\n      eq\n      tag_8\n      jumpi\n    tag_2:\n      0x00\n      dup1\n      revert\n        /* \"contracts/storage.sol\":652:803  function addPerson(string memory Name, uint256 favnos, bool flg)public{... */\n    tag_3:\n      tag_9\n      0x04\n      dup1\n      calldatasize\n      sub\n      dup2\n      add\n      swap1\n      tag_10\n      swap2\n      swap1\n      tag_11\n      jump\t// in\n    tag_10:\n      tag_12\n      jump\t// in\n    tag_9:\n      stop\n        /* \"contracts/storage.sol\":243:278  mapping(string=>uint256) public map */\n    tag_4:\n      tag_13\n      0x04\n      dup1\n      calldatasize\n      sub\n      dup2\n      add\n      swap1\n      tag_14\n      swap2\n      swap1\n      tag_15\n      jump\t// in\n    tag_14:\n      tag_16\n      jump\t// in\n    tag_13:\n      mload(0x40)\n      tag_17\n      swap2\n      swap1\n      tag_18\n      jump\t// in\n    tag_17:\n      mload(0x40)\n      dup1\n      swap2\n      sub\n      swap1\n      return\n        /* \"contracts/storage.sol\":382:559  function retrieve() public view returns(uint256){... */\n    tag_5:\n      tag_19\n      tag_20\n      jump\t// in\n    tag_19:\n      mload(0x40)\n      tag_21\n      swap2\n      swap1\n      tag_18\n      jump\t// in\n    tag_21:\n      mload(0x40)\n      dup1\n      swap2\n      sub\n      swap1\n      return\n        /* \"contracts/storage.sol\":94:115  uint256 public favNum */\n    tag_6:\n      tag_22\n      tag_23\n      jump\t// in\n    tag_22:\n      mload(0x40)\n      tag_24\n      swap2\n      swap1\n      tag_18\n      jump\t// in\n    tag_24:\n      mload(0x40)\n      dup1\n      swap2\n      sub\n      swap1\n      return\n        /* \"contracts/storage.sol\":284:377  function store(uint256 _fav)public{... */\n    tag_7:\n      tag_25\n      0x04\n      dup1\n      calldatasize\n      sub\n      dup2\n      add\n      swap1\n      tag_26\n      swap2\n      swap1\n      tag_27\n      jump\t// in\n    tag_26:\n      tag_28\n      jump\t// in\n    tag_25:\n      stop\n        /* \"contracts/storage.sol\":215:237  People[] public people */\n    tag_8:\n      tag_29\n      0x04\n      dup1\n      calldatasize\n      sub\n      dup2\n      add\n      swap1\n      tag_30\n      swap2\n      swap1\n      tag_27\n      jump\t// in\n    tag_30:\n      tag_31\n      jump\t// in\n    tag_29:\n      mload(0x40)\n      tag_32\n      swap4\n      swap3\n      swap2\n      swap1\n      tag_33\n      jump\t// in\n    tag_32:\n      mload(0x40)\n      dup1\n      swap2\n      sub\n      swap1\n      return\n        /* \"contracts/storage.sol\":652:803  function addPerson(string memory Name, uint256 favnos, bool flg)public{... */\n    tag_12:\n        /* \"contracts/storage.sol\":732:738  people */\n      0x01\n        /* \"contracts/storage.sol\":744:767  People(favnos,Name,flg) */\n      mload(0x40)\n      dup1\n      0x60\n      add\n      0x40\n      mstore\n      dup1\n        /* \"contracts/storage.sol\":751:757  favnos */\n      dup5\n        /* \"contracts/storage.sol\":744:767  People(favnos,Name,flg) */\n      dup2\n      mstore\n      0x20\n      add\n        /* \"contracts/storage.sol\":758:762  Name */\n      dup6\n        /* \"contracts/storage.sol\":744:767  People(favnos,Name,flg) */\n      dup2\n      mstore\n      0x20\n      add\n        /* \"contracts/storage.sol\":763:766  flg */\n      dup4\n        /* \"contracts/storage.sol\":744:767  People(favnos,Name,flg) */\n      iszero\n      iszero\n      dup2\n      mstore\n      pop\n        /* \"contracts/storage.sol\":732:768  people.push(People(favnos,Name,flg)) */\n      swap1\n      dup1\n      0x01\n      dup2\n      sload\n      add\n      dup1\n      dup3\n      sstore\n      dup1\n      swap2\n      pop\n      pop\n      0x01\n      swap1\n      sub\n      swap1\n      0x00\n      mstore\n      keccak256(0x00, 0x20)\n      swap1\n      0x03\n      mul\n      add\n      0x00\n      swap1\n      swap2\n      swap1\n      swap2\n      swap1\n      swap2\n      pop\n      0x00\n      dup3\n      add\n      mload\n      dup2\n      0x00\n      add\n      sstore\n      0x20\n      dup3\n      add\n      mload\n      dup2\n      0x01\n      add\n      swap1\n      dup2\n      tag_36\n      swap2\n      swap1\n      tag_37\n      jump\t// in\n    tag_36:\n      pop\n      0x40\n      dup3\n      add\n      mload\n      dup2\n      0x02\n      add\n      exp(0x0100, 0x00)\n      dup2\n      sload\n      dup2\n      0xff\n      mul\n      not\n      and\n      swap1\n      dup4\n      iszero\n      iszero\n      mul\n      or\n      swap1\n      sstore\n      pop\n      pop\n      pop\n        /* \"contracts/storage.sol\":790:796  favnos */\n      dup2\n        /* \"contracts/storage.sol\":778:781  map */\n      0x02\n        /* \"contracts/storage.sol\":782:786  Name */\n      dup5\n        /* \"contracts/storage.sol\":778:787  map[Name] */\n      mload(0x40)\n      tag_38\n      swap2\n      swap1\n      tag_39\n      jump\t// in\n    tag_38:\n      swap1\n      dup2\n      mstore\n      0x20\n      add\n      mload(0x40)\n      dup1\n      swap2\n      sub\n      swap1\n      keccak256\n        /* \"contracts/storage.sol\":778:796  map[Name] = favnos */\n      dup2\n      swap1\n      sstore\n      pop\n        /* \"contracts/storage.sol\":652:803  function addPerson(string memory Name, uint256 favnos, bool flg)public{... */\n      pop\n      pop\n      pop\n      jump\t// out\n        /* \"contracts/storage.sol\":243:278  mapping(string=>uint256) public map */\n    tag_16:\n      0x02\n      dup2\n      dup1\n      mload\n      0x20\n      dup2\n      add\n      dup3\n      add\n      dup1\n      mload\n      dup5\n      dup3\n      mstore\n      0x20\n      dup4\n      add\n      0x20\n      dup6\n      add\n      keccak256\n      dup2\n      dup4\n      mstore\n      dup1\n      swap6\n      pop\n      pop\n      pop\n      pop\n      pop\n      pop\n      0x00\n      swap2\n      pop\n      swap1\n      pop\n      sload\n      dup2\n      jump\t// out\n        /* \"contracts/storage.sol\":382:559  function retrieve() public view returns(uint256){... */\n    tag_20:\n        /* \"contracts/storage.sol\":422:429  uint256 */\n      0x00\n        /* \"contracts/storage.sol\":454:457  100 */\n      0x64\n        /* \"contracts/storage.sol\":447:453  favNum */\n      sload(0x00)\n        /* \"contracts/storage.sol\":447:457  favNum+100 */\n      tag_41\n      swap2\n      swap1\n      tag_42\n      jump\t// in\n    tag_41:\n        /* \"contracts/storage.sol\":440:457  return favNum+100 */\n      swap1\n      pop\n        /* \"contracts/storage.sol\":382:559  function retrieve() public view returns(uint256){... */\n      swap1\n      jump\t// out\n        /* \"contracts/storage.sol\":94:115  uint256 public favNum */\n    tag_23:\n      sload(0x00)\n      dup2\n      jump\t// out\n        /* \"contracts/storage.sol\":284:377  function store(uint256 _fav)public{... */\n    tag_28:\n        /* \"contracts/storage.sol\":337:341  _fav */\n      dup1\n        /* \"contracts/storage.sol\":328:334  favNum */\n      0x00\n        /* \"contracts/storage.sol\":328:341  favNum = _fav */\n      dup2\n      swap1\n      sstore\n      pop\n        /* \"contracts/storage.sol\":284:377  function store(uint256 _fav)public{... */\n      pop\n      jump\t// out\n        /* \"contracts/storage.sol\":215:237  People[] public people */\n    tag_31:\n      0x01\n      dup2\n      dup2\n      sload\n      dup2\n      lt\n      tag_44\n      jumpi\n      0x00\n      dup1\n      revert\n    tag_44:\n      swap1\n      0x00\n      mstore\n      keccak256(0x00, 0x20)\n      swap1\n      0x03\n      mul\n      add\n      0x00\n      swap2\n      pop\n      swap1\n      pop\n      dup1\n      0x00\n      add\n      sload\n      swap1\n      dup1\n      0x01\n      add\n      dup1\n      sload\n      tag_46\n      swap1\n      tag_47\n      jump\t// in\n    tag_46:\n      dup1\n      0x1f\n      add\n      0x20\n      dup1\n      swap2\n      div\n      mul\n      0x20\n      add\n      mload(0x40)\n      swap1\n      dup2\n      add\n      0x40\n      mstore\n      dup1\n      swap3\n      swap2\n      swap1\n      dup2\n      dup2\n      mstore\n      0x20\n      add\n      dup3\n      dup1\n      sload\n      tag_48\n      swap1\n      tag_47\n      jump\t// in\n    tag_48:\n      dup1\n      iszero\n      tag_49\n      jumpi\n      dup1\n      0x1f\n      lt\n      tag_50\n      jumpi\n      0x0100\n      dup1\n      dup4\n      sload\n      div\n      mul\n      dup4\n      mstore\n      swap2\n      0x20\n      add\n      swap2\n      jump(tag_49)\n    tag_50:\n      dup3\n      add\n      swap2\n      swap1\n      0x00\n      mstore\n      keccak256(0x00, 0x20)\n      swap1\n    tag_51:\n      dup2\n      sload\n      dup2\n      mstore\n      swap1\n      0x01\n      add\n      swap1\n      0x20\n      add\n      dup1\n      dup4\n      gt\n      tag_51\n      jumpi\n      dup3\n      swap1\n      sub\n      0x1f\n      and\n      dup3\n      add\n      swap2\n    tag_49:\n      pop\n      pop\n      pop\n      pop\n      pop\n      swap1\n      dup1\n      0x02\n      add\n      0x00\n      swap1\n      sload\n      swap1\n      0x0100\n      exp\n      swap1\n      div\n      0xff\n      and\n      swap1\n      pop\n      dup4\n      jump\t// out\n        /* \"#utility.yul\":7:82   */\n    tag_52:\n        /* \"#utility.yul\":40:46   */\n      0x00\n        /* \"#utility.yul\":73:75   */\n      0x40\n        /* \"#utility.yul\":67:76   */\n      mload\n        /* \"#utility.yul\":57:76   */\n      swap1\n      pop\n        /* \"#utility.yul\":7:82   */\n      swap1\n      jump\t// out\n        /* \"#utility.yul\":88:205   */\n    tag_53:\n        /* \"#utility.yul\":197:198   */\n      0x00\n        /* \"#utility.yul\":194:195   */\n      dup1\n        /* \"#utility.yul\":187:199   */\n      revert\n        /* \"#utility.yul\":211:328   */\n    tag_54:\n        /* \"#utility.yul\":320:321   */\n      0x00\n        /* \"#utility.yul\":317:318   */\n      dup1\n        /* \"#utility.yul\":310:322   */\n      revert\n        /* \"#utility.yul\":334:451   */\n    tag_55:\n        /* \"#utility.yul\":443:444   */\n      0x00\n        /* \"#utility.yul\":440:441   */\n      dup1\n        /* \"#utility.yul\":433:445   */\n      revert\n        /* \"#utility.yul\":457:574   */\n    tag_56:\n        /* \"#utility.yul\":566:567   */\n      0x00\n        /* \"#utility.yul\":563:564   */\n      dup1\n        /* \"#utility.yul\":556:568   */\n      revert\n        /* \"#utility.yul\":580:682   */\n    tag_57:\n        /* \"#utility.yul\":621:627   */\n      0x00\n        /* \"#utility.yul\":672:674   */\n      0x1f\n        /* \"#utility.yul\":668:675   */\n      not\n        /* \"#utility.yul\":663:665   */\n      0x1f\n        /* \"#utility.yul\":656:661   */\n      dup4\n        /* \"#utility.yul\":652:666   */\n      add\n        /* \"#utility.yul\":648:676   */\n      and\n        /* \"#utility.yul\":638:676   */\n      swap1\n      pop\n        /* \"#utility.yul\":580:682   */\n      swap2\n      swap1\n      pop\n      jump\t// out\n        /* \"#utility.yul\":688:868   */\n    tag_58:\n        /* \"#utility.yul\":736:813   */\n      0x4e487b7100000000000000000000000000000000000000000000000000000000\n        /* \"#utility.yul\":733:734   */\n      0x00\n        /* \"#utility.yul\":726:814   */\n      mstore\n        /* \"#utility.yul\":833:837   */\n      0x41\n        /* \"#utility.yul\":830:831   */\n      0x04\n        /* \"#utility.yul\":823:838   */\n      mstore\n        /* \"#utility.yul\":857:861   */\n      0x24\n        /* \"#utility.yul\":854:855   */\n      0x00\n        /* \"#utility.yul\":847:862   */\n      revert\n        /* \"#utility.yul\":874:1155   */\n    tag_59:\n        /* \"#utility.yul\":957:984   */\n      tag_105\n        /* \"#utility.yul\":979:983   */\n      dup3\n        /* \"#utility.yul\":957:984   */\n      tag_57\n      jump\t// in\n    tag_105:\n        /* \"#utility.yul\":949:955   */\n      dup2\n        /* \"#utility.yul\":945:985   */\n      add\n        /* \"#utility.yul\":1087:1093   */\n      dup2\n        /* \"#utility.yul\":1075:1085   */\n      dup2\n        /* \"#utility.yul\":1072:1094   */\n      lt\n        /* \"#utility.yul\":1051:1069   */\n      0xffffffffffffffff\n        /* \"#utility.yul\":1039:1049   */\n      dup3\n        /* \"#utility.yul\":1036:1070   */\n      gt\n        /* \"#utility.yul\":1033:1095   */\n      or\n        /* \"#utility.yul\":1030:1118   */\n      iszero\n      tag_106\n      jumpi\n        /* \"#utility.yul\":1098:1116   */\n      tag_107\n      tag_58\n      jump\t// in\n    tag_107:\n        /* \"#utility.yul\":1030:1118   */\n    tag_106:\n        /* \"#utility.yul\":1138:1148   */\n      dup1\n        /* \"#utility.yul\":1134:1136   */\n      0x40\n        /* \"#utility.yul\":1127:1149   */\n      mstore\n        /* \"#utility.yul\":917:1155   */\n      pop\n        /* \"#utility.yul\":874:1155   */\n      pop\n      pop\n      jump\t// out\n        /* \"#utility.yul\":1161:1290   */\n    tag_60:\n        /* \"#utility.yul\":1195:1201   */\n      0x00\n        /* \"#utility.yul\":1222:1242   */\n      tag_109\n      tag_52\n      jump\t// in\n    tag_109:\n        /* \"#utility.yul\":1212:1242   */\n      swap1\n      pop\n        /* \"#utility.yul\":1251:1284   */\n      tag_110\n        /* \"#utility.yul\":1279:1283   */\n      dup3\n        /* \"#utility.yul\":1271:1277   */\n      dup3\n        /* \"#utility.yul\":1251:1284   */\n      tag_59\n      jump\t// in\n    tag_110:\n        /* \"#utility.yul\":1161:1290   */\n      swap2\n      swap1\n      pop\n      jump\t// out\n        /* \"#utility.yul\":1296:1604   */\n    tag_61:\n        /* \"#utility.yul\":1358:1362   */\n      0x00\n        /* \"#utility.yul\":1448:1466   */\n      0xffffffffffffffff\n        /* \"#utility.yul\":1440:1446   */\n      dup3\n        /* \"#utility.yul\":1437:1467   */\n      gt\n        /* \"#utility.yul\":1434:1490   */\n      iszero\n      tag_112\n      jumpi\n        /* \"#utility.yul\":1470:1488   */\n      tag_113\n      tag_58\n      jump\t// in\n    tag_113:\n        /* \"#utility.yul\":1434:1490   */\n    tag_112:\n        /* \"#utility.yul\":1508:1537   */\n      tag_114\n        /* \"#utility.yul\":1530:1536   */\n      dup3\n        /* \"#utility.yul\":1508:1537   */\n      tag_57\n      jump\t// in\n    tag_114:\n        /* \"#utility.yul\":1500:1537   */\n      swap1\n      pop\n        /* \"#utility.yul\":1592:1596   */\n      0x20\n        /* \"#utility.yul\":1586:1590   */\n      dup2\n        /* \"#utility.yul\":1582:1597   */\n      add\n        /* \"#utility.yul\":1574:1597   */\n      swap1\n      pop\n        /* \"#utility.yul\":1296:1604   */\n      swap2\n      swap1\n      pop\n      jump\t// out\n        /* \"#utility.yul\":1610:1756   */\n    tag_62:\n        /* \"#utility.yul\":1707:1713   */\n      dup3\n        /* \"#utility.yul\":1702:1705   */\n      dup2\n        /* \"#utility.yul\":1697:1700   */\n      dup4\n        /* \"#utility.yul\":1684:1714   */\n      calldatacopy\n        /* \"#utility.yul\":1748:1749   */\n      0x00\n        /* \"#utility.yul\":1739:1745   */\n      dup4\n        /* \"#utility.yul\":1734:1737   */\n      dup4\n        /* \"#utility.yul\":1730:1746   */\n      add\n        /* \"#utility.yul\":1723:1750   */\n      mstore\n        /* \"#utility.yul\":1610:1756   */\n      pop\n      pop\n      pop\n      jump\t// out\n        /* \"#utility.yul\":1762:2187   */\n    tag_63:\n        /* \"#utility.yul\":1840:1845   */\n      0x00\n        /* \"#utility.yul\":1865:1931   */\n      tag_117\n        /* \"#utility.yul\":1881:1930   */\n      tag_118\n        /* \"#utility.yul\":1923:1929   */\n      dup5\n        /* \"#utility.yul\":1881:1930   */\n      tag_61\n      jump\t// in\n    tag_118:\n        /* \"#utility.yul\":1865:1931   */\n      tag_60\n      jump\t// in\n    tag_117:\n        /* \"#utility.yul\":1856:1931   */\n      swap1\n      pop\n        /* \"#utility.yul\":1954:1960   */\n      dup3\n        /* \"#utility.yul\":1947:1952   */\n      dup2\n        /* \"#utility.yul\":1940:1961   */\n      mstore\n        /* \"#utility.yul\":1992:1996   */\n      0x20\n        /* \"#utility.yul\":1985:1990   */\n      dup2\n        /* \"#utility.yul\":1981:1997   */\n      add\n        /* \"#utility.yul\":2030:2033   */\n      dup5\n        /* \"#utility.yul\":2021:2027   */\n      dup5\n        /* \"#utility.yul\":2016:2019   */\n      dup5\n        /* \"#utility.yul\":2012:2028   */\n      add\n        /* \"#utility.yul\":2009:2034   */\n      gt\n        /* \"#utility.yul\":2006:2118   */\n      iszero\n      tag_119\n      jumpi\n        /* \"#utility.yul\":2037:2116   */\n      tag_120\n      tag_56\n      jump\t// in\n    tag_120:\n        /* \"#utility.yul\":2006:2118   */\n    tag_119:\n        /* \"#utility.yul\":2127:2181   */\n      tag_121\n        /* \"#utility.yul\":2174:2180   */\n      dup5\n        /* \"#utility.yul\":2169:2172   */\n      dup3\n        /* \"#utility.yul\":2164:2167   */\n      dup6\n        /* \"#utility.yul\":2127:2181   */\n      tag_62\n      jump\t// in\n    tag_121:\n        /* \"#utility.yul\":1846:2187   */\n      pop\n        /* \"#utility.yul\":1762:2187   */\n      swap4\n      swap3\n      pop\n      pop\n      pop\n      jump\t// out\n        /* \"#utility.yul\":2207:2547   */\n    tag_64:\n        /* \"#utility.yul\":2263:2268   */\n      0x00\n        /* \"#utility.yul\":2312:2315   */\n      dup3\n        /* \"#utility.yul\":2305:2309   */\n      0x1f\n        /* \"#utility.yul\":2297:2303   */\n      dup4\n        /* \"#utility.yul\":2293:2310   */\n      add\n        /* \"#utility.yul\":2289:2316   */\n      slt\n        /* \"#utility.yul\":2279:2401   */\n      tag_123\n      jumpi\n        /* \"#utility.yul\":2320:2399   */\n      tag_124\n      tag_55\n      jump\t// in\n    tag_124:\n        /* \"#utility.yul\":2279:2401   */\n    tag_123:\n        /* \"#utility.yul\":2437:2443   */\n      dup2\n        /* \"#utility.yul\":2424:2444   */\n      calldataload\n        /* \"#utility.yul\":2462:2541   */\n      tag_125\n        /* \"#utility.yul\":2537:2540   */\n      dup5\n        /* \"#utility.yul\":2529:2535   */\n      dup3\n        /* \"#utility.yul\":2522:2526   */\n      0x20\n        /* \"#utility.yul\":2514:2520   */\n      dup7\n        /* \"#utility.yul\":2510:2527   */\n      add\n        /* \"#utility.yul\":2462:2541   */\n      tag_63\n      jump\t// in\n    tag_125:\n        /* \"#utility.yul\":2453:2541   */\n      swap2\n      pop\n        /* \"#utility.yul\":2269:2547   */\n      pop\n        /* \"#utility.yul\":2207:2547   */\n      swap3\n      swap2\n      pop\n      pop\n      jump\t// out\n        /* \"#utility.yul\":2553:2630   */\n    tag_65:\n        /* \"#utility.yul\":2590:2597   */\n      0x00\n        /* \"#utility.yul\":2619:2624   */\n      dup2\n        /* \"#utility.yul\":2608:2624   */\n      swap1\n      pop\n        /* \"#utility.yul\":2553:2630   */\n      swap2\n      swap1\n      pop\n      jump\t// out\n        /* \"#utility.yul\":2636:2758   */\n    tag_66:\n        /* \"#utility.yul\":2709:2733   */\n      tag_128\n        /* \"#utility.yul\":2727:2732   */\n      dup2\n        /* \"#utility.yul\":2709:2733   */\n      tag_65\n      jump\t// in\n    tag_128:\n        /* \"#utility.yul\":2702:2707   */\n      dup2\n        /* \"#utility.yul\":2699:2734   */\n      eq\n        /* \"#utility.yul\":2689:2752   */\n      tag_129\n      jumpi\n        /* \"#utility.yul\":2748:2749   */\n      0x00\n        /* \"#utility.yul\":2745:2746   */\n      dup1\n        /* \"#utility.yul\":2738:2750   */\n      revert\n        /* \"#utility.yul\":2689:2752   */\n    tag_129:\n        /* \"#utility.yul\":2636:2758   */\n      pop\n      jump\t// out\n        /* \"#utility.yul\":2764:2903   */\n    tag_67:\n        /* \"#utility.yul\":2810:2815   */\n      0x00\n        /* \"#utility.yul\":2848:2854   */\n      dup2\n        /* \"#utility.yul\":2835:2855   */\n      calldataload\n        /* \"#utility.yul\":2826:2855   */\n      swap1\n      pop\n        /* \"#utility.yul\":2864:2897   */\n      tag_131\n        /* \"#utility.yul\":2891:2896   */\n      dup2\n        /* \"#utility.yul\":2864:2897   */\n      tag_66\n      jump\t// in\n    tag_131:\n        /* \"#utility.yul\":2764:2903   */\n      swap3\n      swap2\n      pop\n      pop\n      jump\t// out\n        /* \"#utility.yul\":2909:2999   */\n    tag_68:\n        /* \"#utility.yul\":2943:2950   */\n      0x00\n        /* \"#utility.yul\":2986:2991   */\n      dup2\n        /* \"#utility.yul\":2979:2992   */\n      iszero\n        /* \"#utility.yul\":2972:2993   */\n      iszero\n        /* \"#utility.yul\":2961:2993   */\n      swap1\n      pop\n        /* \"#utility.yul\":2909:2999   */\n      swap2\n      swap1\n      pop\n      jump\t// out\n        /* \"#utility.yul\":3005:3121   */\n    tag_69:\n        /* \"#utility.yul\":3075:3096   */\n      tag_134\n        /* \"#utility.yul\":3090:3095   */\n      dup2\n        /* \"#utility.yul\":3075:3096   */\n      tag_68\n      jump\t// in\n    tag_134:\n        /* \"#utility.yul\":3068:3073   */\n      dup2\n        /* \"#utility.yul\":3065:3097   */\n      eq\n        /* \"#utility.yul\":3055:3115   */\n      tag_135\n      jumpi\n        /* \"#utility.yul\":3111:3112   */\n      0x00\n        /* \"#utility.yul\":3108:3109   */\n      dup1\n        /* \"#utility.yul\":3101:3113   */\n      revert\n        /* \"#utility.yul\":3055:3115   */\n    tag_135:\n        /* \"#utility.yul\":3005:3121   */\n      pop\n      jump\t// out\n        /* \"#utility.yul\":3127:3260   */\n    tag_70:\n        /* \"#utility.yul\":3170:3175   */\n      0x00\n        /* \"#utility.yul\":3208:3214   */\n      dup2\n        /* \"#utility.yul\":3195:3215   */\n      calldataload\n        /* \"#utility.yul\":3186:3215   */\n      swap1\n      pop\n        /* \"#utility.yul\":3224:3254   */\n      tag_137\n        /* \"#utility.yul\":3248:3253   */\n      dup2\n        /* \"#utility.yul\":3224:3254   */\n      tag_69\n      jump\t// in\n    tag_137:\n        /* \"#utility.yul\":3127:3260   */\n      swap3\n      swap2\n      pop\n      pop\n      jump\t// out\n        /* \"#utility.yul\":3266:4059   */\n    tag_11:\n        /* \"#utility.yul\":3350:3356   */\n      0x00\n        /* \"#utility.yul\":3358:3364   */\n      dup1\n        /* \"#utility.yul\":3366:3372   */\n      0x00\n        /* \"#utility.yul\":3415:3417   */\n      0x60\n        /* \"#utility.yul\":3403:3412   */\n      dup5\n        /* \"#utility.yul\":3394:3401   */\n      dup7\n        /* \"#utility.yul\":3390:3413   */\n      sub\n        /* \"#utility.yul\":3386:3418   */\n      slt\n        /* \"#utility.yul\":3383:3502   */\n      iszero\n      tag_139\n      jumpi\n        /* \"#utility.yul\":3421:3500   */\n      tag_140\n      tag_53\n      jump\t// in\n    tag_140:\n        /* \"#utility.yul\":3383:3502   */\n    tag_139:\n        /* \"#utility.yul\":3569:3570   */\n      0x00\n        /* \"#utility.yul\":3558:3567   */\n      dup5\n        /* \"#utility.yul\":3554:3571   */\n      add\n        /* \"#utility.yul\":3541:3572   */\n      calldataload\n        /* \"#utility.yul\":3599:3617   */\n      0xffffffffffffffff\n        /* \"#utility.yul\":3591:3597   */\n      dup2\n        /* \"#utility.yul\":3588:3618   */\n      gt\n        /* \"#utility.yul\":3585:3702   */\n      iszero\n      tag_141\n      jumpi\n        /* \"#utility.yul\":3621:3700   */\n      tag_142\n      tag_54\n      jump\t// in\n    tag_142:\n        /* \"#utility.yul\":3585:3702   */\n    tag_141:\n        /* \"#utility.yul\":3726:3789   */\n      tag_143\n        /* \"#utility.yul\":3781:3788   */\n      dup7\n        /* \"#utility.yul\":3772:3778   */\n      dup3\n        /* \"#utility.yul\":3761:3770   */\n      dup8\n        /* \"#utility.yul\":3757:3779   */\n      add\n        /* \"#utility.yul\":3726:3789   */\n      tag_64\n      jump\t// in\n    tag_143:\n        /* \"#utility.yul\":3716:3789   */\n      swap4\n      pop\n        /* \"#utility.yul\":3512:3799   */\n      pop\n        /* \"#utility.yul\":3838:3840   */\n      0x20\n        /* \"#utility.yul\":3864:3917   */\n      tag_144\n        /* \"#utility.yul\":3909:3916   */\n      dup7\n        /* \"#utility.yul\":3900:3906   */\n      dup3\n        /* \"#utility.yul\":3889:3898   */\n      dup8\n        /* \"#utility.yul\":3885:3907   */\n      add\n        /* \"#utility.yul\":3864:3917   */\n      tag_67\n      jump\t// in\n    tag_144:\n        /* \"#utility.yul\":3854:3917   */\n      swap3\n      pop\n        /* \"#utility.yul\":3809:3927   */\n      pop\n        /* \"#utility.yul\":3966:3968   */\n      0x40\n        /* \"#utility.yul\":3992:4042   */\n      tag_145\n        /* \"#utility.yul\":4034:4041   */\n      dup7\n        /* \"#utility.yul\":4025:4031   */\n      dup3\n        /* \"#utility.yul\":4014:4023   */\n      dup8\n        /* \"#utility.yul\":4010:4032   */\n      add\n        /* \"#utility.yul\":3992:4042   */\n      tag_70\n      jump\t// in\n    tag_145:\n        /* \"#utility.yul\":3982:4042   */\n      swap2\n      pop\n        /* \"#utility.yul\":3937:4052   */\n      pop\n        /* \"#utility.yul\":3266:4059   */\n      swap3\n      pop\n      swap3\n      pop\n      swap3\n      jump\t// out\n        /* \"#utility.yul\":4065:4574   */\n    tag_15:\n        /* \"#utility.yul\":4134:4140   */\n      0x00\n        /* \"#utility.yul\":4183:4185   */\n      0x20\n        /* \"#utility.yul\":4171:4180   */\n      dup3\n        /* \"#utility.yul\":4162:4169   */\n      dup5\n        /* \"#utility.yul\":4158:4181   */\n      sub\n        /* \"#utility.yul\":4154:4186   */\n      slt\n        /* \"#utility.yul\":4151:4270   */\n      iszero\n      tag_147\n      jumpi\n        /* \"#utility.yul\":4189:4268   */\n      tag_148\n      tag_53\n      jump\t// in\n    tag_148:\n        /* \"#utility.yul\":4151:4270   */\n    tag_147:\n        /* \"#utility.yul\":4337:4338   */\n      0x00\n        /* \"#utility.yul\":4326:4335   */\n      dup3\n        /* \"#utility.yul\":4322:4339   */\n      add\n        /* \"#utility.yul\":4309:4340   */\n      calldataload\n        /* \"#utility.yul\":4367:4385   */\n      0xffffffffffffffff\n        /* \"#utility.yul\":4359:4365   */\n      dup2\n        /* \"#utility.yul\":4356:4386   */\n      gt\n        /* \"#utility.yul\":4353:4470   */\n      iszero\n      tag_149\n      jumpi\n        /* \"#utility.yul\":4389:4468   */\n      tag_150\n      tag_54\n      jump\t// in\n    tag_150:\n        /* \"#utility.yul\":4353:4470   */\n    tag_149:\n        /* \"#utility.yul\":4494:4557   */\n      tag_151\n        /* \"#utility.yul\":4549:4556   */\n      dup5\n        /* \"#utility.yul\":4540:4546   */\n      dup3\n        /* \"#utility.yul\":4529:4538   */\n      dup6\n        /* \"#utility.yul\":4525:4547   */\n      add\n        /* \"#utility.yul\":4494:4557   */\n      tag_64\n      jump\t// in\n    tag_151:\n        /* \"#utility.yul\":4484:4557   */\n      swap2\n      pop\n        /* \"#utility.yul\":4280:4567   */\n      pop\n        /* \"#utility.yul\":4065:4574   */\n      swap3\n      swap2\n      pop\n      pop\n      jump\t// out\n        /* \"#utility.yul\":4580:4698   */\n    tag_71:\n        /* \"#utility.yul\":4667:4691   */\n      tag_153\n        /* \"#utility.yul\":4685:4690   */\n      dup2\n        /* \"#utility.yul\":4667:4691   */\n      tag_65\n      jump\t// in\n    tag_153:\n        /* \"#utility.yul\":4662:4665   */\n      dup3\n        /* \"#utility.yul\":4655:4692   */\n      mstore\n        /* \"#utility.yul\":4580:4698   */\n      pop\n      pop\n      jump\t// out\n        /* \"#utility.yul\":4704:4926   */\n    tag_18:\n        /* \"#utility.yul\":4797:4801   */\n      0x00\n        /* \"#utility.yul\":4835:4837   */\n      0x20\n        /* \"#utility.yul\":4824:4833   */\n      dup3\n        /* \"#utility.yul\":4820:4838   */\n      add\n        /* \"#utility.yul\":4812:4838   */\n      swap1\n      pop\n        /* \"#utility.yul\":4848:4919   */\n      tag_155\n        /* \"#utility.yul\":4916:4917   */\n      0x00\n        /* \"#utility.yul\":4905:4914   */\n      dup4\n        /* \"#utility.yul\":4901:4918   */\n      add\n        /* \"#utility.yul\":4892:4898   */\n      dup5\n        /* \"#utility.yul\":4848:4919   */\n      tag_71\n      jump\t// in\n    tag_155:\n        /* \"#utility.yul\":4704:4926   */\n      swap3\n      swap2\n      pop\n      pop\n      jump\t// out\n        /* \"#utility.yul\":4932:5261   */\n    tag_27:\n        /* \"#utility.yul\":4991:4997   */\n      0x00\n        /* \"#utility.yul\":5040:5042   */\n      0x20\n        /* \"#utility.yul\":5028:5037   */\n      dup3\n        /* \"#utility.yul\":5019:5026   */\n      dup5\n        /* \"#utility.yul\":5015:5038   */\n      sub\n        /* \"#utility.yul\":5011:5043   */\n      slt\n        /* \"#utility.yul\":5008:5127   */\n      iszero\n      tag_157\n      jumpi\n        /* \"#utility.yul\":5046:5125   */\n      tag_158\n      tag_53\n      jump\t// in\n    tag_158:\n        /* \"#utility.yul\":5008:5127   */\n    tag_157:\n        /* \"#utility.yul\":5166:5167   */\n      0x00\n        /* \"#utility.yul\":5191:5244   */\n      tag_159\n        /* \"#utility.yul\":5236:5243   */\n      dup5\n        /* \"#utility.yul\":5227:5233   */\n      dup3\n        /* \"#utility.yul\":5216:5225   */\n      dup6\n        /* \"#utility.yul\":5212:5234   */\n      add\n        /* \"#utility.yul\":5191:5244   */\n      tag_67\n      jump\t// in\n    tag_159:\n        /* \"#utility.yul\":5181:5244   */\n      swap2\n      pop\n        /* \"#utility.yul\":5137:5254   */\n      pop\n        /* \"#utility.yul\":4932:5261   */\n      swap3\n      swap2\n      pop\n      pop\n      jump\t// out\n        /* \"#utility.yul\":5267:5366   */\n    tag_72:\n        /* \"#utility.yul\":5319:5325   */\n      0x00\n        /* \"#utility.yul\":5353:5358   */\n      dup2\n        /* \"#utility.yul\":5347:5359   */\n      mload\n        /* \"#utility.yul\":5337:5359   */\n      swap1\n      pop\n        /* \"#utility.yul\":5267:5366   */\n      swap2\n      swap1\n      pop\n      jump\t// out\n        /* \"#utility.yul\":5372:5541   */\n    tag_73:\n        /* \"#utility.yul\":5456:5467   */\n      0x00\n        /* \"#utility.yul\":5490:5496   */\n      dup3\n        /* \"#utility.yul\":5485:5488   */\n      dup3\n        /* \"#utility.yul\":5478:5497   */\n      mstore\n        /* \"#utility.yul\":5530:5534   */\n      0x20\n        /* \"#utility.yul\":5525:5528   */\n      dup3\n        /* \"#utility.yul\":5521:5535   */\n      add\n        /* \"#utility.yul\":5506:5535   */\n      swap1\n      pop\n        /* \"#utility.yul\":5372:5541   */\n      swap3\n      swap2\n      pop\n      pop\n      jump\t// out\n        /* \"#utility.yul\":5547:5793   */\n    tag_74:\n        /* \"#utility.yul\":5628:5629   */\n      0x00\n        /* \"#utility.yul\":5638:5751   */\n    tag_163:\n        /* \"#utility.yul\":5652:5658   */\n      dup4\n        /* \"#utility.yul\":5649:5650   */\n      dup2\n        /* \"#utility.yul\":5646:5659   */\n      lt\n        /* \"#utility.yul\":5638:5751   */\n      iszero\n      tag_165\n      jumpi\n        /* \"#utility.yul\":5737:5738   */\n      dup1\n        /* \"#utility.yul\":5732:5735   */\n      dup3\n        /* \"#utility.yul\":5728:5739   */\n      add\n        /* \"#utility.yul\":5722:5740   */\n      mload\n        /* \"#utility.yul\":5718:5719   */\n      dup2\n        /* \"#utility.yul\":5713:5716   */\n      dup5\n        /* \"#utility.yul\":5709:5720   */\n      add\n        /* \"#utility.yul\":5702:5741   */\n      mstore\n        /* \"#utility.yul\":5674:5676   */\n      0x20\n        /* \"#utility.yul\":5671:5672   */\n      dup2\n        /* \"#utility.yul\":5667:5677   */\n      add\n        /* \"#utility.yul\":5662:5677   */\n      swap1\n      pop\n        /* \"#utility.yul\":5638:5751   */\n      jump(tag_163)\n    tag_165:\n        /* \"#utility.yul\":5785:5786   */\n      0x00\n        /* \"#utility.yul\":5776:5782   */\n      dup5\n        /* \"#utility.yul\":5771:5774   */\n      dup5\n        /* \"#utility.yul\":5767:5783   */\n      add\n        /* \"#utility.yul\":5760:5787   */\n      mstore\n        /* \"#utility.yul\":5609:5793   */\n      pop\n        /* \"#utility.yul\":5547:5793   */\n      pop\n      pop\n      pop\n      jump\t// out\n        /* \"#utility.yul\":5799:6176   */\n    tag_75:\n        /* \"#utility.yul\":5887:5890   */\n      0x00\n        /* \"#utility.yul\":5915:5954   */\n      tag_167\n        /* \"#utility.yul\":5948:5953   */\n      dup3\n        /* \"#utility.yul\":5915:5954   */\n      tag_72\n      jump\t// in\n    tag_167:\n        /* \"#utility.yul\":5970:6041   */\n      tag_168\n        /* \"#utility.yul\":6034:6040   */\n      dup2\n        /* \"#utility.yul\":6029:6032   */\n      dup6\n        /* \"#utility.yul\":5970:6041   */\n      tag_73\n      jump\t// in\n    tag_168:\n        /* \"#utility.yul\":5963:6041   */\n      swap4\n      pop\n        /* \"#utility.yul\":6050:6115   */\n      tag_169\n        /* \"#utility.yul\":6108:6114   */\n      dup2\n        /* \"#utility.yul\":6103:6106   */\n      dup6\n        /* \"#utility.yul\":6096:6100   */\n      0x20\n        /* \"#utility.yul\":6089:6094   */\n      dup7\n        /* \"#utility.yul\":6085:6101   */\n      add\n        /* \"#utility.yul\":6050:6115   */\n      tag_74\n      jump\t// in\n    tag_169:\n        /* \"#utility.yul\":6140:6169   */\n      tag_170\n        /* \"#utility.yul\":6162:6168   */\n      dup2\n        /* \"#utility.yul\":6140:6169   */\n      tag_57\n      jump\t// in\n    tag_170:\n        /* \"#utility.yul\":6135:6138   */\n      dup5\n        /* \"#utility.yul\":6131:6170   */\n      add\n        /* \"#utility.yul\":6124:6170   */\n      swap2\n      pop\n        /* \"#utility.yul\":5891:6176   */\n      pop\n        /* \"#utility.yul\":5799:6176   */\n      swap3\n      swap2\n      pop\n      pop\n      jump\t// out\n        /* \"#utility.yul\":6182:6291   */\n    tag_76:\n        /* \"#utility.yul\":6263:6284   */\n      tag_172\n        /* \"#utility.yul\":6278:6283   */\n      dup2\n        /* \"#utility.yul\":6263:6284   */\n      tag_68\n      jump\t// in\n    tag_172:\n        /* \"#utility.yul\":6258:6261   */\n      dup3\n        /* \"#utility.yul\":6251:6285   */\n      mstore\n        /* \"#utility.yul\":6182:6291   */\n      pop\n      pop\n      jump\t// out\n        /* \"#utility.yul\":6297:6818   */\n    tag_33:\n        /* \"#utility.yul\":6460:6464   */\n      0x00\n        /* \"#utility.yul\":6498:6500   */\n      0x60\n        /* \"#utility.yul\":6487:6496   */\n      dup3\n        /* \"#utility.yul\":6483:6501   */\n      add\n        /* \"#utility.yul\":6475:6501   */\n      swap1\n      pop\n        /* \"#utility.yul\":6511:6582   */\n      tag_174\n        /* \"#utility.yul\":6579:6580   */\n      0x00\n        /* \"#utility.yul\":6568:6577   */\n      dup4\n        /* \"#utility.yul\":6564:6581   */\n      add\n        /* \"#utility.yul\":6555:6561   */\n      dup7\n        /* \"#utility.yul\":6511:6582   */\n      tag_71\n      jump\t// in\n    tag_174:\n        /* \"#utility.yul\":6629:6638   */\n      dup2\n        /* \"#utility.yul\":6623:6627   */\n      dup2\n        /* \"#utility.yul\":6619:6639   */\n      sub\n        /* \"#utility.yul\":6614:6616   */\n      0x20\n        /* \"#utility.yul\":6603:6612   */\n      dup4\n        /* \"#utility.yul\":6599:6617   */\n      add\n        /* \"#utility.yul\":6592:6640   */\n      mstore\n        /* \"#utility.yul\":6657:6735   */\n      tag_175\n        /* \"#utility.yul\":6730:6734   */\n      dup2\n        /* \"#utility.yul\":6721:6727   */\n      dup6\n        /* \"#utility.yul\":6657:6735   */\n      tag_75\n      jump\t// in\n    tag_175:\n        /* \"#utility.yul\":6649:6735   */\n      swap1\n      pop\n        /* \"#utility.yul\":6745:6811   */\n      tag_176\n        /* \"#utility.yul\":6807:6809   */\n      0x40\n        /* \"#utility.yul\":6796:6805   */\n      dup4\n        /* \"#utility.yul\":6792:6810   */\n      add\n        /* \"#utility.yul\":6783:6789   */\n      dup5\n        /* \"#utility.yul\":6745:6811   */\n      tag_76\n      jump\t// in\n    tag_176:\n        /* \"#utility.yul\":6297:6818   */\n      swap5\n      swap4\n      pop\n      pop\n      pop\n      pop\n      jump\t// out\n        /* \"#utility.yul\":6824:7004   */\n    tag_77:\n        /* \"#utility.yul\":6872:6949   */\n      0x4e487b7100000000000000000000000000000000000000000000000000000000\n        /* \"#utility.yul\":6869:6870   */\n      0x00\n        /* \"#utility.yul\":6862:6950   */\n      mstore\n        /* \"#utility.yul\":6969:6973   */\n      0x22\n        /* \"#utility.yul\":6966:6967   */\n      0x04\n        /* \"#utility.yul\":6959:6974   */\n      mstore\n        /* \"#utility.yul\":6993:6997   */\n      0x24\n        /* \"#utility.yul\":6990:6991   */\n      0x00\n        /* \"#utility.yul\":6983:6998   */\n      revert\n        /* \"#utility.yul\":7010:7330   */\n    tag_47:\n        /* \"#utility.yul\":7054:7060   */\n      0x00\n        /* \"#utility.yul\":7091:7092   */\n      0x02\n        /* \"#utility.yul\":7085:7089   */\n      dup3\n        /* \"#utility.yul\":7081:7093   */\n      div\n        /* \"#utility.yul\":7071:7093   */\n      swap1\n      pop\n        /* \"#utility.yul\":7138:7139   */\n      0x01\n        /* \"#utility.yul\":7132:7136   */\n      dup3\n        /* \"#utility.yul\":7128:7140   */\n      and\n        /* \"#utility.yul\":7159:7177   */\n      dup1\n        /* \"#utility.yul\":7149:7230   */\n      tag_179\n      jumpi\n        /* \"#utility.yul\":7215:7219   */\n      0x7f\n        /* \"#utility.yul\":7207:7213   */\n      dup3\n        /* \"#utility.yul\":7203:7220   */\n      and\n        /* \"#utility.yul\":7193:7220   */\n      swap2\n      pop\n        /* \"#utility.yul\":7149:7230   */\n    tag_179:\n        /* \"#utility.yul\":7277:7279   */\n      0x20\n        /* \"#utility.yul\":7269:7275   */\n      dup3\n        /* \"#utility.yul\":7266:7280   */\n      lt\n        /* \"#utility.yul\":7246:7264   */\n      dup2\n        /* \"#utility.yul\":7243:7281   */\n      sub\n        /* \"#utility.yul\":7240:7324   */\n      tag_180\n      jumpi\n        /* \"#utility.yul\":7296:7314   */\n      tag_181\n      tag_77\n      jump\t// in\n    tag_181:\n        /* \"#utility.yul\":7240:7324   */\n    tag_180:\n        /* \"#utility.yul\":7061:7330   */\n      pop\n        /* \"#utility.yul\":7010:7330   */\n      swap2\n      swap1\n      pop\n      jump\t// out\n        /* \"#utility.yul\":7336:7477   */\n    tag_78:\n        /* \"#utility.yul\":7385:7389   */\n      0x00\n        /* \"#utility.yul\":7408:7411   */\n      dup2\n        /* \"#utility.yul\":7400:7411   */\n      swap1\n      pop\n        /* \"#utility.yul\":7431:7434   */\n      dup2\n        /* \"#utility.yul\":7428:7429   */\n      0x00\n        /* \"#utility.yul\":7421:7435   */\n      mstore\n        /* \"#utility.yul\":7465:7469   */\n      0x20\n        /* \"#utility.yul\":7462:7463   */\n      0x00\n        /* \"#utility.yul\":7452:7470   */\n      keccak256\n        /* \"#utility.yul\":7444:7470   */\n      swap1\n      pop\n        /* \"#utility.yul\":7336:7477   */\n      swap2\n      swap1\n      pop\n      jump\t// out\n        /* \"#utility.yul\":7483:7576   */\n    tag_79:\n        /* \"#utility.yul\":7520:7526   */\n      0x00\n        /* \"#utility.yul\":7567:7569   */\n      0x20\n        /* \"#utility.yul\":7562:7564   */\n      0x1f\n        /* \"#utility.yul\":7555:7560   */\n      dup4\n        /* \"#utility.yul\":7551:7565   */\n      add\n        /* \"#utility.yul\":7547:7570   */\n      div\n        /* \"#utility.yul\":7537:7570   */\n      swap1\n      pop\n        /* \"#utility.yul\":7483:7576   */\n      swap2\n      swap1\n      pop\n      jump\t// out\n        /* \"#utility.yul\":7582:7689   */\n    tag_80:\n        /* \"#utility.yul\":7626:7634   */\n      0x00\n        /* \"#utility.yul\":7676:7681   */\n      dup3\n        /* \"#utility.yul\":7670:7674   */\n      dup3\n        /* \"#utility.yul\":7666:7682   */\n      shl\n        /* \"#utility.yul\":7645:7682   */\n      swap1\n      pop\n        /* \"#utility.yul\":7582:7689   */\n      swap3\n      swap2\n      pop\n      pop\n      jump\t// out\n        /* \"#utility.yul\":7695:8088   */\n    tag_81:\n        /* \"#utility.yul\":7764:7770   */\n      0x00\n        /* \"#utility.yul\":7814:7815   */\n      0x08\n        /* \"#utility.yul\":7802:7812   */\n      dup4\n        /* \"#utility.yul\":7798:7816   */\n      mul\n        /* \"#utility.yul\":7837:7934   */\n      tag_186\n        /* \"#utility.yul\":7867:7933   */\n      0xffffffffffffffffffffffffffffffffffffffffffffffffffffffffffffffff\n        /* \"#utility.yul\":7856:7865   */\n      dup3\n        /* \"#utility.yul\":7837:7934   */\n      tag_80\n      jump\t// in\n    tag_186:\n        /* \"#utility.yul\":7955:7994   */\n      tag_187\n        /* \"#utility.yul\":7985:7993   */\n      dup7\n        /* \"#utility.yul\":7974:7983   */\n      dup4\n        /* \"#utility.yul\":7955:7994   */\n      tag_80\n      jump\t// in\n    tag_187:\n        /* \"#utility.yul\":7943:7994   */\n      swap6\n      pop\n        /* \"#utility.yul\":8027:8031   */\n      dup1\n        /* \"#utility.yul\":8023:8032   */\n      not\n        /* \"#utility.yul\":8016:8021   */\n      dup5\n        /* \"#utility.yul\":8012:8033   */\n      and\n        /* \"#utility.yul\":8003:8033   */\n      swap4\n      pop\n        /* \"#utility.yul\":8076:8080   */\n      dup1\n        /* \"#utility.yul\":8066:8074   */\n      dup7\n        /* \"#utility.yul\":8062:8081   */\n      and\n        /* \"#utility.yul\":8055:8060   */\n      dup5\n        /* \"#utility.yul\":8052:8082   */\n      or\n        /* \"#utility.yul\":8042:8082   */\n      swap3\n      pop\n        /* \"#utility.yul\":7771:8088   */\n      pop\n      pop\n        /* \"#utility.yul\":7695:8088   */\n      swap4\n      swap3\n      pop\n      pop\n      pop\n      jump\t// out\n        /* \"#utility.yul\":8094:8154   */\n    tag_82:\n        /* \"#utility.yul\":8122:8125   */\n      0x00\n        /* \"#utility.yul\":8143:8148   */\n      dup2\n        /* \"#utility.yul\":8136:8148   */\n      swap1\n      pop\n        /* \"#utility.yul\":8094:8154   */\n      swap2\n      swap1\n      pop\n      jump\t// out\n        /* \"#utility.yul\":8160:8302   */\n    tag_83:\n        /* \"#utility.yul\":8210:8219   */\n      0x00\n        /* \"#utility.yul\":8243:8296   */\n      tag_190\n        /* \"#utility.yul\":8261:8295   */\n      tag_191\n        /* \"#utility.yul\":8270:8294   */\n      tag_192\n        /* \"#utility.yul\":8288:8293   */\n      dup5\n        /* \"#utility.yul\":8270:8294   */\n      tag_65\n      jump\t// in\n    tag_192:\n        /* \"#utility.yul\":8261:8295   */\n      tag_82\n      jump\t// in\n    tag_191:\n        /* \"#utility.yul\":8243:8296   */\n      tag_65\n      jump\t// in\n    tag_190:\n        /* \"#utility.yul\":8230:8296   */\n      swap1\n      pop\n        /* \"#utility.yul\":8160:8302   */\n      swap2\n      swap1\n      pop\n      jump\t// out\n        /* \"#utility.yul\":8308:8383   */\n    tag_84:\n        /* \"#utility.yul\":8351:8354   */\n      0x00\n        /* \"#utility.yul\":8372:8377   */\n      dup2\n        /* \"#utility.yul\":8365:8377   */\n      swap1\n      pop\n        /* \"#utility.yul\":8308:8383   */\n      swap2\n      swap1\n      pop\n      jump\t// out\n        /* \"#utility.yul\":8389:8658   */\n    tag_85:\n        /* \"#utility.yul\":8499:8538   */\n      tag_195\n        /* \"#utility.yul\":8530:8537   */\n      dup4\n        /* \"#utility.yul\":8499:8538   */\n      tag_83\n      jump\t// in\n    tag_195:\n        /* \"#utility.yul\":8560:8651   */\n      tag_196\n        /* \"#utility.yul\":8609:8650   */\n      tag_197\n        /* \"#utility.yul\":8633:8649   */\n      dup3\n        /* \"#utility.yul\":8609:8650   */\n      tag_84\n      jump\t// in\n    tag_197:\n        /* \"#utility.yul\":8601:8607   */\n      dup5\n        /* \"#utility.yul\":8594:8598   */\n      dup5\n        /* \"#utility.yul\":8588:8599   */\n      sload\n        /* \"#utility.yul\":8560:8651   */\n      tag_81\n      jump\t// in\n    tag_196:\n        /* \"#utility.yul\":8554:8558   */\n      dup3\n        /* \"#utility.yul\":8547:8652   */\n      sstore\n        /* \"#utility.yul\":8465:8658   */\n      pop\n        /* \"#utility.yul\":8389:8658   */\n      pop\n      pop\n      pop\n      jump\t// out\n        /* \"#utility.yul\":8664:8737   */\n    tag_86:\n        /* \"#utility.yul\":8709:8712   */\n      0x00\n        /* \"#utility.yul\":8664:8737   */\n      swap1\n      jump\t// out\n        /* \"#utility.yul\":8743:8932   */\n    tag_87:\n        /* \"#utility.yul\":8820:8852   */\n      tag_200\n      tag_86\n      jump\t// in\n    tag_200:\n        /* \"#utility.yul\":8861:8926   */\n      tag_201\n        /* \"#utility.yul\":8919:8925   */\n      dup2\n        /* \"#utility.yul\":8911:8917   */\n      dup5\n        /* \"#utility.yul\":8905:8909   */\n      dup5\n        /* \"#utility.yul\":8861:8926   */\n      tag_85\n      jump\t// in\n    tag_201:\n        /* \"#utility.yul\":8796:8932   */\n      pop\n        /* \"#utility.yul\":8743:8932   */\n      pop\n      pop\n      jump\t// out\n        /* \"#utility.yul\":8938:9124   */\n    tag_88:\n        /* \"#utility.yul\":8998:9118   */\n    tag_203:\n        /* \"#utility.yul\":9015:9018   */\n      dup2\n        /* \"#utility.yul\":9008:9013   */\n      dup2\n        /* \"#utility.yul\":9005:9019   */\n      lt\n        /* \"#utility.yul\":8998:9118   */\n      iszero\n      tag_205\n      jumpi\n        /* \"#utility.yul\":9069:9108   */\n      tag_206\n        /* \"#utility.yul\":9106:9107   */\n      0x00\n        /* \"#utility.yul\":9099:9104   */\n      dup3\n        /* \"#utility.yul\":9069:9108   */\n      tag_87\n      jump\t// in\n    tag_206:\n        /* \"#utility.yul\":9042:9043   */\n      0x01\n        /* \"#utility.yul\":9035:9040   */\n      dup2\n        /* \"#utility.yul\":9031:9044   */\n      add\n        /* \"#utility.yul\":9022:9044   */\n      swap1\n      pop\n        /* \"#utility.yul\":8998:9118   */\n      jump(tag_203)\n    tag_205:\n        /* \"#utility.yul\":8938:9124   */\n      pop\n      pop\n      jump\t// out\n        /* \"#utility.yul\":9130:9673   */\n    tag_89:\n        /* \"#utility.yul\":9231:9233   */\n      0x1f\n        /* \"#utility.yul\":9226:9229   */\n      dup3\n        /* \"#utility.yul\":9223:9234   */\n      gt\n        /* \"#utility.yul\":9220:9666   */\n      iszero\n      tag_208\n      jumpi\n        /* \"#utility.yul\":9265:9303   */\n      tag_209\n        /* \"#utility.yul\":9297:9302   */\n      dup2\n        /* \"#utility.yul\":9265:9303   */\n      tag_78\n      jump\t// in\n    tag_209:\n        /* \"#utility.yul\":9349:9378   */\n      tag_210\n        /* \"#utility.yul\":9367:9377   */\n      dup5\n        /* \"#utility.yul\":9349:9378   */\n      tag_79\n      jump\t// in\n    tag_210:\n        /* \"#utility.yul\":9339:9347   */\n      dup2\n        /* \"#utility.yul\":9335:9379   */\n      add\n        /* \"#utility.yul\":9532:9534   */\n      0x20\n        /* \"#utility.yul\":9520:9530   */\n      dup6\n        /* \"#utility.yul\":9517:9535   */\n      lt\n        /* \"#utility.yul\":9514:9563   */\n      iszero\n      tag_211\n      jumpi\n        /* \"#utility.yul\":9553:9561   */\n      dup2\n        /* \"#utility.yul\":9538:9561   */\n      swap1\n      pop\n        /* \"#utility.yul\":9514:9563   */\n    tag_211:\n        /* \"#utility.yul\":9576:9656   */\n      tag_212\n        /* \"#utility.yul\":9632:9654   */\n      tag_213\n        /* \"#utility.yul\":9650:9653   */\n      dup6\n        /* \"#utility.yul\":9632:9654   */\n      tag_79\n      jump\t// in\n    tag_213:\n        /* \"#utility.yul\":9622:9630   */\n      dup4\n        /* \"#utility.yul\":9618:9655   */\n      add\n        /* \"#utility.yul\":9605:9616   */\n      dup3\n        /* \"#utility.yul\":9576:9656   */\n      tag_88\n      jump\t// in\n    tag_212:\n        /* \"#utility.yul\":9235:9666   */\n      pop\n      pop\n        /* \"#utility.yul\":9220:9666   */\n    tag_208:\n        /* \"#utility.yul\":9130:9673   */\n      pop\n      pop\n      pop\n      jump\t// out\n        /* \"#utility.yul\":9679:9796   */\n    tag_90:\n        /* \"#utility.yul\":9733:9741   */\n      0x00\n        /* \"#utility.yul\":9783:9788   */\n      dup3\n        /* \"#utility.yul\":9777:9781   */\n      dup3\n        /* \"#utility.yul\":9773:9789   */\n      shr\n        /* \"#utility.yul\":9752:9789   */\n      swap1\n      pop\n        /* \"#utility.yul\":9679:9796   */\n      swap3\n      swap2\n      pop\n      pop\n      jump\t// out\n        /* \"#utility.yul\":9802:9971   */\n    tag_91:\n        /* \"#utility.yul\":9846:9852   */\n      0x00\n        /* \"#utility.yul\":9879:9930   */\n      tag_216\n        /* \"#utility.yul\":9927:9928   */\n      0x00\n        /* \"#utility.yul\":9923:9929   */\n      not\n        /* \"#utility.yul\":9915:9920   */\n      dup5\n        /* \"#utility.yul\":9912:9913   */\n      0x08\n        /* \"#utility.yul\":9908:9921   */\n      mul\n        /* \"#utility.yul\":9879:9930   */\n      tag_90\n      jump\t// in\n    tag_216:\n        /* \"#utility.yul\":9875:9931   */\n      not\n        /* \"#utility.yul\":9960:9964   */\n      dup1\n        /* \"#utility.yul\":9954:9958   */\n      dup4\n        /* \"#utility.yul\":9950:9965   */\n      and\n        /* \"#utility.yul\":9940:9965   */\n      swap2\n      pop\n        /* \"#utility.yul\":9853:9971   */\n      pop\n        /* \"#utility.yul\":9802:9971   */\n      swap3\n      swap2\n      pop\n      pop\n      jump\t// out\n        /* \"#utility.yul\":9976:10271   */\n    tag_92:\n        /* \"#utility.yul\":10052:10056   */\n      0x00\n        /* \"#utility.yul\":10198:10227   */\n      tag_218\n        /* \"#utility.yul\":10223:10226   */\n      dup4\n        /* \"#utility.yul\":10217:10221   */\n      dup4\n        /* \"#utility.yul\":10198:10227   */\n      tag_91\n      jump\t// in\n    tag_218:\n        /* \"#utility.yul\":10190:10227   */\n      swap2\n      pop\n        /* \"#utility.yul\":10260:10263   */\n      dup3\n        /* \"#utility.yul\":10257:10258   */\n      0x02\n        /* \"#utility.yul\":10253:10264   */\n      mul\n        /* \"#utility.yul\":10247:10251   */\n      dup3\n        /* \"#utility.yul\":10244:10265   */\n      or\n        /* \"#utility.yul\":10236:10265   */\n      swap1\n      pop\n        /* \"#utility.yul\":9976:10271   */\n      swap3\n      swap2\n      pop\n      pop\n      jump\t// out\n        /* \"#utility.yul\":10276:11671   */\n    tag_37:\n        /* \"#utility.yul\":10393:10430   */\n      tag_220\n        /* \"#utility.yul\":10426:10429   */\n      dup3\n        /* \"#utility.yul\":10393:10430   */\n      tag_72\n      jump\t// in\n    tag_220:\n        /* \"#utility.yul\":10495:10513   */\n      0xffffffffffffffff\n        /* \"#utility.yul\":10487:10493   */\n      dup2\n        /* \"#utility.yul\":10484:10514   */\n      gt\n        /* \"#utility.yul\":10481:10537   */\n      iszero\n      tag_221\n      jumpi\n        /* \"#utility.yul\":10517:10535   */\n      tag_222\n      tag_58\n      jump\t// in\n    tag_222:\n        /* \"#utility.yul\":10481:10537   */\n    tag_221:\n        /* \"#utility.yul\":10561:10599   */\n      tag_223\n        /* \"#utility.yul\":10593:10597   */\n      dup3\n        /* \"#utility.yul\":10587:10598   */\n      sload\n        /* \"#utility.yul\":10561:10599   */\n      tag_47\n      jump\t// in\n    tag_223:\n        /* \"#utility.yul\":10646:10713   */\n      tag_224\n        /* \"#utility.yul\":10706:10712   */\n      dup3\n        /* \"#utility.yul\":10698:10704   */\n      dup3\n        /* \"#utility.yul\":10692:10696   */\n      dup6\n        /* \"#utility.yul\":10646:10713   */\n      tag_89\n      jump\t// in\n    tag_224:\n        /* \"#utility.yul\":10740:10741   */\n      0x00\n        /* \"#utility.yul\":10764:10768   */\n      0x20\n        /* \"#utility.yul\":10751:10768   */\n      swap1\n      pop\n        /* \"#utility.yul\":10796:10798   */\n      0x1f\n        /* \"#utility.yul\":10788:10794   */\n      dup4\n        /* \"#utility.yul\":10785:10799   */\n      gt\n        /* \"#utility.yul\":10813:10814   */\n      0x01\n        /* \"#utility.yul\":10808:11426   */\n      dup2\n      eq\n      tag_226\n      jumpi\n        /* \"#utility.yul\":11470:11471   */\n      0x00\n        /* \"#utility.yul\":11487:11493   */\n      dup5\n        /* \"#utility.yul\":11484:11561   */\n      iszero\n      tag_227\n      jumpi\n        /* \"#utility.yul\":11536:11545   */\n      dup3\n        /* \"#utility.yul\":11531:11534   */\n      dup8\n        /* \"#utility.yul\":11527:11546   */\n      add\n        /* \"#utility.yul\":11521:11547   */\n      mload\n        /* \"#utility.yul\":11512:11547   */\n      swap1\n      pop\n        /* \"#utility.yul\":11484:11561   */\n    tag_227:\n        /* \"#utility.yul\":11587:11654   */\n      tag_228\n        /* \"#utility.yul\":11647:11653   */\n      dup6\n        /* \"#utility.yul\":11640:11645   */\n      dup3\n        /* \"#utility.yul\":11587:11654   */\n      tag_92\n      jump\t// in\n    tag_228:\n        /* \"#utility.yul\":11581:11585   */\n      dup7\n        /* \"#utility.yul\":11574:11655   */\n      sstore\n        /* \"#utility.yul\":11443:11665   */\n      pop\n        /* \"#utility.yul\":10778:11665   */\n      jump(tag_225)\n        /* \"#utility.yul\":10808:11426   */\n    tag_226:\n        /* \"#utility.yul\":10860:10864   */\n      0x1f\n        /* \"#utility.yul\":10856:10865   */\n      not\n        /* \"#utility.yul\":10848:10854   */\n      dup5\n        /* \"#utility.yul\":10844:10866   */\n      and\n        /* \"#utility.yul\":10894:10931   */\n      tag_229\n        /* \"#utility.yul\":10926:10930   */\n      dup7\n        /* \"#utility.yul\":10894:10931   */\n      tag_78\n      jump\t// in\n    tag_229:\n        /* \"#utility.yul\":10953:10954   */\n      0x00\n        /* \"#utility.yul\":10967:11175   */\n    tag_230:\n        /* \"#utility.yul\":10981:10988   */\n      dup3\n        /* \"#utility.yul\":10978:10979   */\n      dup2\n        /* \"#utility.yul\":10975:10989   */\n      lt\n        /* \"#utility.yul\":10967:11175   */\n      iszero\n      tag_232\n      jumpi\n        /* \"#utility.yul\":11060:11069   */\n      dup5\n        /* \"#utility.yul\":11055:11058   */\n      dup10\n        /* \"#utility.yul\":11051:11070   */\n      add\n        /* \"#utility.yul\":11045:11071   */\n      mload\n        /* \"#utility.yul\":11037:11043   */\n      dup3\n        /* \"#utility.yul\":11030:11072   */\n      sstore\n        /* \"#utility.yul\":11111:11112   */\n      0x01\n        /* \"#utility.yul\":11103:11109   */\n      dup3\n        /* \"#utility.yul\":11099:11113   */\n      add\n        /* \"#utility.yul\":11089:11113   */\n      swap2\n      pop\n        /* \"#utility.yul\":11158:11160   */\n      0x20\n        /* \"#utility.yul\":11147:11156   */\n      dup6\n        /* \"#utility.yul\":11143:11161   */\n      add\n        /* \"#utility.yul\":11130:11161   */\n      swap5\n      pop\n        /* \"#utility.yul\":11004:11008   */\n      0x20\n        /* \"#utility.yul\":11001:11002   */\n      dup2\n        /* \"#utility.yul\":10997:11009   */\n      add\n        /* \"#utility.yul\":10992:11009   */\n      swap1\n      pop\n        /* \"#utility.yul\":10967:11175   */\n      jump(tag_230)\n    tag_232:\n        /* \"#utility.yul\":11203:11209   */\n      dup7\n        /* \"#utility.yul\":11194:11201   */\n      dup4\n        /* \"#utility.yul\":11191:11210   */\n      lt\n        /* \"#utility.yul\":11188:11367   */\n      iszero\n      tag_233\n      jumpi\n        /* \"#utility.yul\":11261:11270   */\n      dup5\n        /* \"#utility.yul\":11256:11259   */\n      dup10\n        /* \"#utility.yul\":11252:11271   */\n      add\n        /* \"#utility.yul\":11246:11272   */\n      mload\n        /* \"#utility.yul\":11304:11352   */\n      tag_234\n        /* \"#utility.yul\":11346:11350   */\n      0x1f\n        /* \"#utility.yul\":11338:11344   */\n      dup10\n        /* \"#utility.yul\":11334:11351   */\n      and\n        /* \"#utility.yul\":11323:11332   */\n      dup3\n        /* \"#utility.yul\":11304:11352   */\n      tag_91\n      jump\t// in\n    tag_234:\n        /* \"#utility.yul\":11296:11302   */\n      dup4\n        /* \"#utility.yul\":11289:11353   */\n      sstore\n        /* \"#utility.yul\":11211:11367   */\n      pop\n        /* \"#utility.yul\":11188:11367   */\n    tag_233:\n        /* \"#utility.yul\":11413:11414   */\n      0x01\n        /* \"#utility.yul\":11409:11410   */\n      0x02\n        /* \"#utility.yul\":11401:11407   */\n      dup9\n        /* \"#utility.yul\":11397:11411   */\n      mul\n        /* \"#utility.yul\":11393:11415   */\n      add\n        /* \"#utility.yul\":11387:11391   */\n      dup9\n        /* \"#utility.yul\":11380:11416   */\n      sstore\n        /* \"#utility.yul\":10815:11426   */\n      pop\n      pop\n      pop\n        /* \"#utility.yul\":10778:11665   */\n    tag_225:\n      pop\n        /* \"#utility.yul\":10368:11671   */\n      pop\n      pop\n      pop\n        /* \"#utility.yul\":10276:11671   */\n      pop\n      pop\n      jump\t// out\n        /* \"#utility.yul\":11677:11825   */\n    tag_93:\n        /* \"#utility.yul\":11779:11790   */\n      0x00\n        /* \"#utility.yul\":11816:11819   */\n      dup2\n        /* \"#utility.yul\":11801:11819   */\n      swap1\n      pop\n        /* \"#utility.yul\":11677:11825   */\n      swap3\n      swap2\n      pop\n      pop\n      jump\t// out\n        /* \"#utility.yul\":11831:12221   */\n    tag_94:\n        /* \"#utility.yul\":11937:11940   */\n      0x00\n        /* \"#utility.yul\":11965:12004   */\n      tag_237\n        /* \"#utility.yul\":11998:12003   */\n      dup3\n        /* \"#utility.yul\":11965:12004   */\n      tag_72\n      jump\t// in\n    tag_237:\n        /* \"#utility.yul\":12020:12109   */\n      tag_238\n        /* \"#utility.yul\":12102:12108   */\n      dup2\n        /* \"#utility.yul\":12097:12100   */\n      dup6\n        /* \"#utility.yul\":12020:12109   */\n      tag_93\n      jump\t// in\n    tag_238:\n        /* \"#utility.yul\":12013:12109   */\n      swap4\n      pop\n        /* \"#utility.yul\":12118:12183   */\n      tag_239\n        /* \"#utility.yul\":12176:12182   */\n      dup2\n        /* \"#utility.yul\":12171:12174   */\n      dup6\n        /* \"#utility.yul\":12164:12168   */\n      0x20\n        /* \"#utility.yul\":12157:12162   */\n      dup7\n        /* \"#utility.yul\":12153:12169   */\n      add\n        /* \"#utility.yul\":12118:12183   */\n      tag_74\n      jump\t// in\n    tag_239:\n        /* \"#utility.yul\":12208:12214   */\n      dup1\n        /* \"#utility.yul\":12203:12206   */\n      dup5\n        /* \"#utility.yul\":12199:12215   */\n      add\n        /* \"#utility.yul\":12192:12215   */\n      swap2\n      pop\n        /* \"#utility.yul\":11941:12221   */\n      pop\n        /* \"#utility.yul\":11831:12221   */\n      swap3\n      swap2\n      pop\n      pop\n      jump\t// out\n        /* \"#utility.yul\":12227:12502   */\n    tag_39:\n        /* \"#utility.yul\":12359:12362   */\n      0x00\n        /* \"#utility.yul\":12381:12476   */\n      tag_241\n        /* \"#utility.yul\":12472:12475   */\n      dup3\n        /* \"#utility.yul\":12463:12469   */\n      dup5\n        /* \"#utility.yul\":12381:12476   */\n      tag_94\n      jump\t// in\n    tag_241:\n        /* \"#utility.yul\":12374:12476   */\n      swap2\n      pop\n        /* \"#utility.yul\":12493:12496   */\n      dup2\n        /* \"#utility.yul\":12486:12496   */\n      swap1\n      pop\n        /* \"#utility.yul\":12227:12502   */\n      swap3\n      swap2\n      pop\n      pop\n      jump\t// out\n        /* \"#utility.yul\":12508:12688   */\n    tag_95:\n        /* \"#utility.yul\":12556:12633   */\n      0x4e487b7100000000000000000000000000000000000000000000000000000000\n        /* \"#utility.yul\":12553:12554   */\n      0x00\n        /* \"#utility.yul\":12546:12634   */\n      mstore\n        /* \"#utility.yul\":12653:12657   */\n      0x11\n        /* \"#utility.yul\":12650:12651   */\n      0x04\n        /* \"#utility.yul\":12643:12658   */\n      mstore\n        /* \"#utility.yul\":12677:12681   */\n      0x24\n        /* \"#utility.yul\":12674:12675   */\n      0x00\n        /* \"#utility.yul\":12667:12682   */\n      revert\n        /* \"#utility.yul\":12694:12885   */\n    tag_42:\n        /* \"#utility.yul\":12734:12737   */\n      0x00\n        /* \"#utility.yul\":12753:12773   */\n      tag_244\n        /* \"#utility.yul\":12771:12772   */\n      dup3\n        /* \"#utility.yul\":12753:12773   */\n      tag_65\n      jump\t// in\n    tag_244:\n        /* \"#utility.yul\":12748:12773   */\n      swap2\n      pop\n        /* \"#utility.yul\":12787:12807   */\n      tag_245\n        /* \"#utility.yul\":12805:12806   */\n      dup4\n        /* \"#utility.yul\":12787:12807   */\n      tag_65\n      jump\t// in\n    tag_245:\n        /* \"#utility.yul\":12782:12807   */\n      swap3\n      pop\n        /* \"#utility.yul\":12830:12831   */\n      dup3\n        /* \"#utility.yul\":12827:12828   */\n      dup3\n        /* \"#utility.yul\":12823:12832   */\n      add\n        /* \"#utility.yul\":12816:12832   */\n      swap1\n      pop\n        /* \"#utility.yul\":12851:12854   */\n      dup1\n        /* \"#utility.yul\":12848:12849   */\n      dup3\n        /* \"#utility.yul\":12845:12855   */\n      gt\n        /* \"#utility.yul\":12842:12878   */\n      iszero\n      tag_246\n      jumpi\n        /* \"#utility.yul\":12858:12876   */\n      tag_247\n      tag_95\n      jump\t// in\n    tag_247:\n        /* \"#utility.yul\":12842:12878   */\n    tag_246:\n        /* \"#utility.yul\":12694:12885   */\n      swap3\n      swap2\n      pop\n      pop\n      jump\t// out\n\n    auxdata: 0xa2646970667358221220f1d702d2429d1946fe0fb442659c27f3c7243315e91882f5d3075cc9667d167d64736f6c63430008120033\n}\n",
				"bytecode": {
					"linkReferences": {},
					"object": "608060405234801561001057600080fd5b50610a7f806100206000396000f3fe608060405234801561001057600080fd5b50600436106100625760003560e01c8063032ce9aa1461006757806323814fc5146100835780632e64cec1146100b35780633c8df652146100d15780636057361d146100ef5780639e7a13ad1461010b575b600080fd5b610081600480360381019061007c91906104da565b61013d565b005b61009d60048036038101906100989190610549565b6101ef565b6040516100aa91906105a1565b60405180910390f35b6100bb61021d565b6040516100c891906105a1565b60405180910390f35b6100d9610233565b6040516100e691906105a1565b60405180910390f35b610109600480360381019061010491906105bc565b610239565b005b610125600480360381019061012091906105bc565b610243565b60405161013493929190610677565b60405180910390f35b6001604051806060016040528084815260200185815260200183151581525090806001815401808255809150506001900390600052602060002090600302016000909190919091506000820151816000015560208201518160010190816101a491906108c1565b5060408201518160020160006101000a81548160ff0219169083151502179055505050816002846040516101d891906109cf565b908152602001604051809103902081905550505050565b6002818051602081018201805184825260208301602085012081835280955050505050506000915090505481565b6000606460005461022e9190610a15565b905090565b60005481565b8060008190555050565b6001818154811061025357600080fd5b906000526020600020906003020160009150905080600001549080600101805461027c906106e4565b80601f01602080910402602001604051908101604052809291908181526020018280546102a8906106e4565b80156102f55780601f106102ca576101008083540402835291602001916102f5565b820191906000526020600020905b8154815290600101906020018083116102d857829003601f168201915b5050505050908060020160009054906101000a900460ff16905083565b6000604051905090565b600080fd5b600080fd5b600080fd5b600080fd5b6000601f19601f8301169050919050565b7f4e487b7100000000000000000000000000000000000000000000000000000000600052604160045260246000fd5b61037982610330565b810181811067ffffffffffffffff8211171561039857610397610341565b5b80604052505050565b60006103ab610312565b90506103b78282610370565b919050565b600067ffffffffffffffff8211156103d7576103d6610341565b5b6103e082610330565b9050602081019050919050565b82818337600083830152505050565b600061040f61040a846103bc565b6103a1565b90508281526020810184848401111561042b5761042a61032b565b5b6104368482856103ed565b509392505050565b600082601f83011261045357610452610326565b5b81356104638482602086016103fc565b91505092915050565b6000819050919050565b61047f8161046c565b811461048a57600080fd5b50565b60008135905061049c81610476565b92915050565b60008115159050919050565b6104b7816104a2565b81146104c257600080fd5b50565b6000813590506104d4816104ae565b92915050565b6000806000606084860312156104f3576104f261031c565b5b600084013567ffffffffffffffff81111561051157610510610321565b5b61051d8682870161043e565b935050602061052e8682870161048d565b925050604061053f868287016104c5565b9150509250925092565b60006020828403121561055f5761055e61031c565b5b600082013567ffffffffffffffff81111561057d5761057c610321565b5b6105898482850161043e565b91505092915050565b61059b8161046c565b82525050565b60006020820190506105b66000830184610592565b92915050565b6000602082840312156105d2576105d161031c565b5b60006105e08482850161048d565b91505092915050565b600081519050919050565b600082825260208201905092915050565b60005b83811015610623578082015181840152602081019050610608565b60008484015250505050565b600061063a826105e9565b61064481856105f4565b9350610654818560208601610605565b61065d81610330565b840191505092915050565b610671816104a2565b82525050565b600060608201905061068c6000830186610592565b818103602083015261069e818561062f565b90506106ad6040830184610668565b949350505050565b7f4e487b7100000000000000000000000000000000000000000000000000000000600052602260045260246000fd5b600060028204905060018216806106fc57607f821691505b60208210810361070f5761070e6106b5565b5b50919050565b60008190508160005260206000209050919050565b60006020601f8301049050919050565b600082821b905092915050565b6000600883026107777fffffffffffffffffffffffffffffffffffffffffffffffffffffffffffffffff8261073a565b610781868361073a565b95508019841693508086168417925050509392505050565b6000819050919050565b60006107be6107b96107b48461046c565b610799565b61046c565b9050919050565b6000819050919050565b6107d8836107a3565b6107ec6107e4826107c5565b848454610747565b825550505050565b600090565b6108016107f4565b61080c8184846107cf565b505050565b5b81811015610830576108256000826107f9565b600181019050610812565b5050565b601f8211156108755761084681610715565b61084f8461072a565b8101602085101561085e578190505b61087261086a8561072a565b830182610811565b50505b505050565b600082821c905092915050565b60006108986000198460080261087a565b1980831691505092915050565b60006108b18383610887565b9150826002028217905092915050565b6108ca826105e9565b67ffffffffffffffff8111156108e3576108e2610341565b5b6108ed82546106e4565b6108f8828285610834565b600060209050601f83116001811461092b5760008415610919578287015190505b61092385826108a5565b86555061098b565b601f19841661093986610715565b60005b828110156109615784890151825560018201915060208501945060208101905061093c565b8683101561097e578489015161097a601f891682610887565b8355505b6001600288020188555050505b505050505050565b600081905092915050565b60006109a9826105e9565b6109b38185610993565b93506109c3818560208601610605565b80840191505092915050565b60006109db828461099e565b915081905092915050565b7f4e487b7100000000000000000000000000000000000000000000000000000000600052601160045260246000fd5b6000610a208261046c565b9150610a2b8361046c565b9250828201905080821115610a4357610a426109e6565b5b9291505056fea2646970667358221220f1d702d2429d1946fe0fb442659c27f3c7243315e91882f5d3075cc9667d167d64736f6c63430008120033",
					"opcodes": "PUSH1 0x80 PUSH1 0x40 MSTORE CALLVALUE DUP1 ISZERO PUSH2 0x10 JUMPI PUSH1 0x0 DUP1 REVERT JUMPDEST POP PUSH2 0xA7F DUP1 PUSH2 0x20 PUSH1 0x0 CODECOPY PUSH1 0x0 RETURN INVALID PUSH1 0x80 PUSH1 0x40 MSTORE CALLVALUE DUP1 ISZERO PUSH2 0x10 JUMPI PUSH1 0x0 DUP1 REVERT JUMPDEST POP PUSH1 0x4 CALLDATASIZE LT PUSH2 0x62 JUMPI PUSH1 0x0 CALLDATALOAD PUSH1 0xE0 SHR DUP1 PUSH4 0x32CE9AA EQ PUSH2 0x67 JUMPI DUP1 PUSH4 0x23814FC5 EQ PUSH2 0x83 JUMPI DUP1 PUSH4 0x2E64CEC1 EQ PUSH2 0xB3 JUMPI DUP1 PUSH4 0x3C8DF652 EQ PUSH2 0xD1 JUMPI DUP1 PUSH4 0x6057361D EQ PUSH2 0xEF JUMPI DUP1 PUSH4 0x9E7A13AD EQ PUSH2 0x10B JUMPI JUMPDEST PUSH1 0x0 DUP1 REVERT JUMPDEST PUSH2 0x81 PUSH1 0x4 DUP1 CALLDATASIZE SUB DUP2 ADD SWAP1 PUSH2 0x7C SWAP2 SWAP1 PUSH2 0x4DA JUMP JUMPDEST PUSH2 0x13D JUMP JUMPDEST STOP JUMPDEST PUSH2 0x9D PUSH1 0x4 DUP1 CALLDATASIZE SUB DUP2 ADD SWAP1 PUSH2 0x98 SWAP2 SWAP1 PUSH2 0x549 JUMP JUMPDEST PUSH2 0x1EF JUMP JUMPDEST PUSH1 0x40 MLOAD PUSH2 0xAA SWAP2 SWAP1 PUSH2 0x5A1 JUMP JUMPDEST PUSH1 0x40 MLOAD DUP1 SWAP2 SUB SWAP1 RETURN JUMPDEST PUSH2 0xBB PUSH2 0x21D JUMP JUMPDEST PUSH1 0x40 MLOAD PUSH2 0xC8 SWAP2 SWAP1 PUSH2 0x5A1 JUMP JUMPDEST PUSH1 0x40 MLOAD DUP1 SWAP2 SUB SWAP1 RETURN JUMPDEST PUSH2 0xD9 PUSH2 0x233 JUMP JUMPDEST PUSH1 0x40 MLOAD PUSH2 0xE6 SWAP2 SWAP1 PUSH2 0x5A1 JUMP JUMPDEST PUSH1 0x40 MLOAD DUP1 SWAP2 SUB SWAP1 RETURN JUMPDEST PUSH2 0x109 PUSH1 0x4 DUP1 CALLDATASIZE SUB DUP2 ADD SWAP1 PUSH2 0x104 SWAP2 SWAP1 PUSH2 0x5BC JUMP JUMPDEST PUSH2 0x239 JUMP JUMPDEST STOP JUMPDEST PUSH2 0x125 PUSH1 0x4 DUP1 CALLDATASIZE SUB DUP2 ADD SWAP1 PUSH2 0x120 SWAP2 SWAP1 PUSH2 0x5BC JUMP JUMPDEST PUSH2 0x243 JUMP JUMPDEST PUSH1 0x40 MLOAD PUSH2 0x134 SWAP4 SWAP3 SWAP2 SWAP1 PUSH2 0x677 JUMP JUMPDEST PUSH1 0x40 MLOAD DUP1 SWAP2 SUB SWAP1 RETURN JUMPDEST PUSH1 0x1 PUSH1 0x40 MLOAD DUP1 PUSH1 0x60 ADD PUSH1 0x40 MSTORE DUP1 DUP5 DUP2 MSTORE PUSH1 0x20 ADD DUP6 DUP2 MSTORE PUSH1 0x20 ADD DUP4 ISZERO ISZERO DUP2 MSTORE POP SWAP1 DUP1 PUSH1 0x1 DUP2 SLOAD ADD DUP1 DUP3 SSTORE DUP1 SWAP2 POP POP PUSH1 0x1 SWAP1 SUB SWAP1 PUSH1 0x0 MSTORE PUSH1 0x20 PUSH1 0x0 KECCAK256 SWAP1 PUSH1 0x3 MUL ADD PUSH1 0x0 SWAP1 SWAP2 SWAP1 SWAP2 SWAP1 SWAP2 POP PUSH1 0x0 DUP3 ADD MLOAD DUP2 PUSH1 0x0 ADD SSTORE PUSH1 0x20 DUP3 ADD MLOAD DUP2 PUSH1 0x1 ADD SWAP1 DUP2 PUSH2 0x1A4 SWAP2 SWAP1 PUSH2 0x8C1 JUMP JUMPDEST POP PUSH1 0x40 DUP3 ADD MLOAD DUP2 PUSH1 0x2 ADD PUSH1 0x0 PUSH2 0x100 EXP DUP2 SLOAD DUP2 PUSH1 0xFF MUL NOT AND SWAP1 DUP4 ISZERO ISZERO MUL OR SWAP1 SSTORE POP POP POP DUP2 PUSH1 0x2 DUP5 PUSH1 0x40 MLOAD PUSH2 0x1D8 SWAP2 SWAP1 PUSH2 0x9CF JUMP JUMPDEST SWAP1 DUP2 MSTORE PUSH1 0x20 ADD PUSH1 0x40 MLOAD DUP1 SWAP2 SUB SWAP1 KECCAK256 DUP2 SWAP1 SSTORE POP POP POP POP JUMP JUMPDEST PUSH1 0x2 DUP2 DUP1 MLOAD PUSH1 0x20 DUP2 ADD DUP3 ADD DUP1 MLOAD DUP5 DUP3 MSTORE PUSH1 0x20 DUP4 ADD PUSH1 0x20 DUP6 ADD KECCAK256 DUP2 DUP4 MSTORE DUP1 SWAP6 POP POP POP POP POP POP PUSH1 0x0 SWAP2 POP SWAP1 POP SLOAD DUP2 JUMP JUMPDEST PUSH1 0x0 PUSH1 0x64 PUSH1 0x0 SLOAD PUSH2 0x22E SWAP2 SWAP1 PUSH2 0xA15 JUMP JUMPDEST SWAP1 POP SWAP1 JUMP JUMPDEST PUSH1 0x0 SLOAD DUP2 JUMP JUMPDEST DUP1 PUSH1 0x0 DUP2 SWAP1 SSTORE POP POP JUMP JUMPDEST PUSH1 0x1 DUP2 DUP2 SLOAD DUP2 LT PUSH2 0x253 JUMPI PUSH1 0x0 DUP1 REVERT JUMPDEST SWAP1 PUSH1 0x0 MSTORE PUSH1 0x20 PUSH1 0x0 KECCAK256 SWAP1 PUSH1 0x3 MUL ADD PUSH1 0x0 SWAP2 POP SWAP1 POP DUP1 PUSH1 0x0 ADD SLOAD SWAP1 DUP1 PUSH1 0x1 ADD DUP1 SLOAD PUSH2 0x27C SWAP1 PUSH2 0x6E4 JUMP JUMPDEST DUP1 PUSH1 0x1F ADD PUSH1 0x20 DUP1 SWAP2 DIV MUL PUSH1 0x20 ADD PUSH1 0x40 MLOAD SWAP1 DUP2 ADD PUSH1 0x40 MSTORE DUP1 SWAP3 SWAP2 SWAP1 DUP2 DUP2 MSTORE PUSH1 0x20 ADD DUP3 DUP1 SLOAD PUSH2 0x2A8 SWAP1 PUSH2 0x6E4 JUMP JUMPDEST DUP1 ISZERO PUSH2 0x2F5 JUMPI DUP1 PUSH1 0x1F LT PUSH2 0x2CA JUMPI PUSH2 0x100 DUP1 DUP4 SLOAD DIV MUL DUP4 MSTORE SWAP2 PUSH1 0x20 ADD SWAP2 PUSH2 0x2F5 JUMP JUMPDEST DUP3 ADD SWAP2 SWAP1 PUSH1 0x0 MSTORE PUSH1 0x20 PUSH1 0x0 KECCAK256 SWAP1 JUMPDEST DUP2 SLOAD DUP2 MSTORE SWAP1 PUSH1 0x1 ADD SWAP1 PUSH1 0x20 ADD DUP1 DUP4 GT PUSH2 0x2D8 JUMPI DUP3 SWAP1 SUB PUSH1 0x1F AND DUP3 ADD SWAP2 JUMPDEST POP POP POP POP POP SWAP1 DUP1 PUSH1 0x2 ADD PUSH1 0x0 SWAP1 SLOAD SWAP1 PUSH2 0x100 EXP SWAP1 DIV PUSH1 0xFF AND SWAP1 POP DUP4 JUMP JUMPDEST PUSH1 0x0 PUSH1 0x40 MLOAD SWAP1 POP SWAP1 JUMP JUMPDEST PUSH1 0x0 DUP1 REVERT JUMPDEST PUSH1 0x0 DUP1 REVERT JUMPDEST PUSH1 0x0 DUP1 REVERT JUMPDEST PUSH1 0x0 DUP1 REVERT JUMPDEST PUSH1 0x0 PUSH1 0x1F NOT PUSH1 0x1F DUP4 ADD AND SWAP1 POP SWAP2 SWAP1 POP JUMP JUMPDEST PUSH32 0x4E487B7100000000000000000000000000000000000000000000000000000000 PUSH1 0x0 MSTORE PUSH1 0x41 PUSH1 0x4 MSTORE PUSH1 0x24 PUSH1 0x0 REVERT JUMPDEST PUSH2 0x379 DUP3 PUSH2 0x330 JUMP JUMPDEST DUP2 ADD DUP2 DUP2 LT PUSH8 0xFFFFFFFFFFFFFFFF DUP3 GT OR ISZERO PUSH2 0x398 JUMPI PUSH2 0x397 PUSH2 0x341 JUMP JUMPDEST JUMPDEST DUP1 PUSH1 0x40 MSTORE POP POP POP JUMP JUMPDEST PUSH1 0x0 PUSH2 0x3AB PUSH2 0x312 JUMP JUMPDEST SWAP1 POP PUSH2 0x3B7 DUP3 DUP3 PUSH2 0x370 JUMP JUMPDEST SWAP2 SWAP1 POP JUMP JUMPDEST PUSH1 0x0 PUSH8 0xFFFFFFFFFFFFFFFF DUP3 GT ISZERO PUSH2 0x3D7 JUMPI PUSH2 0x3D6 PUSH2 0x341 JUMP JUMPDEST JUMPDEST PUSH2 0x3E0 DUP3 PUSH2 0x330 JUMP JUMPDEST SWAP1 POP PUSH1 0x20 DUP2 ADD SWAP1 POP SWAP2 SWAP1 POP JUMP JUMPDEST DUP3 DUP2 DUP4 CALLDATACOPY PUSH1 0x0 DUP4 DUP4 ADD MSTORE POP POP POP JUMP JUMPDEST PUSH1 0x0 PUSH2 0x40F PUSH2 0x40A DUP5 PUSH2 0x3BC JUMP JUMPDEST PUSH2 0x3A1 JUMP JUMPDEST SWAP1 POP DUP3 DUP2 MSTORE PUSH1 0x20 DUP2 ADD DUP5 DUP5 DUP5 ADD GT ISZERO PUSH2 0x42B JUMPI PUSH2 0x42A PUSH2 0x32B JUMP JUMPDEST JUMPDEST PUSH2 0x436 DUP5 DUP3 DUP6 PUSH2 0x3ED JUMP JUMPDEST POP SWAP4 SWAP3 POP POP POP JUMP JUMPDEST PUSH1 0x0 DUP3 PUSH1 0x1F DUP4 ADD SLT PUSH2 0x453 JUMPI PUSH2 0x452 PUSH2 0x326 JUMP JUMPDEST JUMPDEST DUP2 CALLDATALOAD PUSH2 0x463 DUP5 DUP3 PUSH1 0x20 DUP7 ADD PUSH2 0x3FC JUMP JUMPDEST SWAP2 POP POP SWAP3 SWAP2 POP POP JUMP JUMPDEST PUSH1 0x0 DUP2 SWAP1 POP SWAP2 SWAP1 POP JUMP JUMPDEST PUSH2 0x47F DUP2 PUSH2 0x46C JUMP JUMPDEST DUP2 EQ PUSH2 0x48A JUMPI PUSH1 0x0 DUP1 REVERT JUMPDEST POP JUMP JUMPDEST PUSH1 0x0 DUP2 CALLDATALOAD SWAP1 POP PUSH2 0x49C DUP2 PUSH2 0x476 JUMP JUMPDEST SWAP3 SWAP2 POP POP JUMP JUMPDEST PUSH1 0x0 DUP2 ISZERO ISZERO SWAP1 POP SWAP2 SWAP1 POP JUMP JUMPDEST PUSH2 0x4B7 DUP2 PUSH2 0x4A2 JUMP JUMPDEST DUP2 EQ PUSH2 0x4C2 JUMPI PUSH1 0x0 DUP1 REVERT JUMPDEST POP JUMP JUMPDEST PUSH1 0x0 DUP2 CALLDATALOAD SWAP1 POP PUSH2 0x4D4 DUP2 PUSH2 0x4AE JUMP JUMPDEST SWAP3 SWAP2 POP POP JUMP JUMPDEST PUSH1 0x0 DUP1 PUSH1 0x0 PUSH1 0x60 DUP5 DUP7 SUB SLT ISZERO PUSH2 0x4F3 JUMPI PUSH2 0x4F2 PUSH2 0x31C JUMP JUMPDEST JUMPDEST PUSH1 0x0 DUP5 ADD CALLDATALOAD PUSH8 0xFFFFFFFFFFFFFFFF DUP2 GT ISZERO PUSH2 0x511 JUMPI PUSH2 0x510 PUSH2 0x321 JUMP JUMPDEST JUMPDEST PUSH2 0x51D DUP7 DUP3 DUP8 ADD PUSH2 0x43E JUMP JUMPDEST SWAP4 POP POP PUSH1 0x20 PUSH2 0x52E DUP7 DUP3 DUP8 ADD PUSH2 0x48D JUMP JUMPDEST SWAP3 POP POP PUSH1 0x40 PUSH2 0x53F DUP7 DUP3 DUP8 ADD PUSH2 0x4C5 JUMP JUMPDEST SWAP2 POP POP SWAP3 POP SWAP3 POP SWAP3 JUMP JUMPDEST PUSH1 0x0 PUSH1 0x20 DUP3 DUP5 SUB SLT ISZERO PUSH2 0x55F JUMPI PUSH2 0x55E PUSH2 0x31C JUMP JUMPDEST JUMPDEST PUSH1 0x0 DUP3 ADD CALLDATALOAD PUSH8 0xFFFFFFFFFFFFFFFF DUP2 GT ISZERO PUSH2 0x57D JUMPI PUSH2 0x57C PUSH2 0x321 JUMP JUMPDEST JUMPDEST PUSH2 0x589 DUP5 DUP3 DUP6 ADD PUSH2 0x43E JUMP JUMPDEST SWAP2 POP POP SWAP3 SWAP2 POP POP JUMP JUMPDEST PUSH2 0x59B DUP2 PUSH2 0x46C JUMP JUMPDEST DUP3 MSTORE POP POP JUMP JUMPDEST PUSH1 0x0 PUSH1 0x20 DUP3 ADD SWAP1 POP PUSH2 0x5B6 PUSH1 0x0 DUP4 ADD DUP5 PUSH2 0x592 JUMP JUMPDEST SWAP3 SWAP2 POP POP JUMP JUMPDEST PUSH1 0x0 PUSH1 0x20 DUP3 DUP5 SUB SLT ISZERO PUSH2 0x5D2 JUMPI PUSH2 0x5D1 PUSH2 0x31C JUMP JUMPDEST JUMPDEST PUSH1 0x0 PUSH2 0x5E0 DUP5 DUP3 DUP6 ADD PUSH2 0x48D JUMP JUMPDEST SWAP2 POP POP SWAP3 SWAP2 POP POP JUMP JUMPDEST PUSH1 0x0 DUP2 MLOAD SWAP1 POP SWAP2 SWAP1 POP JUMP JUMPDEST PUSH1 0x0 DUP3 DUP3 MSTORE PUSH1 0x20 DUP3 ADD SWAP1 POP SWAP3 SWAP2 POP POP JUMP JUMPDEST PUSH1 0x0 JUMPDEST DUP4 DUP2 LT ISZERO PUSH2 0x623 JUMPI DUP1 DUP3 ADD MLOAD DUP2 DUP5 ADD MSTORE PUSH1 0x20 DUP2 ADD SWAP1 POP PUSH2 0x608 JUMP JUMPDEST PUSH1 0x0 DUP5 DUP5 ADD MSTORE POP POP POP POP JUMP JUMPDEST PUSH1 0x0 PUSH2 0x63A DUP3 PUSH2 0x5E9 JUMP JUMPDEST PUSH2 0x644 DUP2 DUP6 PUSH2 0x5F4 JUMP JUMPDEST SWAP4 POP PUSH2 0x654 DUP2 DUP6 PUSH1 0x20 DUP7 ADD PUSH2 0x605 JUMP JUMPDEST PUSH2 0x65D DUP2 PUSH2 0x330 JUMP JUMPDEST DUP5 ADD SWAP2 POP POP SWAP3 SWAP2 POP POP JUMP JUMPDEST PUSH2 0x671 DUP2 PUSH2 0x4A2 JUMP JUMPDEST DUP3 MSTORE POP POP JUMP JUMPDEST PUSH1 0x0 PUSH1 0x60 DUP3 ADD SWAP1 POP PUSH2 0x68C PUSH1 0x0 DUP4 ADD DUP7 PUSH2 0x592 JUMP JUMPDEST DUP2 DUP2 SUB PUSH1 0x20 DUP4 ADD MSTORE PUSH2 0x69E DUP2 DUP6 PUSH2 0x62F JUMP JUMPDEST SWAP1 POP PUSH2 0x6AD PUSH1 0x40 DUP4 ADD DUP5 PUSH2 0x668 JUMP JUMPDEST SWAP5 SWAP4 POP POP POP POP JUMP JUMPDEST PUSH32 0x4E487B7100000000000000000000000000000000000000000000000000000000 PUSH1 0x0 MSTORE PUSH1 0x22 PUSH1 0x4 MSTORE PUSH1 0x24 PUSH1 0x0 REVERT JUMPDEST PUSH1 0x0 PUSH1 0x2 DUP3 DIV SWAP1 POP PUSH1 0x1 DUP3 AND DUP1 PUSH2 0x6FC JUMPI PUSH1 0x7F DUP3 AND SWAP2 POP JUMPDEST PUSH1 0x20 DUP3 LT DUP2 SUB PUSH2 0x70F JUMPI PUSH2 0x70E PUSH2 0x6B5 JUMP JUMPDEST JUMPDEST POP SWAP2 SWAP1 POP JUMP JUMPDEST PUSH1 0x0 DUP2 SWAP1 POP DUP2 PUSH1 0x0 MSTORE PUSH1 0x20 PUSH1 0x0 KECCAK256 SWAP1 POP SWAP2 SWAP1 POP JUMP JUMPDEST PUSH1 0x0 PUSH1 0x20 PUSH1 0x1F DUP4 ADD DIV SWAP1 POP SWAP2 SWAP1 POP JUMP JUMPDEST PUSH1 0x0 DUP3 DUP3 SHL SWAP1 POP SWAP3 SWAP2 POP POP JUMP JUMPDEST PUSH1 0x0 PUSH1 0x8 DUP4 MUL PUSH2 0x777 PUSH32 0xFFFFFFFFFFFFFFFFFFFFFFFFFFFFFFFFFFFFFFFFFFFFFFFFFFFFFFFFFFFFFFFF DUP3 PUSH2 0x73A JUMP JUMPDEST PUSH2 0x781 DUP7 DUP4 PUSH2 0x73A JUMP JUMPDEST SWAP6 POP DUP1 NOT DUP5 AND SWAP4 POP DUP1 DUP7 AND DUP5 OR SWAP3 POP POP POP SWAP4 SWAP3 POP POP POP JUMP JUMPDEST PUSH1 0x0 DUP2 SWAP1 POP SWAP2 SWAP1 POP JUMP JUMPDEST PUSH1 0x0 PUSH2 0x7BE PUSH2 0x7B9 PUSH2 0x7B4 DUP5 PUSH2 0x46C JUMP JUMPDEST PUSH2 0x799 JUMP JUMPDEST PUSH2 0x46C JUMP JUMPDEST SWAP1 POP SWAP2 SWAP1 POP JUMP JUMPDEST PUSH1 0x0 DUP2 SWAP1 POP SWAP2 SWAP1 POP JUMP JUMPDEST PUSH2 0x7D8 DUP4 PUSH2 0x7A3 JUMP JUMPDEST PUSH2 0x7EC PUSH2 0x7E4 DUP3 PUSH2 0x7C5 JUMP JUMPDEST DUP5 DUP5 SLOAD PUSH2 0x747 JUMP JUMPDEST DUP3 SSTORE POP POP POP POP JUMP JUMPDEST PUSH1 0x0 SWAP1 JUMP JUMPDEST PUSH2 0x801 PUSH2 0x7F4 JUMP JUMPDEST PUSH2 0x80C DUP2 DUP5 DUP5 PUSH2 0x7CF JUMP JUMPDEST POP POP POP JUMP JUMPDEST JUMPDEST DUP2 DUP2 LT ISZERO PUSH2 0x830 JUMPI PUSH2 0x825 PUSH1 0x0 DUP3 PUSH2 0x7F9 JUMP JUMPDEST PUSH1 0x1 DUP2 ADD SWAP1 POP PUSH2 0x812 JUMP JUMPDEST POP POP JUMP JUMPDEST PUSH1 0x1F DUP3 GT ISZERO PUSH2 0x875 JUMPI PUSH2 0x846 DUP2 PUSH2 0x715 JUMP JUMPDEST PUSH2 0x84F DUP5 PUSH2 0x72A JUMP JUMPDEST DUP2 ADD PUSH1 0x20 DUP6 LT ISZERO PUSH2 0x85E JUMPI DUP2 SWAP1 POP JUMPDEST PUSH2 0x872 PUSH2 0x86A DUP6 PUSH2 0x72A JUMP JUMPDEST DUP4 ADD DUP3 PUSH2 0x811 JUMP JUMPDEST POP POP JUMPDEST POP POP POP JUMP JUMPDEST PUSH1 0x0 DUP3 DUP3 SHR SWAP1 POP SWAP3 SWAP2 POP POP JUMP JUMPDEST PUSH1 0x0 PUSH2 0x898 PUSH1 0x0 NOT DUP5 PUSH1 0x8 MUL PUSH2 0x87A JUMP JUMPDEST NOT DUP1 DUP4 AND SWAP2 POP POP SWAP3 SWAP2 POP POP JUMP JUMPDEST PUSH1 0x0 PUSH2 0x8B1 DUP4 DUP4 PUSH2 0x887 JUMP JUMPDEST SWAP2 POP DUP3 PUSH1 0x2 MUL DUP3 OR SWAP1 POP SWAP3 SWAP2 POP POP JUMP JUMPDEST PUSH2 0x8CA DUP3 PUSH2 0x5E9 JUMP JUMPDEST PUSH8 0xFFFFFFFFFFFFFFFF DUP2 GT ISZERO PUSH2 0x8E3 JUMPI PUSH2 0x8E2 PUSH2 0x341 JUMP JUMPDEST JUMPDEST PUSH2 0x8ED DUP3 SLOAD PUSH2 0x6E4 JUMP JUMPDEST PUSH2 0x8F8 DUP3 DUP3 DUP6 PUSH2 0x834 JUMP JUMPDEST PUSH1 0x0 PUSH1 0x20 SWAP1 POP PUSH1 0x1F DUP4 GT PUSH1 0x1 DUP2 EQ PUSH2 0x92B JUMPI PUSH1 0x0 DUP5 ISZERO PUSH2 0x919 JUMPI DUP3 DUP8 ADD MLOAD SWAP1 POP JUMPDEST PUSH2 0x923 DUP6 DUP3 PUSH2 0x8A5 JUMP JUMPDEST DUP7 SSTORE POP PUSH2 0x98B JUMP JUMPDEST PUSH1 0x1F NOT DUP5 AND PUSH2 0x939 DUP7 PUSH2 0x715 JUMP JUMPDEST PUSH1 0x0 JUMPDEST DUP3 DUP2 LT ISZERO PUSH2 0x961 JUMPI DUP5 DUP10 ADD MLOAD DUP3 SSTORE PUSH1 0x1 DUP3 ADD SWAP2 POP PUSH1 0x20 DUP6 ADD SWAP5 POP PUSH1 0x20 DUP2 ADD SWAP1 POP PUSH2 0x93C JUMP JUMPDEST DUP7 DUP4 LT ISZERO PUSH2 0x97E JUMPI DUP5 DUP10 ADD MLOAD PUSH2 0x97A PUSH1 0x1F DUP10 AND DUP3 PUSH2 0x887 JUMP JUMPDEST DUP4 SSTORE POP JUMPDEST PUSH1 0x1 PUSH1 0x2 DUP9 MUL ADD DUP9 SSTORE POP POP POP JUMPDEST POP POP POP POP POP POP JUMP JUMPDEST PUSH1 0x0 DUP2 SWAP1 POP SWAP3 SWAP2 POP POP JUMP JUMPDEST PUSH1 0x0 PUSH2 0x9A9 DUP3 PUSH2 0x5E9 JUMP JUMPDEST PUSH2 0x9B3 DUP2 DUP6 PUSH2 0x993 JUMP JUMPDEST SWAP4 POP PUSH2 0x9C3 DUP2 DUP6 PUSH1 0x20 DUP7 ADD PUSH2 0x605 JUMP JUMPDEST DUP1 DUP5 ADD SWAP2 POP POP SWAP3 SWAP2 POP POP JUMP JUMPDEST PUSH1 0x0 PUSH2 0x9DB DUP3 DUP5 PUSH2 0x99E JUMP JUMPDEST SWAP2 POP DUP2 SWAP1 POP SWAP3 SWAP2 POP POP JUMP JUMPDEST PUSH32 0x4E487B7100000000000000000000000000000000000000000000000000000000 PUSH1 0x0 MSTORE PUSH1 0x11 PUSH1 0x4 MSTORE PUSH1 0x24 PUSH1 0x0 REVERT JUMPDEST PUSH1 0x0 PUSH2 0xA20 DUP3 PUSH2 0x46C JUMP JUMPDEST SWAP2 POP PUSH2 0xA2B DUP4 PUSH2 0x46C JUMP JUMPDEST SWAP3 POP DUP3 DUP3 ADD SWAP1 POP DUP1 DUP3 GT ISZERO PUSH2 0xA43 JUMPI PUSH2 0xA42 PUSH2 0x9E6 JUMP JUMPDEST JUMPDEST SWAP3 SWAP2 POP POP JUMP INVALID LOG2 PUSH5 0x6970667358 0x22 SLT KECCAK256 CALL 0xD7 MUL 0xD2 TIMESTAMP SWAP14 NOT CHAINID INVALID 0xF 0xB4 TIMESTAMP PUSH6 0x9C27F3C72433 ISZERO 0xE9 XOR DUP3 CREATE2 0xD3 SMOD 0x5C 0xC9 PUSH7 0x7D167D64736F6C PUSH4 0x43000812 STOP CALLER "
				},
				"gasEstimates": {
					"creation": {
						"codeDepositCost": "537400",
						"executionCost": "568",
						"totalCost": "537968"
					},
					"external": {
						"addPerson(string,uint256,bool)": "infinite",
						"favNum()": "2473",
						"map(string)": "infinite",
						"people(uint256)": "infinite",
						"retrieve()": "infinite",
						"store(uint256)": "22586"
					}
				},
				"methodIdentifiers": {
					"addPerson(string,uint256,bool)": "032ce9aa",
					"favNum()": "3c8df652",
					"map(string)": "23814fc5",
					"people(uint256)": "9e7a13ad",
					"retrieve()": "2e64cec1",
					"store(uint256)": "6057361d"
				}
			},
			"storageLayout": {
				"storage": [
					{
						"astId": 81,
						"contract": "contracts/storage.sol:SimpleStorage",
						"label": "favNum",
						"offset": 0,
						"slot": "0",
						"type": "t_uint256"
					},
					{
						"astId": 92,
						"contract": "contracts/storage.sol:SimpleStorage",
						"label": "people",
						"offset": 0,
						"slot": "1",
						"type": "t_array(t_struct(People)88_storage)dyn_storage"
					},
					{
						"astId": 96,
						"contract": "contracts/storage.sol:SimpleStorage",
						"label": "map",
						"offset": 0,
						"slot": "2",
						"type": "t_mapping(t_string_memory_ptr,t_uint256)"
					}
				],
				"types": {
					"t_array(t_struct(People)88_storage)dyn_storage": {
						"base": "t_struct(People)88_storage",
						"encoding": "dynamic_array",
						"label": "struct SimpleStorage.People[]",
						"numberOfBytes": "32"
					},
					"t_bool": {
						"encoding": "inplace",
						"label": "bool",
						"numberOfBytes": "1"
					},
					"t_mapping(t_string_memory_ptr,t_uint256)": {
						"encoding": "mapping",
						"key": "t_string_memory_ptr",
						"label": "mapping(string => uint256)",
						"numberOfBytes": "32",
						"value": "t_uint256"
					},
					"t_string_memory_ptr": {
						"encoding": "bytes",
						"label": "string",
						"numberOfBytes": "32"
					},
					"t_string_storage": {
						"encoding": "bytes",
						"label": "string",
						"numberOfBytes": "32"
					},
					"t_struct(People)88_storage": {
						"encoding": "inplace",
						"label": "struct SimpleStorage.People",
						"members": [
							{
								"astId": 83,
								"contract": "contracts/storage.sol:SimpleStorage",
								"label": "favNumber",
								"offset": 0,
								"slot": "0",
								"type": "t_uint256"
							},
							{
								"astId": 85,
								"contract": "contracts/storage.sol:SimpleStorage",
								"label": "name",
								"offset": 0,
								"slot": "1",
								"type": "t_string_storage"
							},
							{
								"astId": 87,
								"contract": "contracts/storage.sol:SimpleStorage",
								"label": "flag",
								"offset": 0,
								"slot": "2",
								"type": "t_bool"
							}
						],
						"numberOfBytes": "96"
					},
					"t_uint256": {
						"encoding": "inplace",
						"label": "uint256",
						"numberOfBytes": "32"
					}
				}
			},
			"userdoc": {
				"kind": "user",
				"methods": {},
				"version": 1
			}
		}
	}
}