{
	"data": {
		"bytecode": {
			"linkReferences": {},
			"object": "60a06040523480156200001157600080fd5b5060405162002cdd38038062002cdd833981810160405281019062000037919062000603565b620000476200021f60201b60201c565b600a620000559190620007da565b826200006291906200082b565b6040518060400160405280600d81526020017f546f6b656e436f6e7472616374000000000000000000000000000000000000008152506040518060400160405280600381526020017f544b4300000000000000000000000000000000000000000000000000000000008152508160039081620000df919062000ae6565b508060049081620000f1919062000ae6565b505050600081116200013a576040517f08c379a0000000000000000000000000000000000000000000000000000000008152600401620001319062000c2e565b60405180910390fd5b80608081815250505033600560006101000a81548173ffffffffffffffffffffffffffffffffffffffff021916908373ffffffffffffffffffffffffffffffffffffffff160217905550620001e6600560009054906101000a900473ffffffffffffffffffffffffffffffffffffffff16620001bb6200021f60201b60201c565b600a620001c99190620007da565b63042c1d80620001da91906200082b565b6200022860201b60201c565b620001f66200021f60201b60201c565b600a620002049190620007da565b816200021191906200082b565b600681905550505062000d9d565b60006012905090565b62000238620002b960201b60201c565b816200024e620002c360201b6200051a1760201c565b6200025a919062000c50565b11156200029e576040517f08c379a0000000000000000000000000000000000000000000000000000000008152600401620002959062000cdb565b60405180910390fd5b620002b58282620002cd60201b620009181760201c565b5050565b6000608051905090565b6000600254905090565b620002dd620002b960201b60201c565b81620002f3620002c360201b6200051a1760201c565b620002ff919062000c50565b111562000343576040517f08c379a00000000000000000000000000000000000000000000000000000000081526004016200033a9062000cdb565b60405180910390fd5b6200035a82826200035e60201b620009821760201c565b5050565b600073ffffffffffffffffffffffffffffffffffffffff168273ffffffffffffffffffffffffffffffffffffffff1603620003d0576040517f08c379a0000000000000000000000000000000000000000000000000000000008152600401620003c79062000d4d565b60405180910390fd5b620003e460008383620004cb60201b60201c565b8060026000828254620003f8919062000c50565b92505081905550806000808473ffffffffffffffffffffffffffffffffffffffff1673ffffffffffffffffffffffffffffffffffffffff168152602001908152602001600020600082825401925050819055508173ffffffffffffffffffffffffffffffffffffffff16600073ffffffffffffffffffffffffffffffffffffffff167fddf252ad1be2c89b69c2b068fc378daa952ba7f163c4a11628f55a4df523b3ef83604051620004ab919062000d80565b60405180910390a3620004c760008383620005a360201b60201c565b5050565b600073ffffffffffffffffffffffffffffffffffffffff168373ffffffffffffffffffffffffffffffffffffffff16141580156200053557504173ffffffffffffffffffffffffffffffffffffffff168273ffffffffffffffffffffffffffffffffffffffff1614155b80156200056f5750600073ffffffffffffffffffffffffffffffffffffffff164173ffffffffffffffffffffffffffffffffffffffff1614155b15620005865762000585620005a860201b60201c565b5b6200059e838383620005be60201b62000ad81760201c565b505050565b505050565b620005bc416006546200022860201b60201c565b565b505050565b600080fd5b6000819050919050565b620005dd81620005c8565b8114620005e957600080fd5b50565b600081519050620005fd81620005d2565b92915050565b600080604083850312156200061d576200061c620005c3565b5b60006200062d85828601620005ec565b92505060206200064085828601620005ec565b9150509250929050565b7f4e487b7100000000000000000000000000000000000000000000000000000000600052601160045260246000fd5b60008160011c9050919050565b6000808291508390505b6001851115620006d857808604811115620006b057620006af6200064a565b5b6001851615620006c05780820291505b8081029050620006d08562000679565b945062000690565b94509492505050565b600082620006f35760019050620007c6565b81620007035760009050620007c6565b81600181146200071c576002811462000727576200075d565b6001915050620007c6565b60ff8411156200073c576200073b6200064a565b5b8360020a9150848211156200075657620007556200064a565b5b50620007c6565b5060208310610133831016604e8410600b8410161715620007975782820a9050838111156200079157620007906200064a565b5b620007c6565b620007a6848484600162000686565b92509050818404811115620007c057620007bf6200064a565b5b81810290505b9392505050565b600060ff82169050919050565b6000620007e782620005c8565b9150620007f483620007cd565b9250620008237fffffffffffffffffffffffffffffffffffffffffffffffffffffffffffffffff8484620006e1565b905092915050565b60006200083882620005c8565b91506200084583620005c8565b92508282026200085581620005c8565b915082820484148315176200086f576200086e6200064a565b5b5092915050565b600081519050919050565b7f4e487b7100000000000000000000000000000000000000000000000000000000600052604160045260246000fd5b7f4e487b7100000000000000000000000000000000000000000000000000000000600052602260045260246000fd5b60006002820490506001821680620008f857607f821691505b6020821081036200090e576200090d620008b0565b5b50919050565b60008190508160005260206000209050919050565b60006020601f8301049050919050565b600082821b905092915050565b600060088302620009787fffffffffffffffffffffffffffffffffffffffffffffffffffffffffffffffff8262000939565b62000984868362000939565b95508019841693508086168417925050509392505050565b6000819050919050565b6000620009c7620009c1620009bb84620005c8565b6200099c565b620005c8565b9050919050565b6000819050919050565b620009e383620009a6565b620009fb620009f282620009ce565b84845462000946565b825550505050565b600090565b62000a1262000a03565b62000a1f818484620009d8565b505050565b5b8181101562000a475762000a3b60008262000a08565b60018101905062000a25565b5050565b601f82111562000a965762000a608162000914565b62000a6b8462000929565b8101602085101562000a7b578190505b62000a9362000a8a8562000929565b83018262000a24565b50505b505050565b600082821c905092915050565b600062000abb6000198460080262000a9b565b1980831691505092915050565b600062000ad6838362000aa8565b9150826002028217905092915050565b62000af18262000876565b67ffffffffffffffff81111562000b0d5762000b0c62000881565b5b62000b198254620008df565b62000b2682828562000a4b565b600060209050601f83116001811462000b5e576000841562000b49578287015190505b62000b55858262000ac8565b86555062000bc5565b601f19841662000b6e8662000914565b60005b8281101562000b985784890151825560018201915060208501945060208101905062000b71565b8683101562000bb8578489015162000bb4601f89168262000aa8565b8355505b6001600288020188555050505b505050505050565b600082825260208201905092915050565b7f45524332304361707065643a2063617020697320300000000000000000000000600082015250565b600062000c1660158362000bcd565b915062000c238262000bde565b602082019050919050565b6000602082019050818103600083015262000c498162000c07565b9050919050565b600062000c5d82620005c8565b915062000c6a83620005c8565b925082820190508082111562000c855762000c846200064a565b5b92915050565b7f45524332304361707065643a2063617020657863656564656400000000000000600082015250565b600062000cc360198362000bcd565b915062000cd08262000c8b565b602082019050919050565b6000602082019050818103600083015262000cf68162000cb4565b9050919050565b7f45524332303a206d696e7420746f20746865207a65726f206164647265737300600082015250565b600062000d35601f8362000bcd565b915062000d428262000cfd565b602082019050919050565b6000602082019050818103600083015262000d688162000d26565b9050919050565b62000d7a81620005c8565b82525050565b600060208201905062000d97600083018462000d6f565b92915050565b608051611f2462000db960003960006106180152611f246000f3fe608060405234801561001057600080fd5b50600436106101425760003560e01c806379cc6790116100b8578063bec3fa171161007c578063bec3fa171461038d578063c4e41b22146103a9578063cab25230146103c7578063dd62ed3e146103e3578063f38488ec14610413578063f8b2cb4f1461042f57610142565b806379cc6790146102d55780638da5cb5b146102f157806395d89b411461030f578063a457c2d71461032d578063a9059cbb1461035d57610142565b806323b872dd1161010a57806323b872dd146101ed578063313ce5671461021d578063355274ea1461023b578063395093511461025957806342966c681461028957806370a08231146102a557610142565b806306fdde0314610147578063095ea7b3146101655780630ac168a11461019557806318160ddd146101b35780631a18e707146101d1575b600080fd5b61014f61045f565b60405161015c919061134a565b60405180910390f35b61017f600480360381019061017a9190611405565b6104f1565b60405161018c9190611460565b60405180910390f35b61019d610514565b6040516101aa919061148a565b60405180910390f35b6101bb61051a565b6040516101c8919061148a565b60405180910390f35b6101eb60048036038101906101e691906114a5565b610524565b005b610207600480360381019061020291906114d2565b6105dc565b6040516102149190611460565b60405180910390f35b61022561060b565b6040516102329190611541565b60405180910390f35b610243610614565b604051610250919061148a565b60405180910390f35b610273600480360381019061026e9190611405565b61063c565b6040516102809190611460565b60405180910390f35b6102a3600480360381019061029e91906114a5565b610673565b005b6102bf60048036038101906102ba919061155c565b610687565b6040516102cc919061148a565b60405180910390f35b6102ef60048036038101906102ea9190611405565b6106cf565b005b6102f96106ef565b60405161030691906115aa565b60405180910390f35b610317610715565b604051610324919061134a565b60405180910390f35b61034760048036038101906103429190611405565b6107a7565b6040516103549190611460565b60405180910390f35b61037760048036038101906103729190611405565b61081e565b6040516103849190611460565b60405180910390f35b6103a760048036038101906103a29190611405565b610841565b005b6103b1610850565b6040516103be919061148a565b60405180910390f35b6103e160048036038101906103dc91906114d2565b61085f565b005b6103fd60048036038101906103f891906115c5565b610870565b60405161040a919061148a565b60405180910390f35b61042d60048036038101906104289190611405565b6108f7565b005b6104496004803603810190610444919061155c565b610906565b604051610456919061148a565b60405180910390f35b60606003805461046e90611634565b80601f016020809104026020016040519081016040528092919081815260200182805461049a90611634565b80156104e75780601f106104bc576101008083540402835291602001916104e7565b820191906000526020600020905b8154815290600101906020018083116104ca57829003601f168201915b5050505050905090565b6000806104fc610add565b9050610509818585610ae5565b600191505092915050565b60065481565b6000600254905090565b600560009054906101000a900473ffffffffffffffffffffffffffffffffffffffff1673ffffffffffffffffffffffffffffffffffffffff163373ffffffffffffffffffffffffffffffffffffffff16146105b4576040517f08c379a00000000000000000000000000000000000000000000000000000000081526004016105ab906116d7565b60405180910390fd5b6105bc61060b565b600a6105c89190611859565b816105d391906118a4565b60068190555050565b6000806105e7610add565b90506105f4858285610cae565b6105ff858585610d3a565b60019150509392505050565b60006012905090565b60007f0000000000000000000000000000000000000000000000000000000000000000905090565b600080610647610add565b90506106688185856106598589610870565b61066391906118e6565b610ae5565b600191505092915050565b61068461067e610add565b82610fb0565b50565b60008060008373ffffffffffffffffffffffffffffffffffffffff1673ffffffffffffffffffffffffffffffffffffffff168152602001908152602001600020549050919050565b6106e1826106db610add565b83610cae565b6106eb8282610fb0565b5050565b600560009054906101000a900473ffffffffffffffffffffffffffffffffffffffff1681565b60606004805461072490611634565b80601f016020809104026020016040519081016040528092919081815260200182805461075090611634565b801561079d5780601f106107725761010080835404028352916020019161079d565b820191906000526020600020905b81548152906001019060200180831161078057829003601f168201915b5050505050905090565b6000806107b2610add565b905060006107c08286610870565b905083811015610805576040517f08c379a00000000000000000000000000000000000000000000000000000000081526004016107fc9061198c565b60405180910390fd5b6108128286868403610ae5565b60019250505092915050565b600080610829610add565b9050610836818585610d3a565b600191505092915050565b61084c338383610d3a565b5050565b600061085a61051a565b905090565b61086a8383836105dc565b50505050565b6000600160008473ffffffffffffffffffffffffffffffffffffffff1673ffffffffffffffffffffffffffffffffffffffff16815260200190815260200160002060008373ffffffffffffffffffffffffffffffffffffffff1673ffffffffffffffffffffffffffffffffffffffff16815260200190815260200160002054905092915050565b610902338383610ae5565b5050565b600061091182610687565b9050919050565b610920610614565b8161092961051a565b61093391906118e6565b1115610974576040517f08c379a000000000000000000000000000000000000000000000000000000000815260040161096b906119f8565b60405180910390fd5b61097e8282610982565b5050565b600073ffffffffffffffffffffffffffffffffffffffff168273ffffffffffffffffffffffffffffffffffffffff16036109f1576040517f08c379a00000000000000000000000000000000000000000000000000000000081526004016109e890611a64565b60405180910390fd5b6109fd6000838361117d565b8060026000828254610a0f91906118e6565b92505081905550806000808473ffffffffffffffffffffffffffffffffffffffff1673ffffffffffffffffffffffffffffffffffffffff168152602001908152602001600020600082825401925050819055508173ffffffffffffffffffffffffffffffffffffffff16600073ffffffffffffffffffffffffffffffffffffffff167fddf252ad1be2c89b69c2b068fc378daa952ba7f163c4a11628f55a4df523b3ef83604051610ac0919061148a565b60405180910390a3610ad46000838361123d565b5050565b505050565b600033905090565b600073ffffffffffffffffffffffffffffffffffffffff168373ffffffffffffffffffffffffffffffffffffffff1603610b54576040517f08c379a0000000000000000000000000000000000000000000000000000000008152600401610b4b90611af6565b60405180910390fd5b600073ffffffffffffffffffffffffffffffffffffffff168273ffffffffffffffffffffffffffffffffffffffff1603610bc3576040517f08c379a0000000000000000000000000000000000000000000000000000000008152600401610bba90611b88565b60405180910390fd5b80600160008573ffffffffffffffffffffffffffffffffffffffff1673ffffffffffffffffffffffffffffffffffffffff16815260200190815260200160002060008473ffffffffffffffffffffffffffffffffffffffff1673ffffffffffffffffffffffffffffffffffffffff168152602001908152602001600020819055508173ffffffffffffffffffffffffffffffffffffffff168373ffffffffffffffffffffffffffffffffffffffff167f8c5be1e5ebec7d5bd14f71427d1e84f3dd0314c0f7b2291e5b200ac8c7c3b92583604051610ca1919061148a565b60405180910390a3505050565b6000610cba8484610870565b90507fffffffffffffffffffffffffffffffffffffffffffffffffffffffffffffffff8114610d345781811015610d26576040517f08c379a0000000000000000000000000000000000000000000000000000000008152600401610d1d90611bf4565b60405180910390fd5b610d338484848403610ae5565b5b50505050565b600073ffffffffffffffffffffffffffffffffffffffff168373ffffffffffffffffffffffffffffffffffffffff1603610da9576040517f08c379a0000000000000000000000000000000000000000000000000000000008152600401610da090611c86565b60405180910390fd5b600073ffffffffffffffffffffffffffffffffffffffff168273ffffffffffffffffffffffffffffffffffffffff1603610e18576040517f08c379a0000000000000000000000000000000000000000000000000000000008152600401610e0f90611d18565b60405180910390fd5b610e2383838361117d565b60008060008573ffffffffffffffffffffffffffffffffffffffff1673ffffffffffffffffffffffffffffffffffffffff16815260200190815260200160002054905081811015610ea9576040517f08c379a0000000000000000000000000000000000000000000000000000000008152600401610ea090611daa565b60405180910390fd5b8181036000808673ffffffffffffffffffffffffffffffffffffffff1673ffffffffffffffffffffffffffffffffffffffff16815260200190815260200160002081905550816000808573ffffffffffffffffffffffffffffffffffffffff1673ffffffffffffffffffffffffffffffffffffffff168152602001908152602001600020600082825401925050819055508273ffffffffffffffffffffffffffffffffffffffff168473ffffffffffffffffffffffffffffffffffffffff167fddf252ad1be2c89b69c2b068fc378daa952ba7f163c4a11628f55a4df523b3ef84604051610f97919061148a565b60405180910390a3610faa84848461123d565b50505050565b600073ffffffffffffffffffffffffffffffffffffffff168273ffffffffffffffffffffffffffffffffffffffff160361101f576040517f08c379a000000000000000000000000000000000000000000000000000000000815260040161101690611e3c565b60405180910390fd5b61102b8260008361117d565b60008060008473ffffffffffffffffffffffffffffffffffffffff1673ffffffffffffffffffffffffffffffffffffffff168152602001908152602001600020549050818110156110b1576040517f08c379a00000000000000000000000000000000000000000000000000000000081526004016110a890611ece565b60405180910390fd5b8181036000808573ffffffffffffffffffffffffffffffffffffffff1673ffffffffffffffffffffffffffffffffffffffff1681526020019081526020016000208190555081600260008282540392505081905550600073ffffffffffffffffffffffffffffffffffffffff168373ffffffffffffffffffffffffffffffffffffffff167fddf252ad1be2c89b69c2b068fc378daa952ba7f163c4a11628f55a4df523b3ef84604051611164919061148a565b60405180910390a36111788360008461123d565b505050565b600073ffffffffffffffffffffffffffffffffffffffff168373ffffffffffffffffffffffffffffffffffffffff16141580156111e657504173ffffffffffffffffffffffffffffffffffffffff168273ffffffffffffffffffffffffffffffffffffffff1614155b801561121f5750600073ffffffffffffffffffffffffffffffffffffffff164173ffffffffffffffffffffffffffffffffffffffff1614155b1561122d5761122c611242565b5b611238838383610ad8565b505050565b505050565b61124e41600654611250565b565b611258610614565b8161126161051a565b61126b91906118e6565b11156112ac576040517f08c379a00000000000000000000000000000000000000000000000000000000081526004016112a3906119f8565b60405180910390fd5b6112b68282610918565b5050565b600081519050919050565b600082825260208201905092915050565b60005b838110156112f45780820151818401526020810190506112d9565b60008484015250505050565b6000601f19601f8301169050919050565b600061131c826112ba565b61132681856112c5565b93506113368185602086016112d6565b61133f81611300565b840191505092915050565b600060208201905081810360008301526113648184611311565b905092915050565b600080fd5b600073ffffffffffffffffffffffffffffffffffffffff82169050919050565b600061139c82611371565b9050919050565b6113ac81611391565b81146113b757600080fd5b50565b6000813590506113c9816113a3565b92915050565b6000819050919050565b6113e2816113cf565b81146113ed57600080fd5b50565b6000813590506113ff816113d9565b92915050565b6000806040838503121561141c5761141b61136c565b5b600061142a858286016113ba565b925050602061143b858286016113f0565b9150509250929050565b60008115159050919050565b61145a81611445565b82525050565b60006020820190506114756000830184611451565b92915050565b611484816113cf565b82525050565b600060208201905061149f600083018461147b565b92915050565b6000602082840312156114bb576114ba61136c565b5b60006114c9848285016113f0565b91505092915050565b6000806000606084860312156114eb576114ea61136c565b5b60006114f9868287016113ba565b935050602061150a868287016113ba565b925050604061151b868287016113f0565b9150509250925092565b600060ff82169050919050565b61153b81611525565b82525050565b60006020820190506115566000830184611532565b92915050565b6000602082840312156115725761157161136c565b5b6000611580848285016113ba565b91505092915050565b600061159482611371565b9050919050565b6115a481611589565b82525050565b60006020820190506115bf600083018461159b565b92915050565b600080604083850312156115dc576115db61136c565b5b60006115ea858286016113ba565b92505060206115fb858286016113ba565b9150509250929050565b7f4e487b7100000000000000000000000000000000000000000000000000000000600052602260045260246000fd5b6000600282049050600182168061164c57607f821691505b60208210810361165f5761165e611605565b5b50919050565b7f4f6e6c7920746865206f776e65722063616e2063616c6c20746869732066756e60008201527f6374696f6e000000000000000000000000000000000000000000000000000000602082015250565b60006116c16025836112c5565b91506116cc82611665565b604082019050919050565b600060208201905081810360008301526116f0816116b4565b9050919050565b7f4e487b7100000000000000000000000000000000000000000000000000000000600052601160045260246000fd5b60008160011c9050919050565b6000808291508390505b600185111561177d57808604811115611759576117586116f7565b5b60018516156117685780820291505b808102905061177685611726565b945061173d565b94509492505050565b6000826117965760019050611852565b816117a45760009050611852565b81600181146117ba57600281146117c4576117f3565b6001915050611852565b60ff8411156117d6576117d56116f7565b5b8360020a9150848211156117ed576117ec6116f7565b5b50611852565b5060208310610133831016604e8410600b84101617156118285782820a905083811115611823576118226116f7565b5b611852565b6118358484846001611733565b9250905081840481111561184c5761184b6116f7565b5b81810290505b9392505050565b6000611864826113cf565b915061186f83611525565b925061189c7fffffffffffffffffffffffffffffffffffffffffffffffffffffffffffffffff8484611786565b905092915050565b60006118af826113cf565b91506118ba836113cf565b92508282026118c8816113cf565b915082820484148315176118df576118de6116f7565b5b5092915050565b60006118f1826113cf565b91506118fc836113cf565b9250828201905080821115611914576119136116f7565b5b92915050565b7f45524332303a2064656372656173656420616c6c6f77616e63652062656c6f7760008201527f207a65726f000000000000000000000000000000000000000000000000000000602082015250565b60006119766025836112c5565b91506119818261191a565b604082019050919050565b600060208201905081810360008301526119a581611969565b9050919050565b7f45524332304361707065643a2063617020657863656564656400000000000000600082015250565b60006119e26019836112c5565b91506119ed826119ac565b602082019050919050565b60006020820190508181036000830152611a11816119d5565b9050919050565b7f45524332303a206d696e7420746f20746865207a65726f206164647265737300600082015250565b6000611a4e601f836112c5565b9150611a5982611a18565b602082019050919050565b60006020820190508181036000830152611a7d81611a41565b9050919050565b7f45524332303a20617070726f76652066726f6d20746865207a65726f2061646460008201527f7265737300000000000000000000000000000000000000000000000000000000602082015250565b6000611ae06024836112c5565b9150611aeb82611a84565b604082019050919050565b60006020820190508181036000830152611b0f81611ad3565b9050919050565b7f45524332303a20617070726f766520746f20746865207a65726f20616464726560008201527f7373000000000000000000000000000000000000000000000000000000000000602082015250565b6000611b726022836112c5565b9150611b7d82611b16565b604082019050919050565b60006020820190508181036000830152611ba181611b65565b9050919050565b7f45524332303a20696e73756666696369656e7420616c6c6f77616e6365000000600082015250565b6000611bde601d836112c5565b9150611be982611ba8565b602082019050919050565b60006020820190508181036000830152611c0d81611bd1565b9050919050565b7f45524332303a207472616e736665722066726f6d20746865207a65726f20616460008201527f6472657373000000000000000000000000000000000000000000000000000000602082015250565b6000611c706025836112c5565b9150611c7b82611c14565b604082019050919050565b60006020820190508181036000830152611c9f81611c63565b9050919050565b7f45524332303a207472616e7366657220746f20746865207a65726f206164647260008201527f6573730000000000000000000000000000000000000000000000000000000000602082015250565b6000611d026023836112c5565b9150611d0d82611ca6565b604082019050919050565b60006020820190508181036000830152611d3181611cf5565b9050919050565b7f45524332303a207472616e7366657220616d6f756e742065786365656473206260008201527f616c616e63650000000000000000000000000000000000000000000000000000602082015250565b6000611d946026836112c5565b9150611d9f82611d38565b604082019050919050565b60006020820190508181036000830152611dc381611d87565b9050919050565b7f45524332303a206275726e2066726f6d20746865207a65726f2061646472657360008201527f7300000000000000000000000000000000000000000000000000000000000000602082015250565b6000611e266021836112c5565b9150611e3182611dca565b604082019050919050565b60006020820190508181036000830152611e5581611e19565b9050919050565b7f45524332303a206275726e20616d6f756e7420657863656564732062616c616e60008201527f6365000000000000000000000000000000000000000000000000000000000000602082015250565b6000611eb86022836112c5565b9150611ec382611e5c565b604082019050919050565b60006020820190508181036000830152611ee781611eab565b905091905056fea264697066735822122005afc76373bcb09f38d9ffc988766154c58a2ad38aeb223b9626a41bae976a1764736f6c63430008120033",
			"opcodes": "PUSH1 0xA0 PUSH1 0x40 MSTORE CALLVALUE DUP1 ISZERO PUSH3 0x11 JUMPI PUSH1 0x0 DUP1 REVERT JUMPDEST POP PUSH1 0x40 MLOAD PUSH3 0x2CDD CODESIZE SUB DUP1 PUSH3 0x2CDD DUP4 CODECOPY DUP2 DUP2 ADD PUSH1 0x40 MSTORE DUP2 ADD SWAP1 PUSH3 0x37 SWAP2 SWAP1 PUSH3 0x603 JUMP JUMPDEST PUSH3 0x47 PUSH3 0x21F PUSH1 0x20 SHL PUSH1 0x20 SHR JUMP JUMPDEST PUSH1 0xA PUSH3 0x55 SWAP2 SWAP1 PUSH3 0x7DA JUMP JUMPDEST DUP3 PUSH3 0x62 SWAP2 SWAP1 PUSH3 0x82B JUMP JUMPDEST PUSH1 0x40 MLOAD DUP1 PUSH1 0x40 ADD PUSH1 0x40 MSTORE DUP1 PUSH1 0xD DUP2 MSTORE PUSH1 0x20 ADD PUSH32 0x546F6B656E436F6E747261637400000000000000000000000000000000000000 DUP2 MSTORE POP PUSH1 0x40 MLOAD DUP1 PUSH1 0x40 ADD PUSH1 0x40 MSTORE DUP1 PUSH1 0x3 DUP2 MSTORE PUSH1 0x20 ADD PUSH32 0x544B430000000000000000000000000000000000000000000000000000000000 DUP2 MSTORE POP DUP2 PUSH1 0x3 SWAP1 DUP2 PUSH3 0xDF SWAP2 SWAP1 PUSH3 0xAE6 JUMP JUMPDEST POP DUP1 PUSH1 0x4 SWAP1 DUP2 PUSH3 0xF1 SWAP2 SWAP1 PUSH3 0xAE6 JUMP JUMPDEST POP POP POP PUSH1 0x0 DUP2 GT PUSH3 0x13A JUMPI PUSH1 0x40 MLOAD PUSH32 0x8C379A000000000000000000000000000000000000000000000000000000000 DUP2 MSTORE PUSH1 0x4 ADD PUSH3 0x131 SWAP1 PUSH3 0xC2E JUMP JUMPDEST PUSH1 0x40 MLOAD DUP1 SWAP2 SUB SWAP1 REVERT JUMPDEST DUP1 PUSH1 0x80 DUP2 DUP2 MSTORE POP POP POP CALLER PUSH1 0x5 PUSH1 0x0 PUSH2 0x100 EXP DUP2 SLOAD DUP2 PUSH20 0xFFFFFFFFFFFFFFFFFFFFFFFFFFFFFFFFFFFFFFFF MUL NOT AND SWAP1 DUP4 PUSH20 0xFFFFFFFFFFFFFFFFFFFFFFFFFFFFFFFFFFFFFFFF AND MUL OR SWAP1 SSTORE POP PUSH3 0x1E6 PUSH1 0x5 PUSH1 0x0 SWAP1 SLOAD SWAP1 PUSH2 0x100 EXP SWAP1 DIV PUSH20 0xFFFFFFFFFFFFFFFFFFFFFFFFFFFFFFFFFFFFFFFF AND PUSH3 0x1BB PUSH3 0x21F PUSH1 0x20 SHL PUSH1 0x20 SHR JUMP JUMPDEST PUSH1 0xA PUSH3 0x1C9 SWAP2 SWAP1 PUSH3 0x7DA JUMP JUMPDEST PUSH4 0x42C1D80 PUSH3 0x1DA SWAP2 SWAP1 PUSH3 0x82B JUMP JUMPDEST PUSH3 0x228 PUSH1 0x20 SHL PUSH1 0x20 SHR JUMP JUMPDEST PUSH3 0x1F6 PUSH3 0x21F PUSH1 0x20 SHL PUSH1 0x20 SHR JUMP JUMPDEST PUSH1 0xA PUSH3 0x204 SWAP2 SWAP1 PUSH3 0x7DA JUMP JUMPDEST DUP2 PUSH3 0x211 SWAP2 SWAP1 PUSH3 0x82B JUMP JUMPDEST PUSH1 0x6 DUP2 SWAP1 SSTORE POP POP POP PUSH3 0xD9D JUMP JUMPDEST PUSH1 0x0 PUSH1 0x12 SWAP1 POP SWAP1 JUMP JUMPDEST PUSH3 0x238 PUSH3 0x2B9 PUSH1 0x20 SHL PUSH1 0x20 SHR JUMP JUMPDEST DUP2 PUSH3 0x24E PUSH3 0x2C3 PUSH1 0x20 SHL PUSH3 0x51A OR PUSH1 0x20 SHR JUMP JUMPDEST PUSH3 0x25A SWAP2 SWAP1 PUSH3 0xC50 JUMP JUMPDEST GT ISZERO PUSH3 0x29E JUMPI PUSH1 0x40 MLOAD PUSH32 0x8C379A000000000000000000000000000000000000000000000000000000000 DUP2 MSTORE PUSH1 0x4 ADD PUSH3 0x295 SWAP1 PUSH3 0xCDB JUMP JUMPDEST PUSH1 0x40 MLOAD DUP1 SWAP2 SUB SWAP1 REVERT JUMPDEST PUSH3 0x2B5 DUP3 DUP3 PUSH3 0x2CD PUSH1 0x20 SHL PUSH3 0x918 OR PUSH1 0x20 SHR JUMP JUMPDEST POP POP JUMP JUMPDEST PUSH1 0x0 PUSH1 0x80 MLOAD SWAP1 POP SWAP1 JUMP JUMPDEST PUSH1 0x0 PUSH1 0x2 SLOAD SWAP1 POP SWAP1 JUMP JUMPDEST PUSH3 0x2DD PUSH3 0x2B9 PUSH1 0x20 SHL PUSH1 0x20 SHR JUMP JUMPDEST DUP2 PUSH3 0x2F3 PUSH3 0x2C3 PUSH1 0x20 SHL PUSH3 0x51A OR PUSH1 0x20 SHR JUMP JUMPDEST PUSH3 0x2FF SWAP2 SWAP1 PUSH3 0xC50 JUMP JUMPDEST GT ISZERO PUSH3 0x343 JUMPI PUSH1 0x40 MLOAD PUSH32 0x8C379A000000000000000000000000000000000000000000000000000000000 DUP2 MSTORE PUSH1 0x4 ADD PUSH3 0x33A SWAP1 PUSH3 0xCDB JUMP JUMPDEST PUSH1 0x40 MLOAD DUP1 SWAP2 SUB SWAP1 REVERT JUMPDEST PUSH3 0x35A DUP3 DUP3 PUSH3 0x35E PUSH1 0x20 SHL PUSH3 0x982 OR PUSH1 0x20 SHR JUMP JUMPDEST POP POP JUMP JUMPDEST PUSH1 0x0 PUSH20 0xFFFFFFFFFFFFFFFFFFFFFFFFFFFFFFFFFFFFFFFF AND DUP3 PUSH20 0xFFFFFFFFFFFFFFFFFFFFFFFFFFFFFFFFFFFFFFFF AND SUB PUSH3 0x3D0 JUMPI PUSH1 0x40 MLOAD PUSH32 0x8C379A000000000000000000000000000000000000000000000000000000000 DUP2 MSTORE PUSH1 0x4 ADD PUSH3 0x3C7 SWAP1 PUSH3 0xD4D JUMP JUMPDEST PUSH1 0x40 MLOAD DUP1 SWAP2 SUB SWAP1 REVERT JUMPDEST PUSH3 0x3E4 PUSH1 0x0 DUP4 DUP4 PUSH3 0x4CB PUSH1 0x20 SHL PUSH1 0x20 SHR JUMP JUMPDEST DUP1 PUSH1 0x2 PUSH1 0x0 DUP3 DUP3 SLOAD PUSH3 0x3F8 SWAP2 SWAP1 PUSH3 0xC50 JUMP JUMPDEST SWAP3 POP POP DUP2 SWAP1 SSTORE POP DUP1 PUSH1 0x0 DUP1 DUP5 PUSH20 0xFFFFFFFFFFFFFFFFFFFFFFFFFFFFFFFFFFFFFFFF AND PUSH20 0xFFFFFFFFFFFFFFFFFFFFFFFFFFFFFFFFFFFFFFFF AND DUP2 MSTORE PUSH1 0x20 ADD SWAP1 DUP2 MSTORE PUSH1 0x20 ADD PUSH1 0x0 KECCAK256 PUSH1 0x0 DUP3 DUP3 SLOAD ADD SWAP3 POP POP DUP2 SWAP1 SSTORE POP DUP2 PUSH20 0xFFFFFFFFFFFFFFFFFFFFFFFFFFFFFFFFFFFFFFFF AND PUSH1 0x0 PUSH20 0xFFFFFFFFFFFFFFFFFFFFFFFFFFFFFFFFFFFFFFFF AND PUSH32 0xDDF252AD1BE2C89B69C2B068FC378DAA952BA7F163C4A11628F55A4DF523B3EF DUP4 PUSH1 0x40 MLOAD PUSH3 0x4AB SWAP2 SWAP1 PUSH3 0xD80 JUMP JUMPDEST PUSH1 0x40 MLOAD DUP1 SWAP2 SUB SWAP1 LOG3 PUSH3 0x4C7 PUSH1 0x0 DUP4 DUP4 PUSH3 0x5A3 PUSH1 0x20 SHL PUSH1 0x20 SHR JUMP JUMPDEST POP POP JUMP JUMPDEST PUSH1 0x0 PUSH20 0xFFFFFFFFFFFFFFFFFFFFFFFFFFFFFFFFFFFFFFFF AND DUP4 PUSH20 0xFFFFFFFFFFFFFFFFFFFFFFFFFFFFFFFFFFFFFFFF AND EQ ISZERO DUP1 ISZERO PUSH3 0x535 JUMPI POP COINBASE PUSH20 0xFFFFFFFFFFFFFFFFFFFFFFFFFFFFFFFFFFFFFFFF AND DUP3 PUSH20 0xFFFFFFFFFFFFFFFFFFFFFFFFFFFFFFFFFFFFFFFF AND EQ ISZERO JUMPDEST DUP1 ISZERO PUSH3 0x56F JUMPI POP PUSH1 0x0 PUSH20 0xFFFFFFFFFFFFFFFFFFFFFFFFFFFFFFFFFFFFFFFF AND COINBASE PUSH20 0xFFFFFFFFFFFFFFFFFFFFFFFFFFFFFFFFFFFFFFFF AND EQ ISZERO JUMPDEST ISZERO PUSH3 0x586 JUMPI PUSH3 0x585 PUSH3 0x5A8 PUSH1 0x20 SHL PUSH1 0x20 SHR JUMP JUMPDEST JUMPDEST PUSH3 0x59E DUP4 DUP4 DUP4 PUSH3 0x5BE PUSH1 0x20 SHL PUSH3 0xAD8 OR PUSH1 0x20 SHR JUMP JUMPDEST POP POP POP JUMP JUMPDEST POP POP POP JUMP JUMPDEST PUSH3 0x5BC COINBASE PUSH1 0x6 SLOAD PUSH3 0x228 PUSH1 0x20 SHL PUSH1 0x20 SHR JUMP JUMPDEST JUMP JUMPDEST POP POP POP JUMP JUMPDEST PUSH1 0x0 DUP1 REVERT JUMPDEST PUSH1 0x0 DUP2 SWAP1 POP SWAP2 SWAP1 POP JUMP JUMPDEST PUSH3 0x5DD DUP2 PUSH3 0x5C8 JUMP JUMPDEST DUP2 EQ PUSH3 0x5E9 JUMPI PUSH1 0x0 DUP1 REVERT JUMPDEST POP JUMP JUMPDEST PUSH1 0x0 DUP2 MLOAD SWAP1 POP PUSH3 0x5FD DUP2 PUSH3 0x5D2 JUMP JUMPDEST SWAP3 SWAP2 POP POP JUMP JUMPDEST PUSH1 0x0 DUP1 PUSH1 0x40 DUP4 DUP6 SUB SLT ISZERO PUSH3 0x61D JUMPI PUSH3 0x61C PUSH3 0x5C3 JUMP JUMPDEST JUMPDEST PUSH1 0x0 PUSH3 0x62D DUP6 DUP3 DUP7 ADD PUSH3 0x5EC JUMP JUMPDEST SWAP3 POP POP PUSH1 0x20 PUSH3 0x640 DUP6 DUP3 DUP7 ADD PUSH3 0x5EC JUMP JUMPDEST SWAP2 POP POP SWAP3 POP SWAP3 SWAP1 POP JUMP JUMPDEST PUSH32 0x4E487B7100000000000000000000000000000000000000000000000000000000 PUSH1 0x0 MSTORE PUSH1 0x11 PUSH1 0x4 MSTORE PUSH1 0x24 PUSH1 0x0 REVERT JUMPDEST PUSH1 0x0 DUP2 PUSH1 0x1 SHR SWAP1 POP SWAP2 SWAP1 POP JUMP JUMPDEST PUSH1 0x0 DUP1 DUP3 SWAP2 POP DUP4 SWAP1 POP JUMPDEST PUSH1 0x1 DUP6 GT ISZERO PUSH3 0x6D8 JUMPI DUP1 DUP7 DIV DUP2 GT ISZERO PUSH3 0x6B0 JUMPI PUSH3 0x6AF PUSH3 0x64A JUMP JUMPDEST JUMPDEST PUSH1 0x1 DUP6 AND ISZERO PUSH3 0x6C0 JUMPI DUP1 DUP3 MUL SWAP2 POP JUMPDEST DUP1 DUP2 MUL SWAP1 POP PUSH3 0x6D0 DUP6 PUSH3 0x679 JUMP JUMPDEST SWAP5 POP PUSH3 0x690 JUMP JUMPDEST SWAP5 POP SWAP5 SWAP3 POP POP POP JUMP JUMPDEST PUSH1 0x0 DUP3 PUSH3 0x6F3 JUMPI PUSH1 0x1 SWAP1 POP PUSH3 0x7C6 JUMP JUMPDEST DUP2 PUSH3 0x703 JUMPI PUSH1 0x0 SWAP1 POP PUSH3 0x7C6 JUMP JUMPDEST DUP2 PUSH1 0x1 DUP2 EQ PUSH3 0x71C JUMPI PUSH1 0x2 DUP2 EQ PUSH3 0x727 JUMPI PUSH3 0x75D JUMP JUMPDEST PUSH1 0x1 SWAP2 POP POP PUSH3 0x7C6 JUMP JUMPDEST PUSH1 0xFF DUP5 GT ISZERO PUSH3 0x73C JUMPI PUSH3 0x73B PUSH3 0x64A JUMP JUMPDEST JUMPDEST DUP4 PUSH1 0x2 EXP SWAP2 POP DUP5 DUP3 GT ISZERO PUSH3 0x756 JUMPI PUSH3 0x755 PUSH3 0x64A JUMP JUMPDEST JUMPDEST POP PUSH3 0x7C6 JUMP JUMPDEST POP PUSH1 0x20 DUP4 LT PUSH2 0x133 DUP4 LT AND PUSH1 0x4E DUP5 LT PUSH1 0xB DUP5 LT AND OR ISZERO PUSH3 0x797 JUMPI DUP3 DUP3 EXP SWAP1 POP DUP4 DUP2 GT ISZERO PUSH3 0x791 JUMPI PUSH3 0x790 PUSH3 0x64A JUMP JUMPDEST JUMPDEST PUSH3 0x7C6 JUMP JUMPDEST PUSH3 0x7A6 DUP5 DUP5 DUP5 PUSH1 0x1 PUSH3 0x686 JUMP JUMPDEST SWAP3 POP SWAP1 POP DUP2 DUP5 DIV DUP2 GT ISZERO PUSH3 0x7C0 JUMPI PUSH3 0x7BF PUSH3 0x64A JUMP JUMPDEST JUMPDEST DUP2 DUP2 MUL SWAP1 POP JUMPDEST SWAP4 SWAP3 POP POP POP JUMP JUMPDEST PUSH1 0x0 PUSH1 0xFF DUP3 AND SWAP1 POP SWAP2 SWAP1 POP JUMP JUMPDEST PUSH1 0x0 PUSH3 0x7E7 DUP3 PUSH3 0x5C8 JUMP JUMPDEST SWAP2 POP PUSH3 0x7F4 DUP4 PUSH3 0x7CD JUMP JUMPDEST SWAP3 POP PUSH3 0x823 PUSH32 0xFFFFFFFFFFFFFFFFFFFFFFFFFFFFFFFFFFFFFFFFFFFFFFFFFFFFFFFFFFFFFFFF DUP5 DUP5 PUSH3 0x6E1 JUMP JUMPDEST SWAP1 POP SWAP3 SWAP2 POP POP JUMP JUMPDEST PUSH1 0x0 PUSH3 0x838 DUP3 PUSH3 0x5C8 JUMP JUMPDEST SWAP2 POP PUSH3 0x845 DUP4 PUSH3 0x5C8 JUMP JUMPDEST SWAP3 POP DUP3 DUP3 MUL PUSH3 0x855 DUP2 PUSH3 0x5C8 JUMP JUMPDEST SWAP2 POP DUP3 DUP3 DIV DUP5 EQ DUP4 ISZERO OR PUSH3 0x86F JUMPI PUSH3 0x86E PUSH3 0x64A JUMP JUMPDEST JUMPDEST POP SWAP3 SWAP2 POP POP JUMP JUMPDEST PUSH1 0x0 DUP2 MLOAD SWAP1 POP SWAP2 SWAP1 POP JUMP JUMPDEST PUSH32 0x4E487B7100000000000000000000000000000000000000000000000000000000 PUSH1 0x0 MSTORE PUSH1 0x41 PUSH1 0x4 MSTORE PUSH1 0x24 PUSH1 0x0 REVERT JUMPDEST PUSH32 0x4E487B7100000000000000000000000000000000000000000000000000000000 PUSH1 0x0 MSTORE PUSH1 0x22 PUSH1 0x4 MSTORE PUSH1 0x24 PUSH1 0x0 REVERT JUMPDEST PUSH1 0x0 PUSH1 0x2 DUP3 DIV SWAP1 POP PUSH1 0x1 DUP3 AND DUP1 PUSH3 0x8F8 JUMPI PUSH1 0x7F DUP3 AND SWAP2 POP JUMPDEST PUSH1 0x20 DUP3 LT DUP2 SUB PUSH3 0x90E JUMPI PUSH3 0x90D PUSH3 0x8B0 JUMP JUMPDEST JUMPDEST POP SWAP2 SWAP1 POP JUMP JUMPDEST PUSH1 0x0 DUP2 SWAP1 POP DUP2 PUSH1 0x0 MSTORE PUSH1 0x20 PUSH1 0x0 KECCAK256 SWAP1 POP SWAP2 SWAP1 POP JUMP JUMPDEST PUSH1 0x0 PUSH1 0x20 PUSH1 0x1F DUP4 ADD DIV SWAP1 POP SWAP2 SWAP1 POP JUMP JUMPDEST PUSH1 0x0 DUP3 DUP3 SHL SWAP1 POP SWAP3 SWAP2 POP POP JUMP JUMPDEST PUSH1 0x0 PUSH1 0x8 DUP4 MUL PUSH3 0x978 PUSH32 0xFFFFFFFFFFFFFFFFFFFFFFFFFFFFFFFFFFFFFFFFFFFFFFFFFFFFFFFFFFFFFFFF DUP3 PUSH3 0x939 JUMP JUMPDEST PUSH3 0x984 DUP7 DUP4 PUSH3 0x939 JUMP JUMPDEST SWAP6 POP DUP1 NOT DUP5 AND SWAP4 POP DUP1 DUP7 AND DUP5 OR SWAP3 POP POP POP SWAP4 SWAP3 POP POP POP JUMP JUMPDEST PUSH1 0x0 DUP2 SWAP1 POP SWAP2 SWAP1 POP JUMP JUMPDEST PUSH1 0x0 PUSH3 0x9C7 PUSH3 0x9C1 PUSH3 0x9BB DUP5 PUSH3 0x5C8 JUMP JUMPDEST PUSH3 0x99C JUMP JUMPDEST PUSH3 0x5C8 JUMP JUMPDEST SWAP1 POP SWAP2 SWAP1 POP JUMP JUMPDEST PUSH1 0x0 DUP2 SWAP1 POP SWAP2 SWAP1 POP JUMP JUMPDEST PUSH3 0x9E3 DUP4 PUSH3 0x9A6 JUMP JUMPDEST PUSH3 0x9FB PUSH3 0x9F2 DUP3 PUSH3 0x9CE JUMP JUMPDEST DUP5 DUP5 SLOAD PUSH3 0x946 JUMP JUMPDEST DUP3 SSTORE POP POP POP POP JUMP JUMPDEST PUSH1 0x0 SWAP1 JUMP JUMPDEST PUSH3 0xA12 PUSH3 0xA03 JUMP JUMPDEST PUSH3 0xA1F DUP2 DUP5 DUP5 PUSH3 0x9D8 JUMP JUMPDEST POP POP POP JUMP JUMPDEST JUMPDEST DUP2 DUP2 LT ISZERO PUSH3 0xA47 JUMPI PUSH3 0xA3B PUSH1 0x0 DUP3 PUSH3 0xA08 JUMP JUMPDEST PUSH1 0x1 DUP2 ADD SWAP1 POP PUSH3 0xA25 JUMP JUMPDEST POP POP JUMP JUMPDEST PUSH1 0x1F DUP3 GT ISZERO PUSH3 0xA96 JUMPI PUSH3 0xA60 DUP2 PUSH3 0x914 JUMP JUMPDEST PUSH3 0xA6B DUP5 PUSH3 0x929 JUMP JUMPDEST DUP2 ADD PUSH1 0x20 DUP6 LT ISZERO PUSH3 0xA7B JUMPI DUP2 SWAP1 POP JUMPDEST PUSH3 0xA93 PUSH3 0xA8A DUP6 PUSH3 0x929 JUMP JUMPDEST DUP4 ADD DUP3 PUSH3 0xA24 JUMP JUMPDEST POP POP JUMPDEST POP POP POP JUMP JUMPDEST PUSH1 0x0 DUP3 DUP3 SHR SWAP1 POP SWAP3 SWAP2 POP POP JUMP JUMPDEST PUSH1 0x0 PUSH3 0xABB PUSH1 0x0 NOT DUP5 PUSH1 0x8 MUL PUSH3 0xA9B JUMP JUMPDEST NOT DUP1 DUP4 AND SWAP2 POP POP SWAP3 SWAP2 POP POP JUMP JUMPDEST PUSH1 0x0 PUSH3 0xAD6 DUP4 DUP4 PUSH3 0xAA8 JUMP JUMPDEST SWAP2 POP DUP3 PUSH1 0x2 MUL DUP3 OR SWAP1 POP SWAP3 SWAP2 POP POP JUMP JUMPDEST PUSH3 0xAF1 DUP3 PUSH3 0x876 JUMP JUMPDEST PUSH8 0xFFFFFFFFFFFFFFFF DUP2 GT ISZERO PUSH3 0xB0D JUMPI PUSH3 0xB0C PUSH3 0x881 JUMP JUMPDEST JUMPDEST PUSH3 0xB19 DUP3 SLOAD PUSH3 0x8DF JUMP JUMPDEST PUSH3 0xB26 DUP3 DUP3 DUP6 PUSH3 0xA4B JUMP JUMPDEST PUSH1 0x0 PUSH1 0x20 SWAP1 POP PUSH1 0x1F DUP4 GT PUSH1 0x1 DUP2 EQ PUSH3 0xB5E JUMPI PUSH1 0x0 DUP5 ISZERO PUSH3 0xB49 JUMPI DUP3 DUP8 ADD MLOAD SWAP1 POP JUMPDEST PUSH3 0xB55 DUP6 DUP3 PUSH3 0xAC8 JUMP JUMPDEST DUP7 SSTORE POP PUSH3 0xBC5 JUMP JUMPDEST PUSH1 0x1F NOT DUP5 AND PUSH3 0xB6E DUP7 PUSH3 0x914 JUMP JUMPDEST PUSH1 0x0 JUMPDEST DUP3 DUP2 LT ISZERO PUSH3 0xB98 JUMPI DUP5 DUP10 ADD MLOAD DUP3 SSTORE PUSH1 0x1 DUP3 ADD SWAP2 POP PUSH1 0x20 DUP6 ADD SWAP5 POP PUSH1 0x20 DUP2 ADD SWAP1 POP PUSH3 0xB71 JUMP JUMPDEST DUP7 DUP4 LT ISZERO PUSH3 0xBB8 JUMPI DUP5 DUP10 ADD MLOAD PUSH3 0xBB4 PUSH1 0x1F DUP10 AND DUP3 PUSH3 0xAA8 JUMP JUMPDEST DUP4 SSTORE POP JUMPDEST PUSH1 0x1 PUSH1 0x2 DUP9 MUL ADD DUP9 SSTORE POP POP POP JUMPDEST POP POP POP POP POP POP JUMP JUMPDEST PUSH1 0x0 DUP3 DUP3 MSTORE PUSH1 0x20 DUP3 ADD SWAP1 POP SWAP3 SWAP2 POP POP JUMP JUMPDEST PUSH32 0x45524332304361707065643A2063617020697320300000000000000000000000 PUSH1 0x0 DUP3 ADD MSTORE POP JUMP JUMPDEST PUSH1 0x0 PUSH3 0xC16 PUSH1 0x15 DUP4 PUSH3 0xBCD JUMP JUMPDEST SWAP2 POP PUSH3 0xC23 DUP3 PUSH3 0xBDE JUMP JUMPDEST PUSH1 0x20 DUP3 ADD SWAP1 POP SWAP2 SWAP1 POP JUMP JUMPDEST PUSH1 0x0 PUSH1 0x20 DUP3 ADD SWAP1 POP DUP2 DUP2 SUB PUSH1 0x0 DUP4 ADD MSTORE PUSH3 0xC49 DUP2 PUSH3 0xC07 JUMP JUMPDEST SWAP1 POP SWAP2 SWAP1 POP JUMP JUMPDEST PUSH1 0x0 PUSH3 0xC5D DUP3 PUSH3 0x5C8 JUMP JUMPDEST SWAP2 POP PUSH3 0xC6A DUP4 PUSH3 0x5C8 JUMP JUMPDEST SWAP3 POP DUP3 DUP3 ADD SWAP1 POP DUP1 DUP3 GT ISZERO PUSH3 0xC85 JUMPI PUSH3 0xC84 PUSH3 0x64A JUMP JUMPDEST JUMPDEST SWAP3 SWAP2 POP POP JUMP JUMPDEST PUSH32 0x45524332304361707065643A2063617020657863656564656400000000000000 PUSH1 0x0 DUP3 ADD MSTORE POP JUMP JUMPDEST PUSH1 0x0 PUSH3 0xCC3 PUSH1 0x19 DUP4 PUSH3 0xBCD JUMP JUMPDEST SWAP2 POP PUSH3 0xCD0 DUP3 PUSH3 0xC8B JUMP JUMPDEST PUSH1 0x20 DUP3 ADD SWAP1 POP SWAP2 SWAP1 POP JUMP JUMPDEST PUSH1 0x0 PUSH1 0x20 DUP3 ADD SWAP1 POP DUP2 DUP2 SUB PUSH1 0x0 DUP4 ADD MSTORE PUSH3 0xCF6 DUP2 PUSH3 0xCB4 JUMP JUMPDEST SWAP1 POP SWAP2 SWAP1 POP JUMP JUMPDEST PUSH32 0x45524332303A206D696E7420746F20746865207A65726F206164647265737300 PUSH1 0x0 DUP3 ADD MSTORE POP JUMP JUMPDEST PUSH1 0x0 PUSH3 0xD35 PUSH1 0x1F DUP4 PUSH3 0xBCD JUMP JUMPDEST SWAP2 POP PUSH3 0xD42 DUP3 PUSH3 0xCFD JUMP JUMPDEST PUSH1 0x20 DUP3 ADD SWAP1 POP SWAP2 SWAP1 POP JUMP JUMPDEST PUSH1 0x0 PUSH1 0x20 DUP3 ADD SWAP1 POP DUP2 DUP2 SUB PUSH1 0x0 DUP4 ADD MSTORE PUSH3 0xD68 DUP2 PUSH3 0xD26 JUMP JUMPDEST SWAP1 POP SWAP2 SWAP1 POP JUMP JUMPDEST PUSH3 0xD7A DUP2 PUSH3 0x5C8 JUMP JUMPDEST DUP3 MSTORE POP POP JUMP JUMPDEST PUSH1 0x0 PUSH1 0x20 DUP3 ADD SWAP1 POP PUSH3 0xD97 PUSH1 0x0 DUP4 ADD DUP5 PUSH3 0xD6F JUMP JUMPDEST SWAP3 SWAP2 POP POP JUMP JUMPDEST PUSH1 0x80 MLOAD PUSH2 0x1F24 PUSH3 0xDB9 PUSH1 0x0 CODECOPY PUSH1 0x0 PUSH2 0x618 ADD MSTORE PUSH2 0x1F24 PUSH1 0x0 RETURN INVALID PUSH1 0x80 PUSH1 0x40 MSTORE CALLVALUE DUP1 ISZERO PUSH2 0x10 JUMPI PUSH1 0x0 DUP1 REVERT JUMPDEST POP PUSH1 0x4 CALLDATASIZE LT PUSH2 0x142 JUMPI PUSH1 0x0 CALLDATALOAD PUSH1 0xE0 SHR DUP1 PUSH4 0x79CC6790 GT PUSH2 0xB8 JUMPI DUP1 PUSH4 0xBEC3FA17 GT PUSH2 0x7C JUMPI DUP1 PUSH4 0xBEC3FA17 EQ PUSH2 0x38D JUMPI DUP1 PUSH4 0xC4E41B22 EQ PUSH2 0x3A9 JUMPI DUP1 PUSH4 0xCAB25230 EQ PUSH2 0x3C7 JUMPI DUP1 PUSH4 0xDD62ED3E EQ PUSH2 0x3E3 JUMPI DUP1 PUSH4 0xF38488EC EQ PUSH2 0x413 JUMPI DUP1 PUSH4 0xF8B2CB4F EQ PUSH2 0x42F JUMPI PUSH2 0x142 JUMP JUMPDEST DUP1 PUSH4 0x79CC6790 EQ PUSH2 0x2D5 JUMPI DUP1 PUSH4 0x8DA5CB5B EQ PUSH2 0x2F1 JUMPI DUP1 PUSH4 0x95D89B41 EQ PUSH2 0x30F JUMPI DUP1 PUSH4 0xA457C2D7 EQ PUSH2 0x32D JUMPI DUP1 PUSH4 0xA9059CBB EQ PUSH2 0x35D JUMPI PUSH2 0x142 JUMP JUMPDEST DUP1 PUSH4 0x23B872DD GT PUSH2 0x10A JUMPI DUP1 PUSH4 0x23B872DD EQ PUSH2 0x1ED JUMPI DUP1 PUSH4 0x313CE567 EQ PUSH2 0x21D JUMPI DUP1 PUSH4 0x355274EA EQ PUSH2 0x23B JUMPI DUP1 PUSH4 0x39509351 EQ PUSH2 0x259 JUMPI DUP1 PUSH4 0x42966C68 EQ PUSH2 0x289 JUMPI DUP1 PUSH4 0x70A08231 EQ PUSH2 0x2A5 JUMPI PUSH2 0x142 JUMP JUMPDEST DUP1 PUSH4 0x6FDDE03 EQ PUSH2 0x147 JUMPI DUP1 PUSH4 0x95EA7B3 EQ PUSH2 0x165 JUMPI DUP1 PUSH4 0xAC168A1 EQ PUSH2 0x195 JUMPI DUP1 PUSH4 0x18160DDD EQ PUSH2 0x1B3 JUMPI DUP1 PUSH4 0x1A18E707 EQ PUSH2 0x1D1 JUMPI JUMPDEST PUSH1 0x0 DUP1 REVERT JUMPDEST PUSH2 0x14F PUSH2 0x45F JUMP JUMPDEST PUSH1 0x40 MLOAD PUSH2 0x15C SWAP2 SWAP1 PUSH2 0x134A JUMP JUMPDEST PUSH1 0x40 MLOAD DUP1 SWAP2 SUB SWAP1 RETURN JUMPDEST PUSH2 0x17F PUSH1 0x4 DUP1 CALLDATASIZE SUB DUP2 ADD SWAP1 PUSH2 0x17A SWAP2 SWAP1 PUSH2 0x1405 JUMP JUMPDEST PUSH2 0x4F1 JUMP JUMPDEST PUSH1 0x40 MLOAD PUSH2 0x18C SWAP2 SWAP1 PUSH2 0x1460 JUMP JUMPDEST PUSH1 0x40 MLOAD DUP1 SWAP2 SUB SWAP1 RETURN JUMPDEST PUSH2 0x19D PUSH2 0x514 JUMP JUMPDEST PUSH1 0x40 MLOAD PUSH2 0x1AA SWAP2 SWAP1 PUSH2 0x148A JUMP JUMPDEST PUSH1 0x40 MLOAD DUP1 SWAP2 SUB SWAP1 RETURN JUMPDEST PUSH2 0x1BB PUSH2 0x51A JUMP JUMPDEST PUSH1 0x40 MLOAD PUSH2 0x1C8 SWAP2 SWAP1 PUSH2 0x148A JUMP JUMPDEST PUSH1 0x40 MLOAD DUP1 SWAP2 SUB SWAP1 RETURN JUMPDEST PUSH2 0x1EB PUSH1 0x4 DUP1 CALLDATASIZE SUB DUP2 ADD SWAP1 PUSH2 0x1E6 SWAP2 SWAP1 PUSH2 0x14A5 JUMP JUMPDEST PUSH2 0x524 JUMP JUMPDEST STOP JUMPDEST PUSH2 0x207 PUSH1 0x4 DUP1 CALLDATASIZE SUB DUP2 ADD SWAP1 PUSH2 0x202 SWAP2 SWAP1 PUSH2 0x14D2 JUMP JUMPDEST PUSH2 0x5DC JUMP JUMPDEST PUSH1 0x40 MLOAD PUSH2 0x214 SWAP2 SWAP1 PUSH2 0x1460 JUMP JUMPDEST PUSH1 0x40 MLOAD DUP1 SWAP2 SUB SWAP1 RETURN JUMPDEST PUSH2 0x225 PUSH2 0x60B JUMP JUMPDEST PUSH1 0x40 MLOAD PUSH2 0x232 SWAP2 SWAP1 PUSH2 0x1541 JUMP JUMPDEST PUSH1 0x40 MLOAD DUP1 SWAP2 SUB SWAP1 RETURN JUMPDEST PUSH2 0x243 PUSH2 0x614 JUMP JUMPDEST PUSH1 0x40 MLOAD PUSH2 0x250 SWAP2 SWAP1 PUSH2 0x148A JUMP JUMPDEST PUSH1 0x40 MLOAD DUP1 SWAP2 SUB SWAP1 RETURN JUMPDEST PUSH2 0x273 PUSH1 0x4 DUP1 CALLDATASIZE SUB DUP2 ADD SWAP1 PUSH2 0x26E SWAP2 SWAP1 PUSH2 0x1405 JUMP JUMPDEST PUSH2 0x63C JUMP JUMPDEST PUSH1 0x40 MLOAD PUSH2 0x280 SWAP2 SWAP1 PUSH2 0x1460 JUMP JUMPDEST PUSH1 0x40 MLOAD DUP1 SWAP2 SUB SWAP1 RETURN JUMPDEST PUSH2 0x2A3 PUSH1 0x4 DUP1 CALLDATASIZE SUB DUP2 ADD SWAP1 PUSH2 0x29E SWAP2 SWAP1 PUSH2 0x14A5 JUMP JUMPDEST PUSH2 0x673 JUMP JUMPDEST STOP JUMPDEST PUSH2 0x2BF PUSH1 0x4 DUP1 CALLDATASIZE SUB DUP2 ADD SWAP1 PUSH2 0x2BA SWAP2 SWAP1 PUSH2 0x155C JUMP JUMPDEST PUSH2 0x687 JUMP JUMPDEST PUSH1 0x40 MLOAD PUSH2 0x2CC SWAP2 SWAP1 PUSH2 0x148A JUMP JUMPDEST PUSH1 0x40 MLOAD DUP1 SWAP2 SUB SWAP1 RETURN JUMPDEST PUSH2 0x2EF PUSH1 0x4 DUP1 CALLDATASIZE SUB DUP2 ADD SWAP1 PUSH2 0x2EA SWAP2 SWAP1 PUSH2 0x1405 JUMP JUMPDEST PUSH2 0x6CF JUMP JUMPDEST STOP JUMPDEST PUSH2 0x2F9 PUSH2 0x6EF JUMP JUMPDEST PUSH1 0x40 MLOAD PUSH2 0x306 SWAP2 SWAP1 PUSH2 0x15AA JUMP JUMPDEST PUSH1 0x40 MLOAD DUP1 SWAP2 SUB SWAP1 RETURN JUMPDEST PUSH2 0x317 PUSH2 0x715 JUMP JUMPDEST PUSH1 0x40 MLOAD PUSH2 0x324 SWAP2 SWAP1 PUSH2 0x134A JUMP JUMPDEST PUSH1 0x40 MLOAD DUP1 SWAP2 SUB SWAP1 RETURN JUMPDEST PUSH2 0x347 PUSH1 0x4 DUP1 CALLDATASIZE SUB DUP2 ADD SWAP1 PUSH2 0x342 SWAP2 SWAP1 PUSH2 0x1405 JUMP JUMPDEST PUSH2 0x7A7 JUMP JUMPDEST PUSH1 0x40 MLOAD PUSH2 0x354 SWAP2 SWAP1 PUSH2 0x1460 JUMP JUMPDEST PUSH1 0x40 MLOAD DUP1 SWAP2 SUB SWAP1 RETURN JUMPDEST PUSH2 0x377 PUSH1 0x4 DUP1 CALLDATASIZE SUB DUP2 ADD SWAP1 PUSH2 0x372 SWAP2 SWAP1 PUSH2 0x1405 JUMP JUMPDEST PUSH2 0x81E JUMP JUMPDEST PUSH1 0x40 MLOAD PUSH2 0x384 SWAP2 SWAP1 PUSH2 0x1460 JUMP JUMPDEST PUSH1 0x40 MLOAD DUP1 SWAP2 SUB SWAP1 RETURN JUMPDEST PUSH2 0x3A7 PUSH1 0x4 DUP1 CALLDATASIZE SUB DUP2 ADD SWAP1 PUSH2 0x3A2 SWAP2 SWAP1 PUSH2 0x1405 JUMP JUMPDEST PUSH2 0x841 JUMP JUMPDEST STOP JUMPDEST PUSH2 0x3B1 PUSH2 0x850 JUMP JUMPDEST PUSH1 0x40 MLOAD PUSH2 0x3BE SWAP2 SWAP1 PUSH2 0x148A JUMP JUMPDEST PUSH1 0x40 MLOAD DUP1 SWAP2 SUB SWAP1 RETURN JUMPDEST PUSH2 0x3E1 PUSH1 0x4 DUP1 CALLDATASIZE SUB DUP2 ADD SWAP1 PUSH2 0x3DC SWAP2 SWAP1 PUSH2 0x14D2 JUMP JUMPDEST PUSH2 0x85F JUMP JUMPDEST STOP JUMPDEST PUSH2 0x3FD PUSH1 0x4 DUP1 CALLDATASIZE SUB DUP2 ADD SWAP1 PUSH2 0x3F8 SWAP2 SWAP1 PUSH2 0x15C5 JUMP JUMPDEST PUSH2 0x870 JUMP JUMPDEST PUSH1 0x40 MLOAD PUSH2 0x40A SWAP2 SWAP1 PUSH2 0x148A JUMP JUMPDEST PUSH1 0x40 MLOAD DUP1 SWAP2 SUB SWAP1 RETURN JUMPDEST PUSH2 0x42D PUSH1 0x4 DUP1 CALLDATASIZE SUB DUP2 ADD SWAP1 PUSH2 0x428 SWAP2 SWAP1 PUSH2 0x1405 JUMP JUMPDEST PUSH2 0x8F7 JUMP JUMPDEST STOP JUMPDEST PUSH2 0x449 PUSH1 0x4 DUP1 CALLDATASIZE SUB DUP2 ADD SWAP1 PUSH2 0x444 SWAP2 SWAP1 PUSH2 0x155C JUMP JUMPDEST PUSH2 0x906 JUMP JUMPDEST PUSH1 0x40 MLOAD PUSH2 0x456 SWAP2 SWAP1 PUSH2 0x148A JUMP JUMPDEST PUSH1 0x40 MLOAD DUP1 SWAP2 SUB SWAP1 RETURN JUMPDEST PUSH1 0x60 PUSH1 0x3 DUP1 SLOAD PUSH2 0x46E SWAP1 PUSH2 0x1634 JUMP JUMPDEST DUP1 PUSH1 0x1F ADD PUSH1 0x20 DUP1 SWAP2 DIV MUL PUSH1 0x20 ADD PUSH1 0x40 MLOAD SWAP1 DUP2 ADD PUSH1 0x40 MSTORE DUP1 SWAP3 SWAP2 SWAP1 DUP2 DUP2 MSTORE PUSH1 0x20 ADD DUP3 DUP1 SLOAD PUSH2 0x49A SWAP1 PUSH2 0x1634 JUMP JUMPDEST DUP1 ISZERO PUSH2 0x4E7 JUMPI DUP1 PUSH1 0x1F LT PUSH2 0x4BC JUMPI PUSH2 0x100 DUP1 DUP4 SLOAD DIV MUL DUP4 MSTORE SWAP2 PUSH1 0x20 ADD SWAP2 PUSH2 0x4E7 JUMP JUMPDEST DUP3 ADD SWAP2 SWAP1 PUSH1 0x0 MSTORE PUSH1 0x20 PUSH1 0x0 KECCAK256 SWAP1 JUMPDEST DUP2 SLOAD DUP2 MSTORE SWAP1 PUSH1 0x1 ADD SWAP1 PUSH1 0x20 ADD DUP1 DUP4 GT PUSH2 0x4CA JUMPI DUP3 SWAP1 SUB PUSH1 0x1F AND DUP3 ADD SWAP2 JUMPDEST POP POP POP POP POP SWAP1 POP SWAP1 JUMP JUMPDEST PUSH1 0x0 DUP1 PUSH2 0x4FC PUSH2 0xADD JUMP JUMPDEST SWAP1 POP PUSH2 0x509 DUP2 DUP6 DUP6 PUSH2 0xAE5 JUMP JUMPDEST PUSH1 0x1 SWAP2 POP POP SWAP3 SWAP2 POP POP JUMP JUMPDEST PUSH1 0x6 SLOAD DUP2 JUMP JUMPDEST PUSH1 0x0 PUSH1 0x2 SLOAD SWAP1 POP SWAP1 JUMP JUMPDEST PUSH1 0x5 PUSH1 0x0 SWAP1 SLOAD SWAP1 PUSH2 0x100 EXP SWAP1 DIV PUSH20 0xFFFFFFFFFFFFFFFFFFFFFFFFFFFFFFFFFFFFFFFF AND PUSH20 0xFFFFFFFFFFFFFFFFFFFFFFFFFFFFFFFFFFFFFFFF AND CALLER PUSH20 0xFFFFFFFFFFFFFFFFFFFFFFFFFFFFFFFFFFFFFFFF AND EQ PUSH2 0x5B4 JUMPI PUSH1 0x40 MLOAD PUSH32 0x8C379A000000000000000000000000000000000000000000000000000000000 DUP2 MSTORE PUSH1 0x4 ADD PUSH2 0x5AB SWAP1 PUSH2 0x16D7 JUMP JUMPDEST PUSH1 0x40 MLOAD DUP1 SWAP2 SUB SWAP1 REVERT JUMPDEST PUSH2 0x5BC PUSH2 0x60B JUMP JUMPDEST PUSH1 0xA PUSH2 0x5C8 SWAP2 SWAP1 PUSH2 0x1859 JUMP JUMPDEST DUP2 PUSH2 0x5D3 SWAP2 SWAP1 PUSH2 0x18A4 JUMP JUMPDEST PUSH1 0x6 DUP2 SWAP1 SSTORE POP POP JUMP JUMPDEST PUSH1 0x0 DUP1 PUSH2 0x5E7 PUSH2 0xADD JUMP JUMPDEST SWAP1 POP PUSH2 0x5F4 DUP6 DUP3 DUP6 PUSH2 0xCAE JUMP JUMPDEST PUSH2 0x5FF DUP6 DUP6 DUP6 PUSH2 0xD3A JUMP JUMPDEST PUSH1 0x1 SWAP2 POP POP SWAP4 SWAP3 POP POP POP JUMP JUMPDEST PUSH1 0x0 PUSH1 0x12 SWAP1 POP SWAP1 JUMP JUMPDEST PUSH1 0x0 PUSH32 0x0 SWAP1 POP SWAP1 JUMP JUMPDEST PUSH1 0x0 DUP1 PUSH2 0x647 PUSH2 0xADD JUMP JUMPDEST SWAP1 POP PUSH2 0x668 DUP2 DUP6 DUP6 PUSH2 0x659 DUP6 DUP10 PUSH2 0x870 JUMP JUMPDEST PUSH2 0x663 SWAP2 SWAP1 PUSH2 0x18E6 JUMP JUMPDEST PUSH2 0xAE5 JUMP JUMPDEST PUSH1 0x1 SWAP2 POP POP SWAP3 SWAP2 POP POP JUMP JUMPDEST PUSH2 0x684 PUSH2 0x67E PUSH2 0xADD JUMP JUMPDEST DUP3 PUSH2 0xFB0 JUMP JUMPDEST POP JUMP JUMPDEST PUSH1 0x0 DUP1 PUSH1 0x0 DUP4 PUSH20 0xFFFFFFFFFFFFFFFFFFFFFFFFFFFFFFFFFFFFFFFF AND PUSH20 0xFFFFFFFFFFFFFFFFFFFFFFFFFFFFFFFFFFFFFFFF AND DUP2 MSTORE PUSH1 0x20 ADD SWAP1 DUP2 MSTORE PUSH1 0x20 ADD PUSH1 0x0 KECCAK256 SLOAD SWAP1 POP SWAP2 SWAP1 POP JUMP JUMPDEST PUSH2 0x6E1 DUP3 PUSH2 0x6DB PUSH2 0xADD JUMP JUMPDEST DUP4 PUSH2 0xCAE JUMP JUMPDEST PUSH2 0x6EB DUP3 DUP3 PUSH2 0xFB0 JUMP JUMPDEST POP POP JUMP JUMPDEST PUSH1 0x5 PUSH1 0x0 SWAP1 SLOAD SWAP1 PUSH2 0x100 EXP SWAP1 DIV PUSH20 0xFFFFFFFFFFFFFFFFFFFFFFFFFFFFFFFFFFFFFFFF AND DUP2 JUMP JUMPDEST PUSH1 0x60 PUSH1 0x4 DUP1 SLOAD PUSH2 0x724 SWAP1 PUSH2 0x1634 JUMP JUMPDEST DUP1 PUSH1 0x1F ADD PUSH1 0x20 DUP1 SWAP2 DIV MUL PUSH1 0x20 ADD PUSH1 0x40 MLOAD SWAP1 DUP2 ADD PUSH1 0x40 MSTORE DUP1 SWAP3 SWAP2 SWAP1 DUP2 DUP2 MSTORE PUSH1 0x20 ADD DUP3 DUP1 SLOAD PUSH2 0x750 SWAP1 PUSH2 0x1634 JUMP JUMPDEST DUP1 ISZERO PUSH2 0x79D JUMPI DUP1 PUSH1 0x1F LT PUSH2 0x772 JUMPI PUSH2 0x100 DUP1 DUP4 SLOAD DIV MUL DUP4 MSTORE SWAP2 PUSH1 0x20 ADD SWAP2 PUSH2 0x79D JUMP JUMPDEST DUP3 ADD SWAP2 SWAP1 PUSH1 0x0 MSTORE PUSH1 0x20 PUSH1 0x0 KECCAK256 SWAP1 JUMPDEST DUP2 SLOAD DUP2 MSTORE SWAP1 PUSH1 0x1 ADD SWAP1 PUSH1 0x20 ADD DUP1 DUP4 GT PUSH2 0x780 JUMPI DUP3 SWAP1 SUB PUSH1 0x1F AND DUP3 ADD SWAP2 JUMPDEST POP POP POP POP POP SWAP1 POP SWAP1 JUMP JUMPDEST PUSH1 0x0 DUP1 PUSH2 0x7B2 PUSH2 0xADD JUMP JUMPDEST SWAP1 POP PUSH1 0x0 PUSH2 0x7C0 DUP3 DUP7 PUSH2 0x870 JUMP JUMPDEST SWAP1 POP DUP4 DUP2 LT ISZERO PUSH2 0x805 JUMPI PUSH1 0x40 MLOAD PUSH32 0x8C379A000000000000000000000000000000000000000000000000000000000 DUP2 MSTORE PUSH1 0x4 ADD PUSH2 0x7FC SWAP1 PUSH2 0x198C JUMP JUMPDEST PUSH1 0x40 MLOAD DUP1 SWAP2 SUB SWAP1 REVERT JUMPDEST PUSH2 0x812 DUP3 DUP7 DUP7 DUP5 SUB PUSH2 0xAE5 JUMP JUMPDEST PUSH1 0x1 SWAP3 POP POP POP SWAP3 SWAP2 POP POP JUMP JUMPDEST PUSH1 0x0 DUP1 PUSH2 0x829 PUSH2 0xADD JUMP JUMPDEST SWAP1 POP PUSH2 0x836 DUP2 DUP6 DUP6 PUSH2 0xD3A JUMP JUMPDEST PUSH1 0x1 SWAP2 POP POP SWAP3 SWAP2 POP POP JUMP JUMPDEST PUSH2 0x84C CALLER DUP4 DUP4 PUSH2 0xD3A JUMP JUMPDEST POP POP JUMP JUMPDEST PUSH1 0x0 PUSH2 0x85A PUSH2 0x51A JUMP JUMPDEST SWAP1 POP SWAP1 JUMP JUMPDEST PUSH2 0x86A DUP4 DUP4 DUP4 PUSH2 0x5DC JUMP JUMPDEST POP POP POP POP JUMP JUMPDEST PUSH1 0x0 PUSH1 0x1 PUSH1 0x0 DUP5 PUSH20 0xFFFFFFFFFFFFFFFFFFFFFFFFFFFFFFFFFFFFFFFF AND PUSH20 0xFFFFFFFFFFFFFFFFFFFFFFFFFFFFFFFFFFFFFFFF AND DUP2 MSTORE PUSH1 0x20 ADD SWAP1 DUP2 MSTORE PUSH1 0x20 ADD PUSH1 0x0 KECCAK256 PUSH1 0x0 DUP4 PUSH20 0xFFFFFFFFFFFFFFFFFFFFFFFFFFFFFFFFFFFFFFFF AND PUSH20 0xFFFFFFFFFFFFFFFFFFFFFFFFFFFFFFFFFFFFFFFF AND DUP2 MSTORE PUSH1 0x20 ADD SWAP1 DUP2 MSTORE PUSH1 0x20 ADD PUSH1 0x0 KECCAK256 SLOAD SWAP1 POP SWAP3 SWAP2 POP POP JUMP JUMPDEST PUSH2 0x902 CALLER DUP4 DUP4 PUSH2 0xAE5 JUMP JUMPDEST POP POP JUMP JUMPDEST PUSH1 0x0 PUSH2 0x911 DUP3 PUSH2 0x687 JUMP JUMPDEST SWAP1 POP SWAP2 SWAP1 POP JUMP JUMPDEST PUSH2 0x920 PUSH2 0x614 JUMP JUMPDEST DUP2 PUSH2 0x929 PUSH2 0x51A JUMP JUMPDEST PUSH2 0x933 SWAP2 SWAP1 PUSH2 0x18E6 JUMP JUMPDEST GT ISZERO PUSH2 0x974 JUMPI PUSH1 0x40 MLOAD PUSH32 0x8C379A000000000000000000000000000000000000000000000000000000000 DUP2 MSTORE PUSH1 0x4 ADD PUSH2 0x96B SWAP1 PUSH2 0x19F8 JUMP JUMPDEST PUSH1 0x40 MLOAD DUP1 SWAP2 SUB SWAP1 REVERT JUMPDEST PUSH2 0x97E DUP3 DUP3 PUSH2 0x982 JUMP JUMPDEST POP POP JUMP JUMPDEST PUSH1 0x0 PUSH20 0xFFFFFFFFFFFFFFFFFFFFFFFFFFFFFFFFFFFFFFFF AND DUP3 PUSH20 0xFFFFFFFFFFFFFFFFFFFFFFFFFFFFFFFFFFFFFFFF AND SUB PUSH2 0x9F1 JUMPI PUSH1 0x40 MLOAD PUSH32 0x8C379A000000000000000000000000000000000000000000000000000000000 DUP2 MSTORE PUSH1 0x4 ADD PUSH2 0x9E8 SWAP1 PUSH2 0x1A64 JUMP JUMPDEST PUSH1 0x40 MLOAD DUP1 SWAP2 SUB SWAP1 REVERT JUMPDEST PUSH2 0x9FD PUSH1 0x0 DUP4 DUP4 PUSH2 0x117D JUMP JUMPDEST DUP1 PUSH1 0x2 PUSH1 0x0 DUP3 DUP3 SLOAD PUSH2 0xA0F SWAP2 SWAP1 PUSH2 0x18E6 JUMP JUMPDEST SWAP3 POP POP DUP2 SWAP1 SSTORE POP DUP1 PUSH1 0x0 DUP1 DUP5 PUSH20 0xFFFFFFFFFFFFFFFFFFFFFFFFFFFFFFFFFFFFFFFF AND PUSH20 0xFFFFFFFFFFFFFFFFFFFFFFFFFFFFFFFFFFFFFFFF AND DUP2 MSTORE PUSH1 0x20 ADD SWAP1 DUP2 MSTORE PUSH1 0x20 ADD PUSH1 0x0 KECCAK256 PUSH1 0x0 DUP3 DUP3 SLOAD ADD SWAP3 POP POP DUP2 SWAP1 SSTORE POP DUP2 PUSH20 0xFFFFFFFFFFFFFFFFFFFFFFFFFFFFFFFFFFFFFFFF AND PUSH1 0x0 PUSH20 0xFFFFFFFFFFFFFFFFFFFFFFFFFFFFFFFFFFFFFFFF AND PUSH32 0xDDF252AD1BE2C89B69C2B068FC378DAA952BA7F163C4A11628F55A4DF523B3EF DUP4 PUSH1 0x40 MLOAD PUSH2 0xAC0 SWAP2 SWAP1 PUSH2 0x148A JUMP JUMPDEST PUSH1 0x40 MLOAD DUP1 SWAP2 SUB SWAP1 LOG3 PUSH2 0xAD4 PUSH1 0x0 DUP4 DUP4 PUSH2 0x123D JUMP JUMPDEST POP POP JUMP JUMPDEST POP POP POP JUMP JUMPDEST PUSH1 0x0 CALLER SWAP1 POP SWAP1 JUMP JUMPDEST PUSH1 0x0 PUSH20 0xFFFFFFFFFFFFFFFFFFFFFFFFFFFFFFFFFFFFFFFF AND DUP4 PUSH20 0xFFFFFFFFFFFFFFFFFFFFFFFFFFFFFFFFFFFFFFFF AND SUB PUSH2 0xB54 JUMPI PUSH1 0x40 MLOAD PUSH32 0x8C379A000000000000000000000000000000000000000000000000000000000 DUP2 MSTORE PUSH1 0x4 ADD PUSH2 0xB4B SWAP1 PUSH2 0x1AF6 JUMP JUMPDEST PUSH1 0x40 MLOAD DUP1 SWAP2 SUB SWAP1 REVERT JUMPDEST PUSH1 0x0 PUSH20 0xFFFFFFFFFFFFFFFFFFFFFFFFFFFFFFFFFFFFFFFF AND DUP3 PUSH20 0xFFFFFFFFFFFFFFFFFFFFFFFFFFFFFFFFFFFFFFFF AND SUB PUSH2 0xBC3 JUMPI PUSH1 0x40 MLOAD PUSH32 0x8C379A000000000000000000000000000000000000000000000000000000000 DUP2 MSTORE PUSH1 0x4 ADD PUSH2 0xBBA SWAP1 PUSH2 0x1B88 JUMP JUMPDEST PUSH1 0x40 MLOAD DUP1 SWAP2 SUB SWAP1 REVERT JUMPDEST DUP1 PUSH1 0x1 PUSH1 0x0 DUP6 PUSH20 0xFFFFFFFFFFFFFFFFFFFFFFFFFFFFFFFFFFFFFFFF AND PUSH20 0xFFFFFFFFFFFFFFFFFFFFFFFFFFFFFFFFFFFFFFFF AND DUP2 MSTORE PUSH1 0x20 ADD SWAP1 DUP2 MSTORE PUSH1 0x20 ADD PUSH1 0x0 KECCAK256 PUSH1 0x0 DUP5 PUSH20 0xFFFFFFFFFFFFFFFFFFFFFFFFFFFFFFFFFFFFFFFF AND PUSH20 0xFFFFFFFFFFFFFFFFFFFFFFFFFFFFFFFFFFFFFFFF AND DUP2 MSTORE PUSH1 0x20 ADD SWAP1 DUP2 MSTORE PUSH1 0x20 ADD PUSH1 0x0 KECCAK256 DUP2 SWAP1 SSTORE POP DUP2 PUSH20 0xFFFFFFFFFFFFFFFFFFFFFFFFFFFFFFFFFFFFFFFF AND DUP4 PUSH20 0xFFFFFFFFFFFFFFFFFFFFFFFFFFFFFFFFFFFFFFFF AND PUSH32 0x8C5BE1E5EBEC7D5BD14F71427D1E84F3DD0314C0F7B2291E5B200AC8C7C3B925 DUP4 PUSH1 0x40 MLOAD PUSH2 0xCA1 SWAP2 SWAP1 PUSH2 0x148A JUMP JUMPDEST PUSH1 0x40 MLOAD DUP1 SWAP2 SUB SWAP1 LOG3 POP POP POP JUMP JUMPDEST PUSH1 0x0 PUSH2 0xCBA DUP5 DUP5 PUSH2 0x870 JUMP JUMPDEST SWAP1 POP PUSH32 0xFFFFFFFFFFFFFFFFFFFFFFFFFFFFFFFFFFFFFFFFFFFFFFFFFFFFFFFFFFFFFFFF DUP2 EQ PUSH2 0xD34 JUMPI DUP2 DUP2 LT ISZERO PUSH2 0xD26 JUMPI PUSH1 0x40 MLOAD PUSH32 0x8C379A000000000000000000000000000000000000000000000000000000000 DUP2 MSTORE PUSH1 0x4 ADD PUSH2 0xD1D SWAP1 PUSH2 0x1BF4 JUMP JUMPDEST PUSH1 0x40 MLOAD DUP1 SWAP2 SUB SWAP1 REVERT JUMPDEST PUSH2 0xD33 DUP5 DUP5 DUP5 DUP5 SUB PUSH2 0xAE5 JUMP JUMPDEST JUMPDEST POP POP POP POP JUMP JUMPDEST PUSH1 0x0 PUSH20 0xFFFFFFFFFFFFFFFFFFFFFFFFFFFFFFFFFFFFFFFF AND DUP4 PUSH20 0xFFFFFFFFFFFFFFFFFFFFFFFFFFFFFFFFFFFFFFFF AND SUB PUSH2 0xDA9 JUMPI PUSH1 0x40 MLOAD PUSH32 0x8C379A000000000000000000000000000000000000000000000000000000000 DUP2 MSTORE PUSH1 0x4 ADD PUSH2 0xDA0 SWAP1 PUSH2 0x1C86 JUMP JUMPDEST PUSH1 0x40 MLOAD DUP1 SWAP2 SUB SWAP1 REVERT JUMPDEST PUSH1 0x0 PUSH20 0xFFFFFFFFFFFFFFFFFFFFFFFFFFFFFFFFFFFFFFFF AND DUP3 PUSH20 0xFFFFFFFFFFFFFFFFFFFFFFFFFFFFFFFFFFFFFFFF AND SUB PUSH2 0xE18 JUMPI PUSH1 0x40 MLOAD PUSH32 0x8C379A000000000000000000000000000000000000000000000000000000000 DUP2 MSTORE PUSH1 0x4 ADD PUSH2 0xE0F SWAP1 PUSH2 0x1D18 JUMP JUMPDEST PUSH1 0x40 MLOAD DUP1 SWAP2 SUB SWAP1 REVERT JUMPDEST PUSH2 0xE23 DUP4 DUP4 DUP4 PUSH2 0x117D JUMP JUMPDEST PUSH1 0x0 DUP1 PUSH1 0x0 DUP6 PUSH20 0xFFFFFFFFFFFFFFFFFFFFFFFFFFFFFFFFFFFFFFFF AND PUSH20 0xFFFFFFFFFFFFFFFFFFFFFFFFFFFFFFFFFFFFFFFF AND DUP2 MSTORE PUSH1 0x20 ADD SWAP1 DUP2 MSTORE PUSH1 0x20 ADD PUSH1 0x0 KECCAK256 SLOAD SWAP1 POP DUP2 DUP2 LT ISZERO PUSH2 0xEA9 JUMPI PUSH1 0x40 MLOAD PUSH32 0x8C379A000000000000000000000000000000000000000000000000000000000 DUP2 MSTORE PUSH1 0x4 ADD PUSH2 0xEA0 SWAP1 PUSH2 0x1DAA JUMP JUMPDEST PUSH1 0x40 MLOAD DUP1 SWAP2 SUB SWAP1 REVERT JUMPDEST DUP2 DUP2 SUB PUSH1 0x0 DUP1 DUP7 PUSH20 0xFFFFFFFFFFFFFFFFFFFFFFFFFFFFFFFFFFFFFFFF AND PUSH20 0xFFFFFFFFFFFFFFFFFFFFFFFFFFFFFFFFFFFFFFFF AND DUP2 MSTORE PUSH1 0x20 ADD SWAP1 DUP2 MSTORE PUSH1 0x20 ADD PUSH1 0x0 KECCAK256 DUP2 SWAP1 SSTORE POP DUP2 PUSH1 0x0 DUP1 DUP6 PUSH20 0xFFFFFFFFFFFFFFFFFFFFFFFFFFFFFFFFFFFFFFFF AND PUSH20 0xFFFFFFFFFFFFFFFFFFFFFFFFFFFFFFFFFFFFFFFF AND DUP2 MSTORE PUSH1 0x20 ADD SWAP1 DUP2 MSTORE PUSH1 0x20 ADD PUSH1 0x0 KECCAK256 PUSH1 0x0 DUP3 DUP3 SLOAD ADD SWAP3 POP POP DUP2 SWAP1 SSTORE POP DUP3 PUSH20 0xFFFFFFFFFFFFFFFFFFFFFFFFFFFFFFFFFFFFFFFF AND DUP5 PUSH20 0xFFFFFFFFFFFFFFFFFFFFFFFFFFFFFFFFFFFFFFFF AND PUSH32 0xDDF252AD1BE2C89B69C2B068FC378DAA952BA7F163C4A11628F55A4DF523B3EF DUP5 PUSH1 0x40 MLOAD PUSH2 0xF97 SWAP2 SWAP1 PUSH2 0x148A JUMP JUMPDEST PUSH1 0x40 MLOAD DUP1 SWAP2 SUB SWAP1 LOG3 PUSH2 0xFAA DUP5 DUP5 DUP5 PUSH2 0x123D JUMP JUMPDEST POP POP POP POP JUMP JUMPDEST PUSH1 0x0 PUSH20 0xFFFFFFFFFFFFFFFFFFFFFFFFFFFFFFFFFFFFFFFF AND DUP3 PUSH20 0xFFFFFFFFFFFFFFFFFFFFFFFFFFFFFFFFFFFFFFFF AND SUB PUSH2 0x101F JUMPI PUSH1 0x40 MLOAD PUSH32 0x8C379A000000000000000000000000000000000000000000000000000000000 DUP2 MSTORE PUSH1 0x4 ADD PUSH2 0x1016 SWAP1 PUSH2 0x1E3C JUMP JUMPDEST PUSH1 0x40 MLOAD DUP1 SWAP2 SUB SWAP1 REVERT JUMPDEST PUSH2 0x102B DUP3 PUSH1 0x0 DUP4 PUSH2 0x117D JUMP JUMPDEST PUSH1 0x0 DUP1 PUSH1 0x0 DUP5 PUSH20 0xFFFFFFFFFFFFFFFFFFFFFFFFFFFFFFFFFFFFFFFF AND PUSH20 0xFFFFFFFFFFFFFFFFFFFFFFFFFFFFFFFFFFFFFFFF AND DUP2 MSTORE PUSH1 0x20 ADD SWAP1 DUP2 MSTORE PUSH1 0x20 ADD PUSH1 0x0 KECCAK256 SLOAD SWAP1 POP DUP2 DUP2 LT ISZERO PUSH2 0x10B1 JUMPI PUSH1 0x40 MLOAD PUSH32 0x8C379A000000000000000000000000000000000000000000000000000000000 DUP2 MSTORE PUSH1 0x4 ADD PUSH2 0x10A8 SWAP1 PUSH2 0x1ECE JUMP JUMPDEST PUSH1 0x40 MLOAD DUP1 SWAP2 SUB SWAP1 REVERT JUMPDEST DUP2 DUP2 SUB PUSH1 0x0 DUP1 DUP6 PUSH20 0xFFFFFFFFFFFFFFFFFFFFFFFFFFFFFFFFFFFFFFFF AND PUSH20 0xFFFFFFFFFFFFFFFFFFFFFFFFFFFFFFFFFFFFFFFF AND DUP2 MSTORE PUSH1 0x20 ADD SWAP1 DUP2 MSTORE PUSH1 0x20 ADD PUSH1 0x0 KECCAK256 DUP2 SWAP1 SSTORE POP DUP2 PUSH1 0x2 PUSH1 0x0 DUP3 DUP3 SLOAD SUB SWAP3 POP POP DUP2 SWAP1 SSTORE POP PUSH1 0x0 PUSH20 0xFFFFFFFFFFFFFFFFFFFFFFFFFFFFFFFFFFFFFFFF AND DUP4 PUSH20 0xFFFFFFFFFFFFFFFFFFFFFFFFFFFFFFFFFFFFFFFF AND PUSH32 0xDDF252AD1BE2C89B69C2B068FC378DAA952BA7F163C4A11628F55A4DF523B3EF DUP5 PUSH1 0x40 MLOAD PUSH2 0x1164 SWAP2 SWAP1 PUSH2 0x148A JUMP JUMPDEST PUSH1 0x40 MLOAD DUP1 SWAP2 SUB SWAP1 LOG3 PUSH2 0x1178 DUP4 PUSH1 0x0 DUP5 PUSH2 0x123D JUMP JUMPDEST POP POP POP JUMP JUMPDEST PUSH1 0x0 PUSH20 0xFFFFFFFFFFFFFFFFFFFFFFFFFFFFFFFFFFFFFFFF AND DUP4 PUSH20 0xFFFFFFFFFFFFFFFFFFFFFFFFFFFFFFFFFFFFFFFF AND EQ ISZERO DUP1 ISZERO PUSH2 0x11E6 JUMPI POP COINBASE PUSH20 0xFFFFFFFFFFFFFFFFFFFFFFFFFFFFFFFFFFFFFFFF AND DUP3 PUSH20 0xFFFFFFFFFFFFFFFFFFFFFFFFFFFFFFFFFFFFFFFF AND EQ ISZERO JUMPDEST DUP1 ISZERO PUSH2 0x121F JUMPI POP PUSH1 0x0 PUSH20 0xFFFFFFFFFFFFFFFFFFFFFFFFFFFFFFFFFFFFFFFF AND COINBASE PUSH20 0xFFFFFFFFFFFFFFFFFFFFFFFFFFFFFFFFFFFFFFFF AND EQ ISZERO JUMPDEST ISZERO PUSH2 0x122D JUMPI PUSH2 0x122C PUSH2 0x1242 JUMP JUMPDEST JUMPDEST PUSH2 0x1238 DUP4 DUP4 DUP4 PUSH2 0xAD8 JUMP JUMPDEST POP POP POP JUMP JUMPDEST POP POP POP JUMP JUMPDEST PUSH2 0x124E COINBASE PUSH1 0x6 SLOAD PUSH2 0x1250 JUMP JUMPDEST JUMP JUMPDEST PUSH2 0x1258 PUSH2 0x614 JUMP JUMPDEST DUP2 PUSH2 0x1261 PUSH2 0x51A JUMP JUMPDEST PUSH2 0x126B SWAP2 SWAP1 PUSH2 0x18E6 JUMP JUMPDEST GT ISZERO PUSH2 0x12AC JUMPI PUSH1 0x40 MLOAD PUSH32 0x8C379A000000000000000000000000000000000000000000000000000000000 DUP2 MSTORE PUSH1 0x4 ADD PUSH2 0x12A3 SWAP1 PUSH2 0x19F8 JUMP JUMPDEST PUSH1 0x40 MLOAD DUP1 SWAP2 SUB SWAP1 REVERT JUMPDEST PUSH2 0x12B6 DUP3 DUP3 PUSH2 0x918 JUMP JUMPDEST POP POP JUMP JUMPDEST PUSH1 0x0 DUP2 MLOAD SWAP1 POP SWAP2 SWAP1 POP JUMP JUMPDEST PUSH1 0x0 DUP3 DUP3 MSTORE PUSH1 0x20 DUP3 ADD SWAP1 POP SWAP3 SWAP2 POP POP JUMP JUMPDEST PUSH1 0x0 JUMPDEST DUP4 DUP2 LT ISZERO PUSH2 0x12F4 JUMPI DUP1 DUP3 ADD MLOAD DUP2 DUP5 ADD MSTORE PUSH1 0x20 DUP2 ADD SWAP1 POP PUSH2 0x12D9 JUMP JUMPDEST PUSH1 0x0 DUP5 DUP5 ADD MSTORE POP POP POP POP JUMP JUMPDEST PUSH1 0x0 PUSH1 0x1F NOT PUSH1 0x1F DUP4 ADD AND SWAP1 POP SWAP2 SWAP1 POP JUMP JUMPDEST PUSH1 0x0 PUSH2 0x131C DUP3 PUSH2 0x12BA JUMP JUMPDEST PUSH2 0x1326 DUP2 DUP6 PUSH2 0x12C5 JUMP JUMPDEST SWAP4 POP PUSH2 0x1336 DUP2 DUP6 PUSH1 0x20 DUP7 ADD PUSH2 0x12D6 JUMP JUMPDEST PUSH2 0x133F DUP2 PUSH2 0x1300 JUMP JUMPDEST DUP5 ADD SWAP2 POP POP SWAP3 SWAP2 POP POP JUMP JUMPDEST PUSH1 0x0 PUSH1 0x20 DUP3 ADD SWAP1 POP DUP2 DUP2 SUB PUSH1 0x0 DUP4 ADD MSTORE PUSH2 0x1364 DUP2 DUP5 PUSH2 0x1311 JUMP JUMPDEST SWAP1 POP SWAP3 SWAP2 POP POP JUMP JUMPDEST PUSH1 0x0 DUP1 REVERT JUMPDEST PUSH1 0x0 PUSH20 0xFFFFFFFFFFFFFFFFFFFFFFFFFFFFFFFFFFFFFFFF DUP3 AND SWAP1 POP SWAP2 SWAP1 POP JUMP JUMPDEST PUSH1 0x0 PUSH2 0x139C DUP3 PUSH2 0x1371 JUMP JUMPDEST SWAP1 POP SWAP2 SWAP1 POP JUMP JUMPDEST PUSH2 0x13AC DUP2 PUSH2 0x1391 JUMP JUMPDEST DUP2 EQ PUSH2 0x13B7 JUMPI PUSH1 0x0 DUP1 REVERT JUMPDEST POP JUMP JUMPDEST PUSH1 0x0 DUP2 CALLDATALOAD SWAP1 POP PUSH2 0x13C9 DUP2 PUSH2 0x13A3 JUMP JUMPDEST SWAP3 SWAP2 POP POP JUMP JUMPDEST PUSH1 0x0 DUP2 SWAP1 POP SWAP2 SWAP1 POP JUMP JUMPDEST PUSH2 0x13E2 DUP2 PUSH2 0x13CF JUMP JUMPDEST DUP2 EQ PUSH2 0x13ED JUMPI PUSH1 0x0 DUP1 REVERT JUMPDEST POP JUMP JUMPDEST PUSH1 0x0 DUP2 CALLDATALOAD SWAP1 POP PUSH2 0x13FF DUP2 PUSH2 0x13D9 JUMP JUMPDEST SWAP3 SWAP2 POP POP JUMP JUMPDEST PUSH1 0x0 DUP1 PUSH1 0x40 DUP4 DUP6 SUB SLT ISZERO PUSH2 0x141C JUMPI PUSH2 0x141B PUSH2 0x136C JUMP JUMPDEST JUMPDEST PUSH1 0x0 PUSH2 0x142A DUP6 DUP3 DUP7 ADD PUSH2 0x13BA JUMP JUMPDEST SWAP3 POP POP PUSH1 0x20 PUSH2 0x143B DUP6 DUP3 DUP7 ADD PUSH2 0x13F0 JUMP JUMPDEST SWAP2 POP POP SWAP3 POP SWAP3 SWAP1 POP JUMP JUMPDEST PUSH1 0x0 DUP2 ISZERO ISZERO SWAP1 POP SWAP2 SWAP1 POP JUMP JUMPDEST PUSH2 0x145A DUP2 PUSH2 0x1445 JUMP JUMPDEST DUP3 MSTORE POP POP JUMP JUMPDEST PUSH1 0x0 PUSH1 0x20 DUP3 ADD SWAP1 POP PUSH2 0x1475 PUSH1 0x0 DUP4 ADD DUP5 PUSH2 0x1451 JUMP JUMPDEST SWAP3 SWAP2 POP POP JUMP JUMPDEST PUSH2 0x1484 DUP2 PUSH2 0x13CF JUMP JUMPDEST DUP3 MSTORE POP POP JUMP JUMPDEST PUSH1 0x0 PUSH1 0x20 DUP3 ADD SWAP1 POP PUSH2 0x149F PUSH1 0x0 DUP4 ADD DUP5 PUSH2 0x147B JUMP JUMPDEST SWAP3 SWAP2 POP POP JUMP JUMPDEST PUSH1 0x0 PUSH1 0x20 DUP3 DUP5 SUB SLT ISZERO PUSH2 0x14BB JUMPI PUSH2 0x14BA PUSH2 0x136C JUMP JUMPDEST JUMPDEST PUSH1 0x0 PUSH2 0x14C9 DUP5 DUP3 DUP6 ADD PUSH2 0x13F0 JUMP JUMPDEST SWAP2 POP POP SWAP3 SWAP2 POP POP JUMP JUMPDEST PUSH1 0x0 DUP1 PUSH1 0x0 PUSH1 0x60 DUP5 DUP7 SUB SLT ISZERO PUSH2 0x14EB JUMPI PUSH2 0x14EA PUSH2 0x136C JUMP JUMPDEST JUMPDEST PUSH1 0x0 PUSH2 0x14F9 DUP7 DUP3 DUP8 ADD PUSH2 0x13BA JUMP JUMPDEST SWAP4 POP POP PUSH1 0x20 PUSH2 0x150A DUP7 DUP3 DUP8 ADD PUSH2 0x13BA JUMP JUMPDEST SWAP3 POP POP PUSH1 0x40 PUSH2 0x151B DUP7 DUP3 DUP8 ADD PUSH2 0x13F0 JUMP JUMPDEST SWAP2 POP POP SWAP3 POP SWAP3 POP SWAP3 JUMP JUMPDEST PUSH1 0x0 PUSH1 0xFF DUP3 AND SWAP1 POP SWAP2 SWAP1 POP JUMP JUMPDEST PUSH2 0x153B DUP2 PUSH2 0x1525 JUMP JUMPDEST DUP3 MSTORE POP POP JUMP JUMPDEST PUSH1 0x0 PUSH1 0x20 DUP3 ADD SWAP1 POP PUSH2 0x1556 PUSH1 0x0 DUP4 ADD DUP5 PUSH2 0x1532 JUMP JUMPDEST SWAP3 SWAP2 POP POP JUMP JUMPDEST PUSH1 0x0 PUSH1 0x20 DUP3 DUP5 SUB SLT ISZERO PUSH2 0x1572 JUMPI PUSH2 0x1571 PUSH2 0x136C JUMP JUMPDEST JUMPDEST PUSH1 0x0 PUSH2 0x1580 DUP5 DUP3 DUP6 ADD PUSH2 0x13BA JUMP JUMPDEST SWAP2 POP POP SWAP3 SWAP2 POP POP JUMP JUMPDEST PUSH1 0x0 PUSH2 0x1594 DUP3 PUSH2 0x1371 JUMP JUMPDEST SWAP1 POP SWAP2 SWAP1 POP JUMP JUMPDEST PUSH2 0x15A4 DUP2 PUSH2 0x1589 JUMP JUMPDEST DUP3 MSTORE POP POP JUMP JUMPDEST PUSH1 0x0 PUSH1 0x20 DUP3 ADD SWAP1 POP PUSH2 0x15BF PUSH1 0x0 DUP4 ADD DUP5 PUSH2 0x159B JUMP JUMPDEST SWAP3 SWAP2 POP POP JUMP JUMPDEST PUSH1 0x0 DUP1 PUSH1 0x40 DUP4 DUP6 SUB SLT ISZERO PUSH2 0x15DC JUMPI PUSH2 0x15DB PUSH2 0x136C JUMP JUMPDEST JUMPDEST PUSH1 0x0 PUSH2 0x15EA DUP6 DUP3 DUP7 ADD PUSH2 0x13BA JUMP JUMPDEST SWAP3 POP POP PUSH1 0x20 PUSH2 0x15FB DUP6 DUP3 DUP7 ADD PUSH2 0x13BA JUMP JUMPDEST SWAP2 POP POP SWAP3 POP SWAP3 SWAP1 POP JUMP JUMPDEST PUSH32 0x4E487B7100000000000000000000000000000000000000000000000000000000 PUSH1 0x0 MSTORE PUSH1 0x22 PUSH1 0x4 MSTORE PUSH1 0x24 PUSH1 0x0 REVERT JUMPDEST PUSH1 0x0 PUSH1 0x2 DUP3 DIV SWAP1 POP PUSH1 0x1 DUP3 AND DUP1 PUSH2 0x164C JUMPI PUSH1 0x7F DUP3 AND SWAP2 POP JUMPDEST PUSH1 0x20 DUP3 LT DUP2 SUB PUSH2 0x165F JUMPI PUSH2 0x165E PUSH2 0x1605 JUMP JUMPDEST JUMPDEST POP SWAP2 SWAP1 POP JUMP JUMPDEST PUSH32 0x4F6E6C7920746865206F776E65722063616E2063616C6C20746869732066756E PUSH1 0x0 DUP3 ADD MSTORE PUSH32 0x6374696F6E000000000000000000000000000000000000000000000000000000 PUSH1 0x20 DUP3 ADD MSTORE POP JUMP JUMPDEST PUSH1 0x0 PUSH2 0x16C1 PUSH1 0x25 DUP4 PUSH2 0x12C5 JUMP JUMPDEST SWAP2 POP PUSH2 0x16CC DUP3 PUSH2 0x1665 JUMP JUMPDEST PUSH1 0x40 DUP3 ADD SWAP1 POP SWAP2 SWAP1 POP JUMP JUMPDEST PUSH1 0x0 PUSH1 0x20 DUP3 ADD SWAP1 POP DUP2 DUP2 SUB PUSH1 0x0 DUP4 ADD MSTORE PUSH2 0x16F0 DUP2 PUSH2 0x16B4 JUMP JUMPDEST SWAP1 POP SWAP2 SWAP1 POP JUMP JUMPDEST PUSH32 0x4E487B7100000000000000000000000000000000000000000000000000000000 PUSH1 0x0 MSTORE PUSH1 0x11 PUSH1 0x4 MSTORE PUSH1 0x24 PUSH1 0x0 REVERT JUMPDEST PUSH1 0x0 DUP2 PUSH1 0x1 SHR SWAP1 POP SWAP2 SWAP1 POP JUMP JUMPDEST PUSH1 0x0 DUP1 DUP3 SWAP2 POP DUP4 SWAP1 POP JUMPDEST PUSH1 0x1 DUP6 GT ISZERO PUSH2 0x177D JUMPI DUP1 DUP7 DIV DUP2 GT ISZERO PUSH2 0x1759 JUMPI PUSH2 0x1758 PUSH2 0x16F7 JUMP JUMPDEST JUMPDEST PUSH1 0x1 DUP6 AND ISZERO PUSH2 0x1768 JUMPI DUP1 DUP3 MUL SWAP2 POP JUMPDEST DUP1 DUP2 MUL SWAP1 POP PUSH2 0x1776 DUP6 PUSH2 0x1726 JUMP JUMPDEST SWAP5 POP PUSH2 0x173D JUMP JUMPDEST SWAP5 POP SWAP5 SWAP3 POP POP POP JUMP JUMPDEST PUSH1 0x0 DUP3 PUSH2 0x1796 JUMPI PUSH1 0x1 SWAP1 POP PUSH2 0x1852 JUMP JUMPDEST DUP2 PUSH2 0x17A4 JUMPI PUSH1 0x0 SWAP1 POP PUSH2 0x1852 JUMP JUMPDEST DUP2 PUSH1 0x1 DUP2 EQ PUSH2 0x17BA JUMPI PUSH1 0x2 DUP2 EQ PUSH2 0x17C4 JUMPI PUSH2 0x17F3 JUMP JUMPDEST PUSH1 0x1 SWAP2 POP POP PUSH2 0x1852 JUMP JUMPDEST PUSH1 0xFF DUP5 GT ISZERO PUSH2 0x17D6 JUMPI PUSH2 0x17D5 PUSH2 0x16F7 JUMP JUMPDEST JUMPDEST DUP4 PUSH1 0x2 EXP SWAP2 POP DUP5 DUP3 GT ISZERO PUSH2 0x17ED JUMPI PUSH2 0x17EC PUSH2 0x16F7 JUMP JUMPDEST JUMPDEST POP PUSH2 0x1852 JUMP JUMPDEST POP PUSH1 0x20 DUP4 LT PUSH2 0x133 DUP4 LT AND PUSH1 0x4E DUP5 LT PUSH1 0xB DUP5 LT AND OR ISZERO PUSH2 0x1828 JUMPI DUP3 DUP3 EXP SWAP1 POP DUP4 DUP2 GT ISZERO PUSH2 0x1823 JUMPI PUSH2 0x1822 PUSH2 0x16F7 JUMP JUMPDEST JUMPDEST PUSH2 0x1852 JUMP JUMPDEST PUSH2 0x1835 DUP5 DUP5 DUP5 PUSH1 0x1 PUSH2 0x1733 JUMP JUMPDEST SWAP3 POP SWAP1 POP DUP2 DUP5 DIV DUP2 GT ISZERO PUSH2 0x184C JUMPI PUSH2 0x184B PUSH2 0x16F7 JUMP JUMPDEST JUMPDEST DUP2 DUP2 MUL SWAP1 POP JUMPDEST SWAP4 SWAP3 POP POP POP JUMP JUMPDEST PUSH1 0x0 PUSH2 0x1864 DUP3 PUSH2 0x13CF JUMP JUMPDEST SWAP2 POP PUSH2 0x186F DUP4 PUSH2 0x1525 JUMP JUMPDEST SWAP3 POP PUSH2 0x189C PUSH32 0xFFFFFFFFFFFFFFFFFFFFFFFFFFFFFFFFFFFFFFFFFFFFFFFFFFFFFFFFFFFFFFFF DUP5 DUP5 PUSH2 0x1786 JUMP JUMPDEST SWAP1 POP SWAP3 SWAP2 POP POP JUMP JUMPDEST PUSH1 0x0 PUSH2 0x18AF DUP3 PUSH2 0x13CF JUMP JUMPDEST SWAP2 POP PUSH2 0x18BA DUP4 PUSH2 0x13CF JUMP JUMPDEST SWAP3 POP DUP3 DUP3 MUL PUSH2 0x18C8 DUP2 PUSH2 0x13CF JUMP JUMPDEST SWAP2 POP DUP3 DUP3 DIV DUP5 EQ DUP4 ISZERO OR PUSH2 0x18DF JUMPI PUSH2 0x18DE PUSH2 0x16F7 JUMP JUMPDEST JUMPDEST POP SWAP3 SWAP2 POP POP JUMP JUMPDEST PUSH1 0x0 PUSH2 0x18F1 DUP3 PUSH2 0x13CF JUMP JUMPDEST SWAP2 POP PUSH2 0x18FC DUP4 PUSH2 0x13CF JUMP JUMPDEST SWAP3 POP DUP3 DUP3 ADD SWAP1 POP DUP1 DUP3 GT ISZERO PUSH2 0x1914 JUMPI PUSH2 0x1913 PUSH2 0x16F7 JUMP JUMPDEST JUMPDEST SWAP3 SWAP2 POP POP JUMP JUMPDEST PUSH32 0x45524332303A2064656372656173656420616C6C6F77616E63652062656C6F77 PUSH1 0x0 DUP3 ADD MSTORE PUSH32 0x207A65726F000000000000000000000000000000000000000000000000000000 PUSH1 0x20 DUP3 ADD MSTORE POP JUMP JUMPDEST PUSH1 0x0 PUSH2 0x1976 PUSH1 0x25 DUP4 PUSH2 0x12C5 JUMP JUMPDEST SWAP2 POP PUSH2 0x1981 DUP3 PUSH2 0x191A JUMP JUMPDEST PUSH1 0x40 DUP3 ADD SWAP1 POP SWAP2 SWAP1 POP JUMP JUMPDEST PUSH1 0x0 PUSH1 0x20 DUP3 ADD SWAP1 POP DUP2 DUP2 SUB PUSH1 0x0 DUP4 ADD MSTORE PUSH2 0x19A5 DUP2 PUSH2 0x1969 JUMP JUMPDEST SWAP1 POP SWAP2 SWAP1 POP JUMP JUMPDEST PUSH32 0x45524332304361707065643A2063617020657863656564656400000000000000 PUSH1 0x0 DUP3 ADD MSTORE POP JUMP JUMPDEST PUSH1 0x0 PUSH2 0x19E2 PUSH1 0x19 DUP4 PUSH2 0x12C5 JUMP JUMPDEST SWAP2 POP PUSH2 0x19ED DUP3 PUSH2 0x19AC JUMP JUMPDEST PUSH1 0x20 DUP3 ADD SWAP1 POP SWAP2 SWAP1 POP JUMP JUMPDEST PUSH1 0x0 PUSH1 0x20 DUP3 ADD SWAP1 POP DUP2 DUP2 SUB PUSH1 0x0 DUP4 ADD MSTORE PUSH2 0x1A11 DUP2 PUSH2 0x19D5 JUMP JUMPDEST SWAP1 POP SWAP2 SWAP1 POP JUMP JUMPDEST PUSH32 0x45524332303A206D696E7420746F20746865207A65726F206164647265737300 PUSH1 0x0 DUP3 ADD MSTORE POP JUMP JUMPDEST PUSH1 0x0 PUSH2 0x1A4E PUSH1 0x1F DUP4 PUSH2 0x12C5 JUMP JUMPDEST SWAP2 POP PUSH2 0x1A59 DUP3 PUSH2 0x1A18 JUMP JUMPDEST PUSH1 0x20 DUP3 ADD SWAP1 POP SWAP2 SWAP1 POP JUMP JUMPDEST PUSH1 0x0 PUSH1 0x20 DUP3 ADD SWAP1 POP DUP2 DUP2 SUB PUSH1 0x0 DUP4 ADD MSTORE PUSH2 0x1A7D DUP2 PUSH2 0x1A41 JUMP JUMPDEST SWAP1 POP SWAP2 SWAP1 POP JUMP JUMPDEST PUSH32 0x45524332303A20617070726F76652066726F6D20746865207A65726F20616464 PUSH1 0x0 DUP3 ADD MSTORE PUSH32 0x7265737300000000000000000000000000000000000000000000000000000000 PUSH1 0x20 DUP3 ADD MSTORE POP JUMP JUMPDEST PUSH1 0x0 PUSH2 0x1AE0 PUSH1 0x24 DUP4 PUSH2 0x12C5 JUMP JUMPDEST SWAP2 POP PUSH2 0x1AEB DUP3 PUSH2 0x1A84 JUMP JUMPDEST PUSH1 0x40 DUP3 ADD SWAP1 POP SWAP2 SWAP1 POP JUMP JUMPDEST PUSH1 0x0 PUSH1 0x20 DUP3 ADD SWAP1 POP DUP2 DUP2 SUB PUSH1 0x0 DUP4 ADD MSTORE PUSH2 0x1B0F DUP2 PUSH2 0x1AD3 JUMP JUMPDEST SWAP1 POP SWAP2 SWAP1 POP JUMP JUMPDEST PUSH32 0x45524332303A20617070726F766520746F20746865207A65726F206164647265 PUSH1 0x0 DUP3 ADD MSTORE PUSH32 0x7373000000000000000000000000000000000000000000000000000000000000 PUSH1 0x20 DUP3 ADD MSTORE POP JUMP JUMPDEST PUSH1 0x0 PUSH2 0x1B72 PUSH1 0x22 DUP4 PUSH2 0x12C5 JUMP JUMPDEST SWAP2 POP PUSH2 0x1B7D DUP3 PUSH2 0x1B16 JUMP JUMPDEST PUSH1 0x40 DUP3 ADD SWAP1 POP SWAP2 SWAP1 POP JUMP JUMPDEST PUSH1 0x0 PUSH1 0x20 DUP3 ADD SWAP1 POP DUP2 DUP2 SUB PUSH1 0x0 DUP4 ADD MSTORE PUSH2 0x1BA1 DUP2 PUSH2 0x1B65 JUMP JUMPDEST SWAP1 POP SWAP2 SWAP1 POP JUMP JUMPDEST PUSH32 0x45524332303A20696E73756666696369656E7420616C6C6F77616E6365000000 PUSH1 0x0 DUP3 ADD MSTORE POP JUMP JUMPDEST PUSH1 0x0 PUSH2 0x1BDE PUSH1 0x1D DUP4 PUSH2 0x12C5 JUMP JUMPDEST SWAP2 POP PUSH2 0x1BE9 DUP3 PUSH2 0x1BA8 JUMP JUMPDEST PUSH1 0x20 DUP3 ADD SWAP1 POP SWAP2 SWAP1 POP JUMP JUMPDEST PUSH1 0x0 PUSH1 0x20 DUP3 ADD SWAP1 POP DUP2 DUP2 SUB PUSH1 0x0 DUP4 ADD MSTORE PUSH2 0x1C0D DUP2 PUSH2 0x1BD1 JUMP JUMPDEST SWAP1 POP SWAP2 SWAP1 POP JUMP JUMPDEST PUSH32 0x45524332303A207472616E736665722066726F6D20746865207A65726F206164 PUSH1 0x0 DUP3 ADD MSTORE PUSH32 0x6472657373000000000000000000000000000000000000000000000000000000 PUSH1 0x20 DUP3 ADD MSTORE POP JUMP JUMPDEST PUSH1 0x0 PUSH2 0x1C70 PUSH1 0x25 DUP4 PUSH2 0x12C5 JUMP JUMPDEST SWAP2 POP PUSH2 0x1C7B DUP3 PUSH2 0x1C14 JUMP JUMPDEST PUSH1 0x40 DUP3 ADD SWAP1 POP SWAP2 SWAP1 POP JUMP JUMPDEST PUSH1 0x0 PUSH1 0x20 DUP3 ADD SWAP1 POP DUP2 DUP2 SUB PUSH1 0x0 DUP4 ADD MSTORE PUSH2 0x1C9F DUP2 PUSH2 0x1C63 JUMP JUMPDEST SWAP1 POP SWAP2 SWAP1 POP JUMP JUMPDEST PUSH32 0x45524332303A207472616E7366657220746F20746865207A65726F2061646472 PUSH1 0x0 DUP3 ADD MSTORE PUSH32 0x6573730000000000000000000000000000000000000000000000000000000000 PUSH1 0x20 DUP3 ADD MSTORE POP JUMP JUMPDEST PUSH1 0x0 PUSH2 0x1D02 PUSH1 0x23 DUP4 PUSH2 0x12C5 JUMP JUMPDEST SWAP2 POP PUSH2 0x1D0D DUP3 PUSH2 0x1CA6 JUMP JUMPDEST PUSH1 0x40 DUP3 ADD SWAP1 POP SWAP2 SWAP1 POP JUMP JUMPDEST PUSH1 0x0 PUSH1 0x20 DUP3 ADD SWAP1 POP DUP2 DUP2 SUB PUSH1 0x0 DUP4 ADD MSTORE PUSH2 0x1D31 DUP2 PUSH2 0x1CF5 JUMP JUMPDEST SWAP1 POP SWAP2 SWAP1 POP JUMP JUMPDEST PUSH32 0x45524332303A207472616E7366657220616D6F756E7420657863656564732062 PUSH1 0x0 DUP3 ADD MSTORE PUSH32 0x616C616E63650000000000000000000000000000000000000000000000000000 PUSH1 0x20 DUP3 ADD MSTORE POP JUMP JUMPDEST PUSH1 0x0 PUSH2 0x1D94 PUSH1 0x26 DUP4 PUSH2 0x12C5 JUMP JUMPDEST SWAP2 POP PUSH2 0x1D9F DUP3 PUSH2 0x1D38 JUMP JUMPDEST PUSH1 0x40 DUP3 ADD SWAP1 POP SWAP2 SWAP1 POP JUMP JUMPDEST PUSH1 0x0 PUSH1 0x20 DUP3 ADD SWAP1 POP DUP2 DUP2 SUB PUSH1 0x0 DUP4 ADD MSTORE PUSH2 0x1DC3 DUP2 PUSH2 0x1D87 JUMP JUMPDEST SWAP1 POP SWAP2 SWAP1 POP JUMP JUMPDEST PUSH32 0x45524332303A206275726E2066726F6D20746865207A65726F20616464726573 PUSH1 0x0 DUP3 ADD MSTORE PUSH32 0x7300000000000000000000000000000000000000000000000000000000000000 PUSH1 0x20 DUP3 ADD MSTORE POP JUMP JUMPDEST PUSH1 0x0 PUSH2 0x1E26 PUSH1 0x21 DUP4 PUSH2 0x12C5 JUMP JUMPDEST SWAP2 POP PUSH2 0x1E31 DUP3 PUSH2 0x1DCA JUMP JUMPDEST PUSH1 0x40 DUP3 ADD SWAP1 POP SWAP2 SWAP1 POP JUMP JUMPDEST PUSH1 0x0 PUSH1 0x20 DUP3 ADD SWAP1 POP DUP2 DUP2 SUB PUSH1 0x0 DUP4 ADD MSTORE PUSH2 0x1E55 DUP2 PUSH2 0x1E19 JUMP JUMPDEST SWAP1 POP SWAP2 SWAP1 POP JUMP JUMPDEST PUSH32 0x45524332303A206275726E20616D6F756E7420657863656564732062616C616E PUSH1 0x0 DUP3 ADD MSTORE PUSH32 0x6365000000000000000000000000000000000000000000000000000000000000 PUSH1 0x20 DUP3 ADD MSTORE POP JUMP JUMPDEST PUSH1 0x0 PUSH2 0x1EB8 PUSH1 0x22 DUP4 PUSH2 0x12C5 JUMP JUMPDEST SWAP2 POP PUSH2 0x1EC3 DUP3 PUSH2 0x1E5C JUMP JUMPDEST PUSH1 0x40 DUP3 ADD SWAP1 POP SWAP2 SWAP1 POP JUMP JUMPDEST PUSH1 0x0 PUSH1 0x20 DUP3 ADD SWAP1 POP DUP2 DUP2 SUB PUSH1 0x0 DUP4 ADD MSTORE PUSH2 0x1EE7 DUP2 PUSH2 0x1EAB JUMP JUMPDEST SWAP1 POP SWAP2 SWAP1 POP JUMP INVALID LOG2 PUSH5 0x6970667358 0x22 SLT KECCAK256 SDIV 0xAF 0xC7 PUSH4 0x73BCB09F CODESIZE 0xD9 SELFDESTRUCT 0xC9 DUP9 PUSH23 0x6154C58A2AD38AEB223B9626A41BAE976A1764736F6C63 NUMBER STOP ADDMOD SLT STOP CALLER "
		},
		"gasEstimates": {
			"creation": {
				"codeDepositCost": "1594400",
				"executionCost": "infinite",
				"totalCost": "infinite"
			},
			"external": {
				"allowance(address,address)": "infinite",
				"approve(address,uint256)": "infinite",
				"approveTokens(address,uint256)": "infinite",
				"balanceOf(address)": "2974",
				"blockReward()": "2497",
				"burn(uint256)": "infinite",
				"burnFrom(address,uint256)": "infinite",
				"cap()": "infinite",
				"decimals()": "388",
				"decreaseAllowance(address,uint256)": "infinite",
				"getBalance(address)": "3016",
				"getTotalSupply()": "2516",
				"increaseAllowance(address,uint256)": "infinite",
				"name()": "infinite",
				"owner()": "2559",
				"setBlockReward(uint256)": "infinite",
				"symbol()": "infinite",
				"totalSupply()": "2527",
				"transfer(address,uint256)": "infinite",
				"transferFrom(address,address,uint256)": "infinite",
				"transferFromOneAddressToAnother(address,address,uint256)": "infinite",
				"transferTokens(address,uint256)": "infinite"
			},
			"internal": {
				"_beforeTokenTransfer(address,address,uint256)": "infinite",
				"_mint(address,uint256)": "infinite",
				"_mintMinerReward()": "infinite"
			}
		},
		"methodIdentifiers": {
			"allowance(address,address)": "dd62ed3e",
			"approve(address,uint256)": "095ea7b3",
			"approveTokens(address,uint256)": "f38488ec",
			"balanceOf(address)": "70a08231",
			"blockReward()": "0ac168a1",
			"burn(uint256)": "42966c68",
			"burnFrom(address,uint256)": "79cc6790",
			"cap()": "355274ea",
			"decimals()": "313ce567",
			"decreaseAllowance(address,uint256)": "a457c2d7",
			"getBalance(address)": "f8b2cb4f",
			"getTotalSupply()": "c4e41b22",
			"increaseAllowance(address,uint256)": "39509351",
			"name()": "06fdde03",
			"owner()": "8da5cb5b",
			"setBlockReward(uint256)": "1a18e707",
			"symbol()": "95d89b41",
			"totalSupply()": "18160ddd",
			"transfer(address,uint256)": "a9059cbb",
			"transferFrom(address,address,uint256)": "23b872dd",
			"transferFromOneAddressToAnother(address,address,uint256)": "cab25230",
			"transferTokens(address,uint256)": "bec3fa17"
		}
	},
	"abi": [
		{
			"inputs": [
				{
					"internalType": "uint256",
					"name": "cap",
					"type": "uint256"
				},
				{
					"internalType": "uint256",
					"name": "reward",
					"type": "uint256"
				}
			],
			"stateMutability": "nonpayable",
			"type": "constructor"
		},
		{
			"anonymous": false,
			"inputs": [
				{
					"indexed": true,
					"internalType": "address",
					"name": "owner",
					"type": "address"
				},
				{
					"indexed": true,
					"internalType": "address",
					"name": "spender",
					"type": "address"
				},
				{
					"indexed": false,
					"internalType": "uint256",
					"name": "value",
					"type": "uint256"
				}
			],
			"name": "Approval",
			"type": "event"
		},
		{
			"anonymous": false,
			"inputs": [
				{
					"indexed": true,
					"internalType": "address",
					"name": "from",
					"type": "address"
				},
				{
					"indexed": true,
					"internalType": "address",
					"name": "to",
					"type": "address"
				},
				{
					"indexed": false,
					"internalType": "uint256",
					"name": "value",
					"type": "uint256"
				}
			],
			"name": "Transfer",
			"type": "event"
		},
		{
			"inputs": [
				{
					"internalType": "address",
					"name": "owner",
					"type": "address"
				},
				{
					"internalType": "address",
					"name": "spender",
					"type": "address"
				}
			],
			"name": "allowance",
			"outputs": [
				{
					"internalType": "uint256",
					"name": "",
					"type": "uint256"
				}
			],
			"stateMutability": "view",
			"type": "function"
		},
		{
			"inputs": [
				{
					"internalType": "address",
					"name": "spender",
					"type": "address"
				},
				{
					"internalType": "uint256",
					"name": "amount",
					"type": "uint256"
				}
			],
			"name": "approve",
			"outputs": [
				{
					"internalType": "bool",
					"name": "",
					"type": "bool"
				}
			],
			"stateMutability": "nonpayable",
			"type": "function"
		},
		{
			"inputs": [
				{
					"internalType": "address",
					"name": "spender",
					"type": "address"
				},
				{
					"internalType": "uint256",
					"name": "amount",
					"type": "uint256"
				}
			],
			"name": "approveTokens",
			"outputs": [],
			"stateMutability": "nonpayable",
			"type": "function"
		},
		{
			"inputs": [
				{
					"internalType": "address",
					"name": "account",
					"type": "address"
				}
			],
			"name": "balanceOf",
			"outputs": [
				{
					"internalType": "uint256",
					"name": "",
					"type": "uint256"
				}
			],
			"stateMutability": "view",
			"type": "function"
		},
		{
			"inputs": [],
			"name": "blockReward",
			"outputs": [
				{
					"internalType": "uint256",
					"name": "",
					"type": "uint256"
				}
			],
			"stateMutability": "view",
			"type": "function"
		},
		{
			"inputs": [
				{
					"internalType": "uint256",
					"name": "amount",
					"type": "uint256"
				}
			],
			"name": "burn",
			"outputs": [],
			"stateMutability": "nonpayable",
			"type": "function"
		},
		{
			"inputs": [
				{
					"internalType": "address",
					"name": "account",
					"type": "address"
				},
				{
					"internalType": "uint256",
					"name": "amount",
					"type": "uint256"
				}
			],
			"name": "burnFrom",
			"outputs": [],
			"stateMutability": "nonpayable",
			"type": "function"
		},
		{
			"inputs": [],
			"name": "cap",
			"outputs": [
				{
					"internalType": "uint256",
					"name": "",
					"type": "uint256"
				}
			],
			"stateMutability": "view",
			"type": "function"
		},
		{
			"inputs": [],
			"name": "decimals",
			"outputs": [
				{
					"internalType": "uint8",
					"name": "",
					"type": "uint8"
				}
			],
			"stateMutability": "view",
			"type": "function"
		},
		{
			"inputs": [
				{
					"internalType": "address",
					"name": "spender",
					"type": "address"
				},
				{
					"internalType": "uint256",
					"name": "subtractedValue",
					"type": "uint256"
				}
			],
			"name": "decreaseAllowance",
			"outputs": [
				{
					"internalType": "bool",
					"name": "",
					"type": "bool"
				}
			],
			"stateMutability": "nonpayable",
			"type": "function"
		},
		{
			"inputs": [
				{
					"internalType": "address",
					"name": "account",
					"type": "address"
				}
			],
			"name": "getBalance",
			"outputs": [
				{
					"internalType": "uint256",
					"name": "",
					"type": "uint256"
				}
			],
			"stateMutability": "view",
			"type": "function"
		},
		{
			"inputs": [],
			"name": "getTotalSupply",
			"outputs": [
				{
					"internalType": "uint256",
					"name": "",
					"type": "uint256"
				}
			],
			"stateMutability": "view",
			"type": "function"
		},
		{
			"inputs": [
				{
					"internalType": "address",
					"name": "spender",
					"type": "address"
				},
				{
					"internalType": "uint256",
					"name": "addedValue",
					"type": "uint256"
				}
			],
			"name": "increaseAllowance",
			"outputs": [
				{
					"internalType": "bool",
					"name": "",
					"type": "bool"
				}
			],
			"stateMutability": "nonpayable",
			"type": "function"
		},
		{
			"inputs": [],
			"name": "name",
			"outputs": [
				{
					"internalType": "string",
					"name": "",
					"type": "string"
				}
			],
			"stateMutability": "view",
			"type": "function"
		},
		{
			"inputs": [],
			"name": "owner",
			"outputs": [
				{
					"internalType": "address payable",
					"name": "",
					"type": "address"
				}
			],
			"stateMutability": "view",
			"type": "function"
		},
		{
			"inputs": [
				{
					"internalType": "uint256",
					"name": "reward",
					"type": "uint256"
				}
			],
			"name": "setBlockReward",
			"outputs": [],
			"stateMutability": "nonpayable",
			"type": "function"
		},
		{
			"inputs": [],
			"name": "symbol",
			"outputs": [
				{
					"internalType": "string",
					"name": "",
					"type": "string"
				}
			],
			"stateMutability": "view",
			"type": "function"
		},
		{
			"inputs": [],
			"name": "totalSupply",
			"outputs": [
				{
					"internalType": "uint256",
					"name": "",
					"type": "uint256"
				}
			],
			"stateMutability": "view",
			"type": "function"
		},
		{
			"inputs": [
				{
					"internalType": "address",
					"name": "to",
					"type": "address"
				},
				{
					"internalType": "uint256",
					"name": "amount",
					"type": "uint256"
				}
			],
			"name": "transfer",
			"outputs": [
				{
					"internalType": "bool",
					"name": "",
					"type": "bool"
				}
			],
			"stateMutability": "nonpayable",
			"type": "function"
		},
		{
			"inputs": [
				{
					"internalType": "address",
					"name": "from",
					"type": "address"
				},
				{
					"internalType": "address",
					"name": "to",
					"type": "address"
				},
				{
					"internalType": "uint256",
					"name": "amount",
					"type": "uint256"
				}
			],
			"name": "transferFrom",
			"outputs": [
				{
					"internalType": "bool",
					"name": "",
					"type": "bool"
				}
			],
			"stateMutability": "nonpayable",
			"type": "function"
		},
		{
			"inputs": [
				{
					"internalType": "address",
					"name": "from",
					"type": "address"
				},
				{
					"internalType": "address",
					"name": "to",
					"type": "address"
				},
				{
					"internalType": "uint256",
					"name": "amount",
					"type": "uint256"
				}
			],
			"name": "transferFromOneAddressToAnother",
			"outputs": [],
			"stateMutability": "nonpayable",
			"type": "function"
		},
		{
			"inputs": [
				{
					"internalType": "address",
					"name": "to",
					"type": "address"
				},
				{
					"internalType": "uint256",
					"name": "amount",
					"type": "uint256"
				}
			],
			"name": "transferTokens",
			"outputs": [],
			"stateMutability": "nonpayable",
			"type": "function"
		}
	]
}